:100000000C9463000C948B000C948B000C948B006C
:100010000C948B000C948B000C948B000C948B0034
:100020000C948B000C948B000C948B000C948B0024
:100030000C948B000C948B000C948B000C948B0014
:100040000C941D050C948B000C943B040C94BE0482
:100050000C948B000C948B000C948B000C948B00F4
:100060000C948B000C948B000000000024002700EF
:100070002A0000000000250028002B0000000000DE
:1000800023002600290004040404040404040202DA
:100090000202020203030303030301020408102007
:1000A0004080010204081020010204081020000012
:1000B0000007000201000003040600000000000029
:1000C00000008D00710411241FBECFEFD8E0DEBF09
:1000D000CDBF12E0A0E0B1E0E6EDFCE002C005908B
:1000E0000D92A43BB107D9F713E0A4EBB2E001C035
:1000F0001D92AE3FB107E1F710E0C6ECD0E004C0BE
:100100002297FE010E946506C23CD107C9F70E94F2
:100110000E050C9469060C94000068E070E0709382
:10012000BD026093BC0220E030E040E050E020934C
:10013000BE023093BF024093C0025093C10270933D
:10014000C3026093C2022093C4023093C50240935D
:10015000C6025093C7027093C9026093C8022093ED
:10016000CA023093CB024093CC025093CD027093DD
:10017000CF026093CE022093D0023093D1024093FD
:10018000D2025093D3027093D5026093D40220938D
:10019000D6023093D7024093D8025093D90270937D
:1001A000DB026093DA022093DC023093DD0240939D
:1001B000DE025093DF02E6E0F0E0F093E102E0932C
:1001C000E0021092E2021092E3021092E402109216
:1001D000E502F093E702E093E6021092E802109243
:1001E000E9021092EA021092EB02F093ED02E09322
:1001F000EC021092EE021092EF021092F0021092B6
:10020000F1027093F3026093F20280E090E0A6ECBA
:10021000B2E48093F4029093F502A093F602B093B7
:10022000F7027093F9026093F8022093FA02309378
:10023000FB024093FC025093FD027093FF02609317
:10024000FE02209300033093010340930203509376
:100250000303709305036093040380E090E0A4E837
:10026000B2E48093060390930703A0930803B0932E
:10027000090370930B0360930A0320930C033093DC
:100280000D0340930E0350930F037093110360937B
:1002900010032093120330931303409314035093DD
:1002A000150370931703609316032093180330937C
:1002B000190340931A0350931B0370931D0360931B
:1002C0001C0320931E0330931F034093200350937D
:1002D000210370932303609322032093240330931C
:1002E00025034093260350932703709301016093E5
:1002F0000001709317016093160170932D016093B4
:100300002C017093430160934201709359016093F3
:10031000580170936F0160936E01F0938501E09333
:100320008401F0939B01E0939A01F093B101E09373
:10033000B0017093C7016093C6017093DD016093B3
:10034000DC017093F3016093F201709309026093F2
:10035000080270931F0260931E027093350260932F
:10036000340270934B0260934A027093610260936F
:10037000600270937702609376021092B502109239
:10038000B4021092B6022091A20266E170E0822FC0
:1003900090E0869FF001879FF00D969FF00D11244D
:1003A000E050FF4F408151812F5F84899589892BCF
:1003B00011F0452B61F7822F81508093A202809328
:1003C000B70284E68093B80208950F931F93DF93DA
:1003D000CF93CDB7DEB7C052D2400FB6F894DEBF90
:1003E0000FBECDBFDC0114962C9180E890E0A0E018
:1003F000B0E089839A83AB83BC8382E08D831E82C5
:100400004F83688783E08987DE01A75EBE4FFE01C8
:10041000319689E001900D928150E1F7FE01EF5E87
:10042000FE4F178289E08383258388EC8683809141
:100430002F0384838F5F80932F03DF0113966FEF69
:100440007FEF8F01085F1F4F1DC02D912627822F40
:100450008295807F822790E0382F2227AC01440FBD
:10046000551F440F551F440F551F24273527672F4D
:1004700077276227732724E0959587952A95E1F7DA
:1004800068277927A017B10701F771961AC08D91D7
:100490008627282F2295207F282730E0722F662775
:1004A000C90143E0880F991F4A95E1F7682779272A
:1004B0006027712704E0359527950A95E1F76227B3
:1004C0007327072F1127AE17BF0709F722E3262747
:1004D000822F8295807F822790E0382F2227AC01DF
:1004E00063E0440F551F6A95E1F72427352720273D
:1004F000312744E0959587954A95E1F728273927D4
:10050000DE01AF5EBE4F11963C932E93FD013896EF
:10051000218732878EEF12968C9312979E01265F69
:100520003F4FFD0132968FE00190D9010D929D0160
:100530008150D1F7FE01EF5EFE4F438150E0BE01D6
:10054000665F7F4F4A5F5F4FDB01A40FB51F80815D
:1005500091818C9311969C934E5F5F4F88E593E059
:100560000E94E404C05EDD4F0FB6F894DEBF0FBEFC
:10057000CDBFCF91DF911F910F9108958DE06091D4
:10058000BB020E94ED050E9465052091B9023091E1
:10059000BA0240E050E0621B730B840B950B695E5E
:1005A000734080409040A0F084EB92E064E070E003
:1005B0004CED50E00E94E5018091BB0291E089275B
:1005C0008093BB020E9465057093BA026093B902E2
:1005D000089588E593E040E051EE60E070E026E0A9
:1005E0000E942B038DE061E00E94AE058DE060E08B
:1005F0000E94ED050895DC015C968C915C97FD01ED
:10060000E80FF11DE35AFF4F20815C968C915C97B7
:1006100090E001968F7390705C968C935C975696E1
:10062000ED91FC91579720835096ED91FC91519755
:100630008081806480835B969C915B975C968C91B3
:100640005C97981739F45296ED91FC9153978081FD
:100650008F7D80830895DF92EF92FF920F931F9317
:10066000CF93DF93EC017A018B01D22EE889F989CF
:1006700082E08083403081EE580780E0680780E0A8
:100680007807A1F060E079E08DE390E0A8019701A0
:100690000E944106215030404040504056954795B9
:1006A0003795279580E12030380798F0E889F98957
:1006B000108260E874E88EE190E0A80197010E9442
:1006C000410621503040404050405695479537955F
:1006D0002795EC85FD853083EE85FF852083188E78
:1006E000EC89FD89D082EA89FB89808180618083E1
:1006F000EA89FB89808188608083EA89FB8980811F
:1007000080688083EA89FB8980818F7D8083DF9187
:10071000CF911F910F91FF90EF90DF900895FC0112
:10072000218D828D30E0205C3F4F281B31092F73D3
:100730003070C9010895FC01918D828D981719F4CC
:100740002FEF3FEF06C0828DE80FF11D858D282F1A
:1007500030E0C9010895DC0159969C9159975A9649
:100760008C915A97981719F42FEF3FEF10C05A96B3
:100770008C915A97FD01E80FF11D958D5A968C9139
:100780005A978F5F8F735A968C93292F30E0C90147
:100790000895CF93DF93EC01888D882361F419C00D
:1007A0008C9185FF0AC0E889F989808185FF05C0A1
:1007B000CE010E94FB02AA89BB898C9185FD05C0F0
:1007C000E889F989808186FD04C00FB607FEE8CF6D
:1007D000F4CFDF91CF9108950F931F93CF93DF93C1
:1007E000EC01062F9B8D8C8D981791F5E889F9897E
:1007F000808185FF2DC0EE89FF896083E889F989B2
:100800008081806480831DC00FB607FC08C0E88922
:10081000F989808185FF03C0CE010E94FB028C8D87
:10082000181791F38B8DFE01E80FF11DE35AFF4F6E
:1008300000831B8FEA89FB8980818062808381E04D
:10084000888F81E090E0DF91CF911F910F91089503
:100850001B8D1F5F1F73E3CF84EB94E0892B51F056
:1008600080E090E0892B31F00E94B404882311F0DD
:100870000E94000008951F920F920FB60F9211244C
:100880002F938F939F93EF93FF93E0916803F091E1
:100890006903808182FD16C0E0916E03F0916F03C1
:1008A0002081909171039F5F9F73809172039817CD
:1008B00071F0E0917103F0E0E85AFC4F258F9093BE
:1008C000710305C0E0916E03F0916F03E081FF9129
:1008D000EF919F918F912F910F900FBE0F901F90CE
:1008E000189510925B0310925A0388EE93E0A0E0F3
:1008F000B0E080935C0390935D03A0935E03B0939C
:100900005F0387EA92E0909359038093580385EC44
:1009100090E0909365038093640384EC90E090935F
:1009200067038093660380EC90E090936903809363
:10093000680381EC90E090936B0380936A0382ECF0
:1009400090E090936D0380936C0386EC90E090931D
:100950006F0380936E0310927103109272031092D2
:10096000730310927403089588E593E00E948F0347
:1009700020E0892B09F021E0822F08951F920F9229
:100980000FB60F9211242F933F934F935F936F9362
:100990007F938F939F93AF93BF93EF93FF9388E5DC
:1009A00093E00E94FB02FF91EF91BF91AF919F9165
:1009B0008F917F916F915F914F913F912F910F9008
:1009C0000FBE0F901F901895CF92DF92EF92FF927B
:1009D0000F931F93CF93DF937C016B018A01C0E0DB
:1009E000D0E00FC0D6016D916D01D701ED91FC9162
:1009F0000190F081E02DC7010995C80FD91F015062
:100A000010400115110571F7CE01DF91CF911F91B3
:100A10000F91FF90EF90DF90CF900895CF93DF93E9
:100A20000E9473050E94E902CCE2D4E00E94BE025B
:100A30002097E1F30E942C04F9CF1F920F920FB67A
:100A40000F9211242F933F938F939F93AF93BF9354
:100A50008091F9039091FA03A091FB03B091FC03FC
:100A60003091FD030196A11DB11D232F2D5F2D3760
:100A700020F02D570196A11DB11D2093FD038093F9
:100A8000F9039093FA03A093FB03B093FC038091C6
:100A9000F5039091F603A091F703B091F803019646
:100AA000A11DB11D8093F5039093F603A093F70366
:100AB000B093F803BF91AF919F918F913F912F9188
:100AC0000F900FBE0F901F9018958FB7F89420913C
:100AD000F9033091FA034091FB035091FC038FBF5F
:100AE000B901CA010895789484B5826084BD84B543
:100AF000816084BD85B5826085BD85B5816085BD19
:100B0000EEE6F0E0808181608083E1E8F0E0108231
:100B1000808182608083808181608083E0E8F0E072
:100B2000808181608083E1EBF0E08081846080835C
:100B3000E0EBF0E0808181608083EAE7F0E0808193
:100B400084608083808182608083808181608083F3
:100B50008081806880831092C1000895CF93DF93D5
:100B6000482F50E0CA0186569F4FFC0134914A57E6
:100B70005F4FFA018491882369F190E0880F991FF3
:100B8000FC01E859FF4FA591B491FC01EE58FF4FCD
:100B9000C591D491662351F42FB7F8948C91932F7B
:100BA000909589238C93888189230BC0623061F4EE
:100BB0002FB7F8948C91932F909589238C938881EB
:100BC000832B88832FBF06C09FB7F8948C91832B0B
:100BD0008C939FBFDF91CF910895482F50E0CA01B9
:100BE00082559F4FFC012491CA0186569F4FFC01FC
:100BF00094914A575F4FFA013491332309F440C06E
:100C0000222351F1233071F0243028F42130A1F057
:100C1000223011F514C02630B1F02730C1F0243055
:100C2000D9F404C0809180008F7703C08091800048
:100C30008F7D8093800010C084B58F7702C084B50B
:100C40008F7D84BD09C08091B0008F7703C08091F3
:100C5000B0008F7D8093B000E32FF0E0EE0FFF1F18
:100C6000EE58FF4FA591B4912FB7F894662321F465
:100C70008C919095892302C08C91892B8C932FBFE6
:100C80000895A1E21A2EAA1BBB1BFD010DC0AA1FCD
:100C9000BB1FEE1FFF1FA217B307E407F50720F0E5
:100CA000A21BB30BE40BF50B661F771F881F991F60
:100CB0001A9469F760957095809590959B01AC01A9
:100CC000BD01CF010895EE0FFF1F0590F491E02DB7
:060CD0000994F894FFCF27
:100CD6000000726F6C6C5F616E676C6500000000EF
:100CE60000000000BC02000070697463685F616EFA
:100CF600676C6500000000000100C2020000796117
:100D0600775F616E676C65000000000000000200FE
:100D1600C8020000726F6C6C5F72616400000000B4
:100D2600000000000300CE02000070697463685F73
:100D3600726164000000000000000400D40200009C
:100D46007961775F726164000000000000000000B6
:100D56000500DA020000706964526F6C6C4F75749E
:100D66007075740000000600E002000070696450AF
:100D7600697463684F757470757400000700E60245
:100D860000007069645961774F757470757400005E
:100D960000000800EC0200006B50726F6C6C0000E3
:100DA60000000000000000000900F20200006B498C
:100DB600726F6C6C000000000000000000000A006A
:100DC600F80200006B44726F6C6C000000000000BB
:100DD600000000000B00FE0200006B507069746397
:100DE600680000000000000000000C000403000082
:100DF6006B49706974636800000000000000000021
:100E06000D000A0300006B447069746368000000FB
:100E16000000000000000E00100300006B50796116
:100E26007700000000000000000000000F0016031D
:100E360000006B49796177000000000000000000A7
:100E4600000010001C0300006B447961770000006D
:100E56000000000000000000110022030000000056
:100E6600000000000000000000000000000000007C
:100E760000001200000000EC03E4048F03AB039BA8
:040E860003C9030099
:00000001FF
