:1000000000800020BD0100004117000041170000E2
:100010004117000041170000411700000D170000B4
:100020000D1700000D1700000D170000411700000C
:10003000411700000D17000041170000FD160000D9
:100040004117000041170000411700004117000050
:100050004117000041170000411700004117000040
:100060004117000041170000411700004117000030
:100070004117000041170000411700004117000020
:100080004117000041170000411700004117000010
:100090004117000041170000411700004117000000
:1000A0003D3C0000313C00004117000041170000BA
:1000B00041170000411700004117000041170000E0
:1000C00041170000411700004117000041170000D0
:1000D00041170000411700004117000041170000C0
:1000E00041170000411700004117000041170000B0
:1000F000411700001D200000411700009924000056
:100100004117000049280000411700004117000076
:10011000411700004117000041170000411700007F
:10012000411700004117000041170000411700006F
:10013000411700004117000041170000411700005F
:10014000411700004117000041170000411700004F
:10015000211300003913000051130000691300003F
:1001600041170000012B000041170000411700005B
:10017000411700004117000041170000411700001F
:10018000411700004117000041170000411700000F
:100190004117000041170000411700009D180000A2
:1001A000ED18000075190000311A0000B51A0000A2
:1001B0004117000041170000A10F0000544B4CF202
:1001C000205210B51A804DF628121A8000BF00BFC9
:1001D00001F0BAFA4F4B4FF010621A604E4A9A6023
:1001E0004E4ADA604E4B1A6812F4807204D14D49BF
:1001F0000A604FF4A8521A604B4B1A7802F00802BA
:10020000D2B21AB11A7842F008021A70474B484825
:10021000484C2A221A700023474A02E01959995083
:10022000043399188142F9D3444B454A002101E037
:1002300043F8041B9342FBD34249434800231A5816
:100240005A500433B3F5DE7FF9D1404B404A802148
:1002500003F8011B9342FBD13A4A3E4B1A603E4BD6
:100260000A221A703D4B24221A70A02203F8012C96
:100270003B4A137803F00203DBB2002BF9D0384A73
:10028000137803F01003DBB2002BF9D1344A137852
:1002900003F00C03082BFAD1324B03221A704022D0
:1002A0005A702F4A137803F02003DBB2002BF9D0E9
:1002B0002B4A137803F04003DBB2002BF9D02A4B12
:1002C0002A4A1A6002225A60294B20221A70244AB4
:1002D000137803F00C030C2BFAD1264A264B1A6034
:1002E000264B274A1A60072243F8042C62B601F015
:1002F00085FC0C4B1B68DC0702D5224801F0F2FBA1
:100300000AF096FE01F026FA01F0F0F9FEE700BFD0
:100310000E20054030800440823F04000100002B85
:1003200010D0034014D0034002D0074000E0074043
:100330007092FF1F18DC00006087FF1F7092FF1F84
:10034000FCA3FF1F0082FF1F0000000000E400E08C
:100350005FE400E008ED00E0005006400140064088
:10036000064006400440064044800440000003016B
:1003700000400640C01005000480044014E000E086
:10038000FF760100F51A6351FFFFFFFFFFFFFFFF3C
:10039000FFFFFFFFFFFFFFFFFFFFFFFFFFFFFFFF6D
:1003A000FFFFFFFFFFFFFFFFFFFFFFFFFFFFFFFF5D
:1003B000FFFFFFFFFFFFFFFFFFFFFFFFFFFFFFFF4D
:1003C000FFFFFFFFFFFFFFFFFFFFFFFFFFFFFFFF3D
:1003D000FFFFFFFFFFFFFFFFFFFFFFFFFFFFFFFF2D
:1003E000FFFFFFFFFFFFFFFFFFFFFFFFFFFFFFFF1D
:1003F000FFFFFFFFFFFFFFFFFFFFFFFFFFFFFFFF0D
:10040000FFFFFFFFFFFFFFFFFFFFFFFFFEFFFFFFFD
:1004100008B549F27020074BC1F6FF701B1A062B76
:1004200000D808BD40F20003C0F20003002BF8D052
:100430009847F6E77392FF1F08B549F2702049F21A
:100440007023C1F6FF70C1F6FF731B1A9B1003EBFC
:10045000D373591000D108BD40F20002C0F200026F
:10046000002AF8D09047F6E710B549F27024C1F69B
:10047000FF74237873B9FFF7CBFF40F20003C0F29B
:1004800000032BB14DF61840C0F20000AFF300801E
:100490000123237010BD00BF08B540F20003C0F275
:1004A00000034BB14DF6184049F27421C0F2000030
:1004B000C1F6FF71AFF3008049F27020C1F6FF7002
:1004C00003682BB140F20003C0F2000303B1984768
:1004D000BDE80840B0E700BF08B5054807F0E8FAF6
:1004E000044807F0E5FA0448BDE8084007F0E0BA20
:1004F0008C94FF1F2893FF1F1C93FF1FFFFFFFFF1C
:1005000038B55F4D5F4C284607F0F6FC03460122E4
:100510009968204604F050FC284607F0EDFC03469D
:1005200002225968204604F047FC284607F0E4FC04
:10053000006809F0E7FE50A3D3E9002309F036FF75
:100540000AF0F6F903220146204604F035FC28465D
:1005500007F0D4FC4C4980680AF0FCFB04220146F9
:10056000204604F029FC284607F0C8FC46494068AC
:100570000AF0F0FB05220146204604F01DFC284647
:1005800007F0BCFC404900680AF0E4FB0622014683
:10059000204604F011FC284607F0B4FC3A49806874
:1005A0000AF0D8FB07220146204604F005FC284645
:1005B00007F0A8FC344940680AF0CCFB0822014649
:1005C000204604F0F9FB284607F09CFC2E49006801
:1005D0000AF0C0FB09220146204604F0EDFB284644
:1005E00007F08EFC284980680AF0B4FB0A22014615
:1005F000204604F0E1FB284607F082FC22494068CF
:100600000AF0A8FB0B220146204604F0D5FB284641
:1006100007F076FC1C4900680AF09CFB0C2201469E
:10062000204604F0C9FB284607F06EFC1649806896
:100630000AF090FB0D220146204604F0BDFB28463F
:1006400007F062FC104940680AF084FB0E22014664
:10065000204604F0B1FB284607F056FC0A49006822
:100660000AF078FB0F2201462046BDE8384004F02E
:10067000A3BB00BFAFF300809A9999999999B93FAC
:100680009092FF1F98A3FF1F0000C842AFF30080A5
:1006900008B5064804F08AFA10B90548022101E0BD
:1006A00003480021BDE8084007F028BA98A3FF1FBF
:1006B0002893FF1F38B5124807F052FCF0B101F043
:1006C00069FA04460E4807F015FC251A29460C481D
:1006D00007F0BAFB29460A4807F08CFB084807F0E8
:1006E0000BFC0146074803F0BBFE064803F03EFD45
:1006F00003482146BDE8384007F0FABB38BD00BFCB
:100700009092FF1FF092FF1F38B51F4B1A78002AF6
:1007100039D072B61D4C226BE266E26FC4F8B82085
:10072000D4F8C820C4F80421D4F81421C4F8502106
:1007300062B6002216481A7003F056FE98B104F50E
:10074000867003F0EDFB0546124807F0D9FB6423E1
:10075000044695FBF3F000B20AF0F4F90146206874
:100760000AF03CF920600A4803F0A6FD58B10A4897
:1007700007F0CDF9064803F045FE01460748BDE8FD
:10078000384004F03BBB38BD889DFF1F9894FF1F85
:10079000F092FF1F9092FF1F1C93FF1F98A3FF1F53
:1007A0002DE9F8439946154B002500268364012363
:1007B0000F460560067185600673056106758561E3
:1007C0000677056280F824608562C562056345632B
:1007D0008563C5630564456480F84C300665084947
:1007E0000446904604F0B8FB089B2760C4F80880D4
:1007F000C4F81090A3612046BDE8F883A48E0E3F94
:10080000E8C800002DE9F0470446894610462170EB
:100810001946174698460AF0E1F84FF07C510AF065
:10082000E5F982460AF0A8FB00250026A060E660F4
:100830006661E6616662E6622574257684F820507A
:1008400084F8285084F83050676384F83850404664
:100850000AF092FB0646608738460AF08DFB9DF849
:100860002030A087A4F84000606484F84830204617
:10087000E687074904F070FB4846294601F06EF907
:10088000C4F81C80E760C4F814A02046BDE8F087D7
:1008900040C800002DE9F04FADF5417D002500274F
:1008A00004460560077185600773056107758561FA
:1008B0000777056280F82470032100976D4A6E4B1C
:1008C000DFF8E4816D4EDFF8E491DFF8E4B1DFF8A2
:1008D000E4A12830FFF796FF01230093042104F1DF
:1008E0007400674A674BFFF78DFF0521009704F1FD
:1008F000C000654A654BFFF785FF0621009704F5A8
:100900008670634A634BFFF77DFF29462A462B46D4
:10091000CDF8008004F5AC70FFF742FF29462A4667
:100920002B46CDF8008004F5D670FFF739FF294635
:100930002A462B46CDF8008004F50070FFF730FF03
:1009400000964B4604F515705349544AFFF728FFAB
:10095000009629462A464B4604F52A704FF08249F4
:10096000FFF71EFFCDF8009029462A462B4604F5D6
:100970003F70FFF715FFCDF80090DFF83C91484934
:10098000484A2B4681A8FFF70BFF0096594652466E
:100990004B4696A8FFF704FF4B460096594654264F
:1009A0005246ABA8FFF7FCFE81A9324642A80AF0E6
:1009B00079FE96A9324657A80AF074FEABA93246D2
:1009C0006CA80AF06FFE42A9324604F554700AF092
:1009D00069FEDFF8E89057A9324604F569700AF01D
:1009E00061FE6CA9324604F57E700AF05BFE494652
:1009F0002A462B46CDF8008003A8FFF7D1FE4946D2
:100A00002A462B46CDF8008018A8FFF7C9FE2B46D2
:100A100049462A46CDF800802DA8FFF7C1FE03A95C
:100A2000324681A80AF03EFE18A9324696A80AF07E
:100A300039FE2DA93246ABA80AF034FE81A9324610
:100A400004F24C400AF02EFE96A9324604F594605A
:100A50000AF028FE04F2F440ABA932460AF022FE66
:100A6000C4F8485584F84C7520460DF5417DBDE825
:100A7000F08F00BF008085440080F0440000FA43FE
:100A800000E08E440020E644002086440040F2440A
:100A900000C0874400E0F344C3F5283E9A99193F0B
:100AA000CDCC4C3E0AD7A33C0080BB44BC74933BE6
:100AB0009A99993D0AD7233CA69B443B00004040AD
:100AC0001FB50022022113461A4804F054F81A4BAD
:100AD00000240522597B0392009401940294186922
:100AE0002246682302F06AFD4FF47A7001F070F834
:100AF000322262238DE80C001048114964224FF421
:100B0000C87306F0F9FA01280AD00A480621002223
:100B1000812304F030F84FF47A7001F059F8F4E7CB
:100B2000044802215022234604B0BDE8104004F0DE
:100B300022B800BF98A3FF1F749DFF1F3493FF1FAF
:100B40006487FF1F10B50446007800F0FBFF012802
:100B500003D101F01FF8606010BD01F01BF863685D
:100B6000C01A83B2A360024B01221A7010BD00BFED
:100B7000889DFF1F0148FFF7E5BF00BFA495FF1F39
:100B80000148FFF7DFBF00BF5895FF1F0148FFF77F
:100B9000D9BF00BF0C95FF1F0148FFF7D3BF00BFAF
:100BA000C094FF1F38B51D4C1D4994F8280004223D
:100BB00000F032FE94F874001A49042200F02CFE72
:100BC00094F8C0001849042200F026FE41F2941562
:100BD000042294F80C01154900F01EFE04F12800CF
:100BE000294603F009F9294604F1740003F004F9D9
:100BF000A0690AF0C1F905B2206A0AF0BDF92946D8
:100C000002B204F1C00003F0FEF804F5867044F26D
:100C10005061BDE8384003F0EFB800BF9894FF1F63
:100C2000990B00008D0B0000810B0000750B00007C
:100C300010B51A4B1A4C1B6888B004F128000193B8
:100C4000019B029301238DF81C30FF238DF81D308A
:100C500003F06DF9ADF80C0004F1740003F067F9CE
:100C6000ADF80E0004F1C00003F061F9ADF810001A
:100C700004F5867003F05BF90023ADF8120002A9B9
:100C80000848ADF81430ADF81630ADF81830ADF8AE
:100C90001A3003F0CBFF08B010BD00BFE09AFF1F71
:100CA0009894FF1F98A3FF1F10B5174B174C1B6894
:100CB00088B004F128000193019B029303F030F9FE
:100CC000ADF80C0004F1740003F02AF9ADF80E0041
:100CD00004F1C00003F024F9ADF8100004F58670AB
:100CE00003F01EF90023ADF8120002A90848ADF880
:100CF0001430ADF81630ADF81830ADF81A3003F0F6
:100D0000ABFF08B010BD00BFE09AFF1F9894FF1F13
:100D100098A3FF1F00B50D4B0D481A6989B008A9AB
:100D200004925A6903929A6902921A6C0692DA6BDB
:100D30005B6C05920793074B1B680093009B41F87F
:100D40001C3D03F05DFF09B000BD00BF3493FF1FE1
:100D500098A3FF1FE09AFF1F08B5064804F06AF841
:100D600038B1FFF7D7FFFFF763FFBDE80840FFF793
:100D70009BBF08BD98A3FF1F08B50849084803F0AA
:100D80002DFEFFF70FFFFFF79BFE064803F05AFB0F
:100D90000548BDE8084006F0BABE00BF20C4000008
:100DA00098A3FF1FF092FF1F8C94FF1F08B5064801
:100DB00006F028FC00F0EEFE02F0D2FF0348BDE88A
:100DC000084003F05FBF00BF3493FF1F98A3FF1FCD
:100DD0001FB50A46044652F8080F516801AB03C319
:100DE0001189927A19809A70A37B9A4216D1BDF923
:100DF00004100B4803F005F8BDF90610094803F08C
:100E000000F8BDF90810084802F0FBFF0748BDF9DB
:100E10000A1004B0BDE8104002F0F3BF04B010BDEA
:100E2000C094FF1F0C95FF1F5895FF1FA495FF1F2F
:100E300013B5044651F8080F8B880090ADF80430C4
:100E40009DF80420A37B9A4231D19DF80530502BA8
:100E500008D002D8402B23D104E0C02B12D0D02BD5
:100E60001ED10FE003222276A27E1248637602F0A2
:100E70007F020021A27603F0C7FA0F48022106F094
:100E80003DFE0EE004222276A27E0A48637662F0DE
:100E90007F020121A27603F0B7FA07480021EEE7AE
:100EA0006376204602B0BDE8104003F07FBE02B07A
:100EB00010BD00BFF092FF1F1C93FF1F2DE9F041F2
:100EC0002F4DDFF8D8802846FFF7E4FC404606F0B7
:100ED00041FD2C4B4FF4FA625A8505F128021A6045
:100EE00005F174025A6005F1C0029A6005F5867238
:100EF000DA6005221A7406225A74234A05F55471E1
:100F0000116005F56971516005F57E7100249160ED
:100F10004FF47A770126543105F59465D160156157
:100F2000936102251C751F859E74DC74A831174BD4
:100F3000516128463146C2F81C80D4651D705D7031
:100F40005F805C601C7200F009FE114B0B20314683
:100F500018705D705F805C601C7200F0FFFD0D4BCF
:100F60000C20314618705D705F805C601C7200F070
:100F7000F5FD02F021FF084B1870BDE8F08100BFBD
:100F80009894FF1FF092FF1F9092FF1F8C94FF1FF9
:100F90002893FF1F1C93FF1F8C92FF1F3493FF1F8A
:100FA000F8B5164B164D1A6842F080721A60154B50
:100FB0001A6842F001021A60134B2E681C680FE099
:100FC000237A63B121682F680B68204698472A6806
:100FD000E388D21B12099A42A28088BFE28064692A
:100FE000002CEDD1064B094A1B689B1B1B09138083
:100FF000074A11888B4288BF1380F8BDFCED00E0E2
:10100000041000E0001000E0E899FF1FEE99FF1FB8
:10101000EC99FF1F08B50368C9B21B68984708BD63
:1010200008B50368C9B21B68984708BD08B50368CE
:10103000C9B21B68984708BD08B50368C9B21B68E8
:10104000984708BD084608B500F0CEFE012008BD4F
:10105000084608B500F0C8FE012008BD38B50846AE
:101060000D4600F09FFB04462146284600F006FF8F
:10107000204638BD10B508461446114600F0FEFE65
:10108000204610BD00F062BF00F0ACBF00F052BFC0
:1010900000F07ABF00F090BF00F068BF084600F093
:1010A00089BE00F05BBE480800F1376000F5D8301B
:1010B000B0FBF1F000F0E2BD480800F1376010B578
:1010C00000F5D830B0FBF1F0144600F0D7FD204613
:1010D000BDE8104000F018BE7047FFFF044B00222F
:1010E0001A711A73034A4FF47A7199601A60704743
:1010F000F099FF1F98C5000008B50368C9B21B68C6
:10110000984708BD08B50368C9B21B68984708BD71
:1011100008B50368C9B21B68984708BD08B50368DD
:10112000C9B21B68984708BD084608B501F09AF88F
:10113000012008BD084608B501F094F8012008BD5B
:1011400038B508460D4600F02DFB044621462846DA
:1011500001F0D2F8204638BD10B5084614461146B5
:1011600001F0CAF8204610BD01F02EB901F078B99F
:1011700001F01EB901F046B901F05CB901F034B9D3
:10118000084601F055B801F027B8480800F137606B
:1011900000F5D830B0FBF1F000F0AEBF480800F128
:1011A000376010B500F5D830B0FBF1F0144600F010
:1011B000A3FF2046BDE8104000F0E4BF7047FFFFEA
:1011C000044B00221A711A73034A4FF47A71996022
:1011D0001A607047009AFF1FE8C5000008B5036851
:1011E000C9B21B68984708BD08B50368C9B21B6837
:1011F000984708BD08B50368C9B21B68984708BD81
:1012000008B50368C9B21B68984708BD084608B509
:1012100001F062FA012008BD084608B501F05CFA49
:10122000012008BD38B508460D4600F0BBFA04465B
:101230002146284601F09AFA204638BD10B50846E6
:101240001446114601F092FA204610BD01F0A6BAEC
:1012500001F0F0BA01F096BA01F0BEBA01F0D4BACA
:1012600001F0ACBA084601F01DBA01F0EFB9480828
:1012700000F1B76000F55840B0FBF1F001F07AB929
:10128000480800F1B76010B500F55840B0FBF1F028
:10129000144601F06FF92046BDE8104001F0ACB9EA
:1012A0007047FFFF044B00221A711A73034A4FF470
:1012B0007A7199601A607047109AFF1F38C6000053
:1012C0002DE9F041002407460D4626463B190A2227
:1012D00019792846002300F0B9F82B6880462E21A2
:1012E0001B682846984701344044032C0644EDD13E
:1012F0002846F9790A22002300F0A8F88019BDE8F1
:10130000F081FFFF044B054A1A6000221A715A71DE
:101310009A71DA71704700BF209AFF1F88C60000DB
:1013200008B5034B01221A60024B1B68984708BDA1
:101330000C710340309AFF1F08B5034B01221A605D
:10134000024B5B68984708BD1C710340309AFF1F31
:1013500008B5034B01221A60024B9B68984708BDF1
:101360002C710340309AFF1F08B5034B01221A600D
:10137000024BDB68984708BD3C710340309AFF1F61
:10138000054B01221A60054B1A6822F400021A600C
:10139000034B00221A707047007003403C800440E9
:1013A0002C9AFF1F037B0122591103F01F0302FA3D
:1013B00003F3084A42F82130826800231360417821
:1013C000054A5354D15C21B90133042BFAD1FFF7FC
:1013D000D7BF704780E100E0289AFF1F037810B55F
:1013E00004460BB1FFF7DEFF0023237010BD2DE98B
:1013F000F04100258AB0074688468C682E4611E0E9
:101400002B46404601A9212200F0F7F83B68202C2A
:1014100034BF224620225B68384601A9AD18A41AC1
:1014200098473618002CEBD130460AB0BDE8F08161
:1014300007B5054B1B88ADF80430036801A95B684C
:10144000022298470EBD00BF90C60000F0B50546C9
:101450008BB022B90368C9B21B6898472CE0012AF7
:1014600008BF0A2221B930228DF82520212413E05B
:101470002124B1FBF2F002FB1011C9B2092901D8F5
:10148000303100E037310AAF3E1906F8241C01461E
:1014900010B1013CE4B2ECE733B1013C0AAAE4B27A
:1014A00013192D2203F8242C2B6801AF5B68284602
:1014B0003919C4F1220298470BB0F0BD002902DAB5
:1014C00049422D2300E000230A22FFF7BFBF10B5D9
:1014D0000446FFF783FF204610BDFFFF044805497F
:1014E000054A002303708023437309F08BBD00BFBE
:1014F000409AFF1FCF1400006087FF1F10B5029CA9
:10150000401AE41A4443521A94FBF2F0C01810BD7A
:1015100010B50446006809F0BFFD204610BD38B57F
:1015200004460D46006801310AF046FA10B184E81D
:101530002100012038BD43688B4210B5044600D31A
:1015400006E0FFF7ECFF20B1A3680BB92268137027
:10155000012010BDF8B504460F46154622B90368B0
:1015600003B11A7000230BE01146FFF7E4FF0646B3
:1015700040B9206810B109F08FFD26600023636038
:10158000A36004E0A560206839460AF02DFD2046DE
:10159000F8BD38B5002304460360436083600373DD
:1015A0000D4639B1084600F0FDF8294602462046AE
:1015B000FFF7D0FF204638BD70B504460E4685685B
:1015C0005AB155192946FFF7B6FF30B12068A36814
:1015D0003146C0180AF008FDA560204670BD38B538
:1015E00005460C4639B1084600F0DCF821460246B3
:1015F0002846FFF7E1FF284638BD38B50C469AB1BA
:1016000091B181688B4202D30023237038BDCD1A7B
:10161000013A0168954228BF1546C91820462A4656
:101620000AF040FD0023635538BDFFFF224B6022C6
:101630001A70E1225A70214B214A1978214B08294E
:1016400001D1012102E00A2907D1392111601322B9
:101650001A601D4B19605A600BE00C291A4901D120
:10166000352000E03D20106012221A60174B086000
:101670001A60174B17491B78174A03B101230B60F7
:101680001360164B164A1978164B012901D8802190
:101690000CE0042901D8842108E0082901D885211B
:1016A00004E0102901D8862100E08721116019602B
:1016B0000D4B01221A70704700400740FC87FF1F46
:1016C00008B003400CB0034008B00B400CB00B4016
:1016D000559AFF1F20B0034020B00B40FD87FF1F2D
:1016E00024B0034024B00B40549AFF1F08B5FFF705
:1016F00043FBFFF75BFB01F0DFFEFAE7024B1A68E2
:1017000001321A60704700BFE09AFF1F38B50B4CDA
:1017100025462368580301D501F0F2F92B685905D5
:1017200001D500F07BFC2B681A0501D500F0B4FE52
:101730002368DB04EDD501F087F8EAE73480044044
:1017400008B5FFF7E3FFFFFF014B10221A80704737
:10175000002005407047FFFF024A13681818106008
:10176000184670470088FF1FEFF313839BB9EFF310
:10177000108098B9EFF3058323B10F2B04D9084AE1
:10178000985C01E04FF48070EFF311833BB1984215
:1017900028BF184670474FF0FF3070471846704713
:1017A000F0E300E0002300E00133C25C002AFBD13B
:1017B0001846704710B50023B0FBF2F402FB14008A
:1017C000092801D8303000E03730C85420460CB129
:1017D0000133F1E7CA185470224605E0885CCC5CFE
:1017E0008C54C8540132013B9A42F7DB084610BDC5
:1017F000084B4FF400021A604FF080721A604FF0ED
:1018000000721A604FF080621A604FF000621A6036
:10181000704700BF08E100E0212830B521D8042A34
:101820001FD8DFE802F00709050B03000B2306E0D1
:101830000A2304E0082302E00C2300E00923094AFC
:1018400002EBC002526872B61468074D24F470248B
:10185000146044F0807444EA034345F82010136098
:1018600062B630BD94C60000589AFF1F094B03EBC7
:10187000C0035B6872B61A6822F0877222F4803265
:1018800042F080721A60044B002243F8202062B6B6
:10189000704700BF94C60000589AFF1F114B10B547
:1018A0001C68E0041C6004D50F4BDA680AB1DB68E1
:1018B0009847A10404D50C4B1A690AB11B699847D3
:1018C000A20604D5084B1A6E0AB11B6E9847E306B0
:1018D00006D5054BD3F8842012B1D3F8843098474D
:1018E00010BD00BFA0900440589AFF1F1F4B10B5B9
:1018F0001C68E0031C6004D51D4B1A680AB11B6804
:101900009847A10304D51A4B5A680AB15B689847F7
:10191000E20704D5164B1A6C0AB11B6C9847A30753
:1019200004D5134B5A6C0AB15B6C9847200704D559
:101930000F4B9A6C0AB19B6C9847610704D50C4B0E
:10194000DA6C0AB1DB6C9847220304D5084B5A6E57
:101950000AB15B6E9847630306D5054BD3F8802028
:1019600012B1D3F88030984710BD00BFA0A004404A
:10197000589AFF1F2C4B10B51C6820071C6004D51B
:101980002A4B5A6A0AB15B6A9847E10604D5274B8D
:101990009A6A0AB19B6A9847620604D5234BDA6AB1
:1019A0000AB1DB6A9847230604D5204B1A6B0AB1AB
:1019B0001B6B9847A00604D51C4B5A6B0AB15B6B96
:1019C0009847E10704D5194BDA6B0AB1DB6B9847EE
:1019D000A20704D5154B9A6D0AB19B6D9847630712
:1019E00004D5124BDA6D0AB1DB6D9847A00504D51A
:1019F0000E4BDA6E0AB1DB6E9847E10504D50B4B4E
:101A00001A6F0AB11B6F9847620504D5074B5A6FCE
:101A10000AB15B6F9847230504D5044B9A6F0AB14E
:101A20009B6F984710BD00BFA0B00440589AFF1F9D
:101A30001E4B10B51C68E0071C6004D51C4B9A684F
:101A40000AB19B689847210604D5194B5A690AB117
:101A50005B699847E20604D5154B9A690AB19B6900
:101A60009847630704D5124BDA690AB1DB699847D6
:101A7000200704D50E4B1A6A0AB11B6A9847A107C2
:101A800004D50B4B9A6B0AB19B6B9847A20604D501
:101A9000074B1A6D0AB11B6D9847630604D5044BBA
:101AA0005A6D0AB15B6D984710BD00BFA0C00440DD
:101AB000589AFF1F094B10B51C68A2071C6004D57B
:101AC000074B9A6E0AB19B6E9847E30704D5044B07
:101AD000DA6F0AB1DB6F984710BD00BFA0D0044099
:101AE000589AFF1F044B054900221A600A60044AF5
:101AF000106010221A60704714D0034004D00340D5
:101B000000D00340212810B518D80D4A52F83030C3
:101B100093F880423CB1012211B183F8802010BDBE
:101B200083F8002110BD02EBC00043681A6811B1B0
:101B300042F0030201E022F002021A6010BD00BF71
:101B400094C60000212805D8034B53F8303093F891
:101B5000000270470020704794C60000212816D864
:101B60000B4A02EBC00301295B6852F8302004D114
:101B700082F880124FF4A27208E0002082F88002FE
:101B800011B94FF4807201E040F203121A607047FD
:101B900094C6000072B60B4B0B491A680B4B1B68BE
:101BA000096862B6490102D5322A88BF0133C2F5FD
:101BB000BB32FF326021B2FBF1F24FF47A7000FBCE
:101BC0000320704718E000E004ED00E0E09AFF1FFA
:101BD00070B50446FFF7DEFF05466CB140F2E7360C
:101BE000FFF7D8FF401BB04203D9013C04D005F5F4
:101BF0007A7501F061FCF3E770BDFFFF10B5FFF7E8
:101C0000F7FD164B164A174C00204BF6FF71186073
:101C10005960282313609360136193611362936288
:101C200013639363092222600F4C20606160A360FC
:101C3000236144F8042C0D4C20600D4801600D49CF
:101C40000B608B600C4B1A60FFF7F0FC0420FFF771
:101C5000BFFFBDE8104001F06FBA00BF0480034031
:101C60000C800340008003400490034004800B403C
:101C700008800B400C800B4000800B40194B1A6809
:101C800042F480621A60184A00231370174A1370D6
:101C9000174A1370174A1370174A1370174B40F204
:101CA00013321A604FF451725A60154BC0F344322C
:101CB0001A70C0F347125A700221042200F01F006C
:101CC00098729A70D9745A7588221A743C22DA7004
:101CD0000C4B40226FF44A711A705B184FF400529B
:101CE0001A60704734800440669BFF1FE59AFF1F0F
:101CF0006C9BFF1F679BFF1FE49AFF1F40A00440DF
:101D000000A006402DE400E0134A937800F00301A0
:101D100003F0EC030B43410748BF43F010039370FB
:101D200000F00F03042B0C4903D18B7943F04003DF
:101D30008B715379C20603F0EF03074A48BF43F0A3
:101D4000100353719379800603F0EF0348BF43F00B
:101D500010039371704700BF00A006400E4B1B6834
:101D6000580510B503D410BD01F0A6FB00E00B4CE4
:101D70002378002BF8D10A4A4FF400511160094A28
:101D80000949D37040F203120A604A60074A13708F
:101D9000074A137010BD00BF34800440E49AFF1F4F
:101DA00084E100E000A0064040A00440669BFF1FC5
:101DB000E59AFF1F38B5094B04461D78002DFCD16C
:101DC00020460121FFF7CAFE20462946FFF79AFE6A
:101DD000034B53F83420034B1A6038BDE49AFF1FBD
:101DE00094C60000689BFF1F1D4B1B685A052DE918
:101DF000F041074631D51B4B1B680BB101221A700D
:101E0000194B1A4D1C781A4EDFF8688001343F2CAC
:101E100088BF002414E0FFF7A7FC40280CDC3379CE
:101E20001B060DD52B7801333F2B88BF002318F8F4
:101E30000320F2712B7003E0FF2801DD01F03CFB71
:101E40002B78A342E7D00B4B1F550B4B01221A7086
:101E5000054B1C70064BBC22DA70BDE8F08100BF58
:101E600034800440689BFF1F6C9BFF1F679BFF1F14
:101E700000A00640E69AFF1FE49AFF1F2DE9F84FE5
:101E8000254B1B6806465805894642D5234B1B68DF
:101E90000BB101221A70224DB346AA4632E0214B03
:101EA0001C782F7801343F2C88BF0024A74209D02A
:101EB0001BF8012B1C4B1A551C4B01221A70194B95
:101EC0001C701FE01A4BBC22DA709846FFF74CFCDE
:101ED00040280FDC98F8043019060FD52B78124AE9
:101EE00001333F2B88BF0023D25C88F807208AF893
:101EF000003003E0FF2801DD01F0DEFA2B78BB4261
:101F0000E4D0D5E706EB09039B45C8D3084BBC22B8
:101F1000DA70BDE8F88F00BF34800440689BFF1F73
:101F2000679BFF1F6C9BFF1FE69AFF1FE49AFF1F32
:101F300000A0064010B5044C01E001F0BDFA237882
:101F4000002BFAD110BD00BFE49AFF1F054B064AD3
:101F50001B781078834201D33F3000E00138C01A6B
:101F6000704700BF6C9BFF1F679BFF1F044B1878D7
:101F7000044B1B78984238BF4030C01A704700BFEE
:101F8000669BFF1FE59AFF1F084B094A19781378D3
:101F9000994207D001333F2B88BF00230549C85C15
:101FA000137070474FF0FF30704700BF669BFF1FF4
:101FB000E59AFF1F269BFF1F074B1A78074B1B78DC
:101FC0009A4206D001333F2B88BF0023044AD05CDD
:101FD00070474FF0FF307047669BFF1FE59AFF1F69
:101FE000269BFF1F094B1B685B050ED5084BDA7853
:101FF00002F0CB02DA7040225A74DA7842F03402EE
:10200000DA70044B1A78044B1A707047348004401D
:1020100000A00640E59AFF1F669BFF1F70B52D4B81
:102020001A7912F0300F1DD072B6997D21B9DA7984
:1020300040225A7462B615E062B6274A27481278E1
:10204000274D00781C46531C3F2B88BF0023E679A0
:1020500083421CBFEE541A46013911F0FF01F2D140
:102060001D4B1A701B4AD37819465BB2002B1BDA42
:102070001379180618D51B4B1B4C1D781B4B1B786E
:10208000AB4209D001333F2B88BF00231079E05CBD
:10209000D071107D0728F3D9144A13700D4B1A79AB
:1020A000120601D57C22DA7001F04003DBB27BB16D
:1020B000084B1A7902F04002D2B2194642B10C4BD9
:1020C00000221A700B4B1B6803B11A703C23CB70B3
:1020D00070BD00BF00A00640669BFF1FE59AFF1F72
:1020E000269BFF1F6C9BFF1FE69AFF1F679BFF1F2E
:1020F000E49AFF1F689BFF1F184B1A6842F40062A6
:102100001A60174A00231370164A1370164A137088
:10211000164A1370164A1370164B40F213321A60A7
:102120004FF451725A60144BC0F344321A70C0F32A
:1021300047125A7000F01F000422022198729A7010
:10214000D9745A7588221A743C22DA700B4B4022DB
:102150001A700B4B4FF400421A60704734800440F1
:10216000D79BFF1F6E9BFF1FE09BFF1FD89BFF1F8E
:102170006D9BFF1F0CB0044000B006402FE400E050
:1021800004E100E0134A937800F0030103F0EC034C
:102190000B43410748BF43F01003937000F00F0357
:1021A000042B0C4903D18B7943F040038B71537995
:1021B000C20603F0EF03074A48BF43F01003537110
:1021C0009379810603F0EF0348BF43F01003937146
:1021D000704700BF00B006400E4B1B68180510B5D5
:1021E00003D410BD01F068F900E00B4C2378002BFC
:1021F000F8D10A4A4FF400411160094A0949D370E5
:1022000040F203120A604A60074A1370074A1370CB
:1022100010BD00BF348004406D9BFF1F84E100E0CF
:1022200000B006400CB00440D79BFF1F6E9BFF1F01
:1022300038B5094B04461D78002DFCD120460121FC
:10224000FFF78CFC20462946FFF75CFC034B53F854
:102250003420034B1A6038BD6D9BFF1F94C60000ED
:10226000DC9BFF1F1D4B1B681A052DE9F04107463B
:1022700031D51B4B1B680BB101221A70194B1A4D3B
:102280001C781A4EDFF868800134272C88BF0024A0
:1022900014E0FFF769FA40280CDC33791B060DD5F2
:1022A0002B780133272B88BF002318F80320F27105
:1022B0002B7003E0FF2801DD01F0FEF82B78A3422C
:1022C000E7D00B4B1F550B4B01221A70054B1C70AE
:1022D000064BBC22DA70BDE8F08100BF34800440B8
:1022E000DC9BFF1FE09BFF1FD89BFF1F00B0064039
:1022F0006F9BFF1F6D9BFF1F2DE9F84F254B1B6840
:1023000006461805894642D5234B1B680BB10122AE
:102310001A70224DB346AA4632E0214B1C782F7822
:102320000134272C88BF0024A74209D01BF8012BB9
:102330001C4B1A551C4B01221A70194B1C701FE0C4
:102340001A4BBC22DA709846FFF70EFA40280FDCD1
:1023500098F8043019060FD52B78124A0133272B31
:1023600088BF0023D25C88F807208AF8003003E099
:10237000FF2801DD01F0A0F82B78BB42E4D0D5E7BF
:1023800006EB09039B45C8D3084BBC22DA70BDE8B5
:10239000F88F00BF34800440DC9BFF1FD89BFF1FD9
:1023A000E09BFF1F6F9BFF1F6D9BFF1F00B0064050
:1023B00010B5044C01E001F07FF82378002BFAD12E
:1023C00010BD00BF6D9BFF1F054B064A1B781078A0
:1023D000834201D3273000E00138C01A704700BFA4
:1023E000E09BFF1FD89BFF1F044B1878044B1B7802
:1023F000984238BF4030C01A704700BFD79BFF1FBC
:102400006E9BFF1F084B094A19781378994207D031
:1024100001333F2B88BF00230549C85C1370704708
:102420004FF0FF30704700BFD79BFF1F6E9BFF1F11
:10243000979BFF1F074B1A78074B1B789A4206D0D1
:1024400001333F2B88BF0023044AD05C70474FF014
:10245000FF307047D79BFF1F6E9BFF1F979BFF1F8F
:10246000094B1B681B050ED5084BDA7802F0CB022E
:10247000DA7040225A74DA7842F03402DA70044B8F
:102480001A78044B1A7070473480044000B006403C
:102490006E9BFF1FD79BFF1F70B52D4B1A7912F053
:1024A000300F1DD072B6997D21B9DA7940225A7465
:1024B00062B615E062B6274A27481278274D0078A1
:1024C0001C46531C3F2B88BF0023E67983421CBF68
:1024D000EE541A46013911F0FF01F2D11D4B1A706A
:1024E0001B4AD37819465BB2002B1BDA1379180606
:1024F00018D51B4B1B4C1D781B4B1B78AB4209D0CE
:102500000133272B88BF00231079E05CD071107D48
:102510000728F3D9144A13700D4B1A79120601D506
:102520007C22DA7001F04003DBB27BB1084B1A79F0
:1025300002F04002D2B2194642B10C4B00221A708E
:102540000B4B1B6803B11A703C23CB7070BD00BFEE
:1025500000B00640D79BFF1F6E9BFF1F979BFF1F7E
:10256000E09BFF1F6F9BFF1FD89BFF1F6D9BFF1FF3
:10257000DC9BFF1F174B1A6842F480521A60164A00
:1025800000231370154A1370154A1370154A1370FF
:10259000154A1370154A40F2133111604FF451710E
:1025A0005160134AC0F344311170C0F3471100F079
:1025B0001F0051709072937013742C23D3700D4BC5
:1025C00040226FF44B711A705B184FF400321A609E
:1025D000704700BF348004404B9CFF1FE29BFF1FED
:1025E000549CFF1F4C9CFF1FE19BFF1F08C0044031
:1025F00000C0064031E400E0134A937800F0030184
:1026000003F0EC030B43410748BF43F01003937002
:1026100000F00F03042B0C4903D18B7943F04003E6
:102620008B715379C20603F0EF03074A48BF43F0AA
:10263000100353719379800603F0EF0348BF43F012
:1026400010039371704700BF00C006400E4B1B681B
:10265000D80410B503D410BD00F02EFF00E00B4CE1
:102660002378002BF8D10A4A4FF400311160094A4F
:102670000949D37040F203120A604A60074A137096
:10268000074A137010BD00BF34800440E19BFF1F58
:1026900084E100E000C0064008C004404B9CFF1FDE
:1026A000E29BFF1F38B5094B04461D78002DFCD175
:1026B00020460121FFF752FA20462946FFF722FA69
:1026C000034B53F83420034B1A6038BDE19BFF1FC6
:1026D00094C60000509CFF1F1D4B1B68DA042DE9B7
:1026E000F041074631D51B4B1B680BB101221A7014
:1026F000194B1A4D1C781A4EDFF868800134272CCC
:1027000088BF002414E0FFF72FF840280CDC337951
:102710001B060DD52B780133272B88BF002318F813
:102720000320F2712B7003E0FF2801DD00F0C4FEEE
:102730002B78A342E7D00B4B1F550B4B01221A708D
:10274000054B1C70064BAC22DA70BDE8F08100BF6F
:1027500034800440509CFF1F549CFF1F4C9CFF1F63
:1027600000C00640E39BFF1FE19BFF1F38B54518E3
:10277000044603E014F8010BFFF7AEFFAC42F9D1B9
:1027800038BDFFFF10B5044C01E000F095FE237842
:10279000002BFAD110BD00BFE19BFF1F054B064A7D
:1027A0001B781078834201D3273000E00138C01A2B
:1027B000704700BF549CFF1F4C9CFF1F044B1878B0
:1027C000044B1B78984238BF4030C01A704700BF96
:1027D0004B9CFF1FE29BFF1F084B094A1978137897
:1027E000994207D001333F2B88BF00230549C85CBD
:1027F000137070474FF0FF30704700BF4B9CFF1FB6
:10280000E29BFF1F0B9CFF1F074B1A78074B1B789F
:102810009A4206D001333F2B88BF0023044AD05C84
:1028200070474FF0FF3070474B9CFF1FE29BFF1F2C
:102830000B9CFF1F024B1A78024B1A70704700BFA7
:10284000E29BFF1F4B9CFF1F10B5214B1A7902F032
:102850002002D2B26AB11F4AD8791F491378097889
:1028600001333F2B88BF00238B4202D01B49C85441
:102870001370174AD37818465BB2002B13DA13791A
:10288000190610D5164B17491C780B789C4202D1BB
:102890006C23D37007E00133272B88BF0023124C31
:1028A000E45CD4710B7000F04003DBB27BB1084BE9
:1028B0001A7902F04002D2B2194642B10B4B002203
:1028C0001A700B4B1B6803B11A702C23CB7010BD10
:1028D00000C006404B9CFF1FE29BFF1F0B9CFF1F8D
:1028E000549CFF1F4C9CFF1FE39BFF1FE19BFF1F9E
:1028F000509CFF1F1FB572B6154B70221A70154AF7
:10290000412111700F2102F8011C80221A701A78DF
:102910001206FCD5104B186862B6104B984201D8CD
:102920000A23584301A90A22FEF744FF0C4800235A
:1029300001AA9A5C2AB100EB430101330A2B4A80B9
:10294000F6D10133064A5B00137005B000BD00BF2D
:102950000000024007000240080002407F969800F5
:102960008C88FF1FF0B50C4B0C4C1A7842F0020516
:1029700004EBC50682F00102706009481A700678FF
:10298000002E0CBF8827C82747EA014186F00106C0
:1029900044F835100670F0BDC09CFF1F0080FF1F7B
:1029A000389DFF1F431E032B10B510D872B6094A7D
:1029B00052F8230048B1416842F82310064A0188C2
:1029C00032F81340611A22F8131062B610BD0020CD
:1029D00010BD00BFB09CFF1FE8A3FF1F01380328F4
:1029E0000BD872B6064B53F82030002001E05B682C
:1029F0000130002BFBD162B670470020704700BF4A
:102A0000049DFF1F70B572B6184E194C01239A1918
:102A100012F8012C02F00802D2B2E2B19900144A75
:102A200054F831502DB902EB431308305860114B64
:102A300009E041F0010154F8315065B902EBC103DE
:102A4000083058600C4B42F831300C4B1A78013A80
:102A50001A7062B670BD0133052BD8D162B6074B30
:102A600000221A70BDE8704000F0F0BBA4C700005F
:102A70000080FF1F88004000C80040002E9DFF1FFF
:102A8000431E032B30B532D84001194A40F01000E4
:102A9000101872B6174CE25C032A09D8DFE802F07E
:102AA000160218050830022213E00830042210E054
:102AB0001148124A50F8234014B940F8231002E09C
:102AC00052F82300416042F823100FE0032200E097
:102AD0000522E25410F0080F01F108030A88436050
:102AE0000CBF8823C82343EA0243036062B630BDAB
:102AF0000080FF1F6C9CFF1F049DFF1F149DFF1F84
:102B00002DE9F74FA54EA64C357805F00403DBB24E
:102B1000ABB1A44B1B7883B1A34A137823B1013B1B
:102B2000DBB2137003B900BEA04A13782BB1013B8E
:102B3000DBB213700BB900F09DFC0423337005F079
:102B40000802D2B2002A00F08082994B1B781D093E
:102B50004FEA930940F0FE8104EBC903586854F82A
:102B60003930C3F38303013B0C2B00F2F081DFE823
:102B700013F0A901A901EE01EE01EE01EE01EE0153
:102B8000EE01C501EE01EE01EE010D004368894939
:102B900002684B60884B894844F83930884D0A6098
:102BA000002303600120287092B240F28165AA429E
:102BB0002361A36117D8B2F5D06F80F02C81B2F5F4
:102BC000817F00F0DC8006D8802A00F0C280822A53
:102BD00040F03D81C1E040F202339A4200F00C81A6
:102BE000B2F5A06F16E042F22105AA4200F067811B
:102BF00008D8B2F5086F00F0A680B2F5106F40F06B
:102C000026810AE042F22120824200F01C8142F239
:102C100021339A4240F01B811DE18A78614B604D5F
:102C20001A702B6A180603D5686A083800F00EFB84
:102C3000644A08359542F4D1DFF8B091DFF8B0B1BD
:102C40000025A846CA4655F8090005E043680093E8
:102C500000F0FCFA009B18460028F7D15A4B4AF8BE
:102C6000050045F80B00E85807E042680093019220
:102C700000F0ECFA019A009B10460028F5D158515B
:102C8000524BE850524B23F81800524B18F80320CF
:102C9000023A032A08D8DFE802F002040204002204
:102CA00000E0012203F8082008F101080435B8F11A
:102CB000040FC8D1484BDFF83C9100221A7001255F
:102CC0009846464B05EB0902EB1812F8012C9B00C5
:102CD0001A7002F00802D2B23AB300F099FAAB00CF
:102CE00038B104EB4512083050603D4A44F83320B7
:102CF00006E044F8330098F80030013388F80030DB
:102D000000F086FAAB0043F0010338B104EBC302D4
:102D100008305060284A44F8332006E044F8330075
:102D200098F80030013388F80030AA0042F0020120
:102D3000013542F003020023052D44F8313044F8F8
:102D40003230BED188E0174B264D1B782B700346DE
:102D500085E0244D2B706B7080E08A88042A00D9AE
:102D600075E0204D2B706B701F4B9200D3181B78B1
:102D700003F00203DBB2002B70D028706EE08A886B
:102D800002F07F03042B62DC4B8803B15FE091000B
:102D9000154A8A18117821F0020156E08020074078
:102DA0000080FF1F379DFF1FC19CFF1F4C9DFF1F11
:102DB00090200740249DFF1FC8004000589CFF1F23
:102DC000389DFF1F8080FF1F049DFF1F149DFF1F64
:102DD000E8A3FF1F6C9CFF1F2E9DFF1F30C8011032
:102DE000880040002F9DFF1FC0200740B09CFF1FA0
:102DF0005C9CFF1FA4C700008A8802F07F03042B9D
:102E000025DC4B8803B122E09100A14A8A18117891
:102E100041F0020119E04A889E4B898853F8085C0A
:102E2000A3F10C009DB133F80CCC944509D133F8D3
:102E30000ACC8C4505D1120A032A0CBF2B780389D2
:102E40000DE00C33EAE78978934A117004E0904B67
:102E50000F221A7033E000231D4600E002238F4A40
:102E6000B2F806904B4538BF9946B9F1400F34BFD0
:102E7000C8464FF0400828464146FFF773FDB9EBBE
:102E80000809454403D1B8F1400F07D017E0B9F164
:102E9000400F34BFC8464FF0400800E0C8462846FF
:102EA0004146FFF75FFDB9EB0809454402D1B8F18F
:102EB000400F04D17A4B7B4A1D60A2F8009001229A
:102EC000794B43E0754B1A8842F221039A4211D1A3
:102ED000764A0023C15C99540133072BFAD1734B16
:102EE0001B68862B02D1724B0F221A7000200146FC
:102EF000FFF738FD6F4B44F8393028E0684BD3F8C2
:102F00000080B8F1000F18D0DFF89891B9F800A050
:102F1000BAF1400F34BF5546402540462946FFF7D9
:102F200021FDC5EB0A039BB2A9F800300BB9402D77
:102F300001D108EB05035A4A1360584B1A88B2F5C1
:102F4000A06F04D100225A709A785B4B1A7001224C
:102F5000554B6DE004EBC90803F00803D8F80420D2
:102F6000013DD9B2A2F10800EDB2002937D000F03E
:102F70006DF95248524B50F82510F1B14A6840F8AB
:102F8000252001F10802C8F804205A5D032A0BD855
:102F9000DFE802F002040608032204E0022202E055
:102FA000052200E004225A5518F0080F0A880CBFC9
:102FB0008823C82343EA024342E05A5D032A07D824
:102FC000DFE802F040400204002206E0012204E0B3
:102FD00018F0080F0CBF022203225A5532E054F8B1
:102FE00039301B0C22F8083C23B322F8061C42F8A7
:102FF000041C344A344952F8257017B942F82500A8
:1030000002E051F825205060304A41F8250032F89E
:1030100015105B1822F8153000F0FAF818B10830D6
:10302000C8F8040006E02A4B44F839001A78013247
:103030001A7007E01F4B274A18F0080F08BF134605
:1030400044F83930082333705EE5E90752D5164954
:103050002048214C02230B70204B1A70204B186023
:10306000986020481A61D8609A615C60084B0D2016
:1030700018701D48FF23037000F8083C02741B4AB7
:1030800013701B4B9F221A7001230B704BE000BF83
:10309000C0200740B4C700005C9DFF1F249DFF1F98
:1030A000589CFF1F2C9DFF1F94200740F0A3FF1F7B
:1030B000C19CFF1FC800400098200740049DFF1FCF
:1030C0006C9CFF1FB09CFF1F5C9CFF1FE8A3FF1FB1
:1030D0002E9DFF1F88004000709CFF1FC09CFF1F9B
:1030E0000080FF1FC49CFF1F882007408C200740E2
:1030F000842007402B0605D50C4B0D221A70802228
:1031000003F8402C05F00203DBB22BB1084B1A7810
:103110001A70022203F8082C05F01005EDB215B163
:10312000044B10221A70BDE8FE8F00BFC02007407C
:10313000882007408020074008B5FFF7DBFB00230D
:103140001E491A465A50C8180833882B4260F9D1D4
:103150001B4B1A6842F480221A601A4B80221A70A4
:103160001978184A0906FBD4144B1749C3F30720F2
:103170000870C3F307401B0E08750B76FF2301F898
:103180001C3C01F8143C01F88C3C137843F04003DC
:1031900013700021012302F8783C02F80C1C02F89D
:1031A000883C0A4B70226FF4507C1A7063444FF4D1
:1031B00000721A60064B10221A7008BD0080FF1FB3
:1031C000348004400C2107409C20074049E400E083
:1031D000082107400846114600F0AEB8084600F046
:1031E00013B900F01BB900F07BB800F051B800F043
:1031F00095B87047044B00221A711A73034A4FF4B2
:103200007A7199601A6070473C9DFF1F08C80000E2
:1032100072B60C4A1168B1FA81F30B2B02D962B66F
:10322000002070474FF0004020FA03F021EA00012F
:10323000116062B6044948225343C8180022CA509C
:1032400042607047A488FF1F0084FF1F0C4B482278
:10325000C31AB3FBF2F30B2B11D80A4A127822B12E
:10326000094A12780AB1FFF7CDBB72B6074A4FF090
:10327000004121FA03F311681943116062B67047E7
:103280000084FF1F2E9DFF1F379DFF1FA488FF1F77
:1032900038B5114C23684BB10F4D2868428881180E
:1032A00001320C7A01888A4212D30CE00B4B1B7856
:1032B00013B94FF0FF340CE00320FFF773FB2060DD
:1032C0000028E9D1F5E7FFF7C1FF00232B6000E0FC
:1032D0004280204638BD00BF589DFF1F379DFF1F0D
:1032E00010B50C4C23681BB10A4B1B686BB902E08C
:1032F000094B1B7813B94FF0FF3010BD0320FFF7C7
:1033000051FB20600028EFD1F5E75A889B18187A06
:1033100010BD00BF589DFF1F379DFF1F044B9888AD
:10332000044B1B681BB11A885B88D31AC0187047FE
:10333000E8A3FF1F589DFF1F2DE9F8432D4B2E4D8D
:10334000DFF8C08001220C461A7006464BE02B685D
:103350002BBBDFF8A0904AF2F92798F8003013B998
:10336000244A137014E00420FFF738FB072808D81C
:10337000012389F80030FFF74BFF286078B989F8FE
:103380000000013F1D4B01D01A782AB101221A70AA
:103390004FF0FF30BDE8F88300F08EF8DDE72968D4
:1033A000164A488800231370C0F14002944238BF87
:1033B000224600F108078018CF194880A41A02E0BD
:1033C000F05CF85401339342FAD1F6184B883F2B46
:1033D00006D940230B800420FFF752FB00232B600B
:1033E000074B05221A70002CB1D1024B20461C70ED
:1033F000BDE8F8834D9DFF1F509DFF1F549DFF1F8B
:103400004C9DFF1F379DFF1F07B502AB012103F83D
:10341000010D1846FFF790FF0EBDFFFFF8B5114BE9
:103420001B78EBB1104E114B3468114D01271F7002
:103430004CB1638800272F70042023802146FFF7BA
:103440001FFB376009E0FFF7E3FE014620B10420CF
:103450002C70FFF715FB00E02F70044B00221A7050
:10346000F8BD00BF379DFF1F509DFF1F4D9DFF1FE3
:103470004C9DFF1F38B50D4B1D78ADB90C4C216824
:1034800031B14B8804200B80FFF7FAFA256038BD74
:10349000FFF7BEFE014620B10420BDE83840FFF72B
:1034A000EFBA044B01221A7038BD00BF4D9DFF1FBB
:1034B000509DFF1F4C9DFF1F08B50E4B1A78C2B9D7
:1034C00001221A70FFF72AFF08B1FFF792FEFEF7FC
:1034D0004DFD08B1FDF700FEFEF786FF08B1FDF7D0
:1034E0006DFEFFF76BF908B1FDF7DAFE014B002224
:1034F0001A7008BD5D9DFF1F0369D3F83801D3F82A
:103500003431C01A70477047014B0360704700BFE9
:1035100028C800000369D3F84422B2F5817F09D896
:10352000D3F844229818013280F83C11C3F84422A1
:10353000012070470123037100207047036930B5F3
:10354000D3F84442B4F5817F1CD8D3F84442D3F871
:103550004452C4F5817401345B19A24203F59E758F
:1035600002D9012303712246002302E0CC5CEC5413
:1035700001339342FAD10369D3F844125118C3F8C6
:10358000441202E0012303710022104630BDFFFF08
:10359000002202710273074A417310B502604FF4B2
:1035A0007A74054A84604FF4187404FB01210161A8
:1035B00010BD00BF28C80000A888FF1FF0B59DF807
:1035C00014409DF818509DF8206029B94C4FD7F849
:1035D00000C04CF0400C06E0012906D1484FD7F856
:1035E00000C04CF0800CC7F800C0002780F84B7278
:1035F00080F84822476932B920233B7003681A706B
:10360000C3691A7014E0002C0CBF202228223A70E3
:10361000076801D0A34201D25A0000E062003A706C
:10362000C26924B1A34201D2640000E05C001470BE
:103630009DF81C3040F20362002B40F2646440F2BB
:10364000032308BF4FF4197308BF224671B9012D37
:1036500005D12C4A80F849521360536018E02A4A79
:1036600080F84912136042F8043C11E001290FD19F
:10367000032D06D1254B80F849521A6043F8042CDB
:1036800006E0022280F84922214A136004321360C6
:1036900043680A2E1BD8DFE806F01A06080A0C0E4B
:1036A0001012141618001F2212E01D2210E08522AD
:1036B0000EE014220CE045220AE00D2208E00B2265
:1036C00006E0092204E0022202E0002200E02722B4
:1036D0001A70836904221A7090F8482283680AB924
:1036E000802200E0C0221A7011B94FF0807203E00E
:1036F000012903D14FF00072064B1A60F0BD00BFE4
:103700003480044000A004400CA0044004D00440D5
:1037100028B0044000E100E00369490083F83C114F
:1037200003690122C3F844220022027183F84B226C
:103730007047D0F8443210B53BB3C36812221A70F8
:1037400083681A7802F02002D2B20AB1B42209E0EA
:10375000C468227802F02002D2B2002AF9D180F89F
:103760004822B0221A70012380F84B320023C0F89F
:103770004032836880F84A12F0221A70D0F8402252
:103780000369801890F83C211A7010BD30B54AB317
:10379000C0F850220022C0F83421C0F83821C26895
:1037A000122414708268147804F02004E4B20CB17E
:1037B000B42409E0C5682C7804F02004E4B2002C9D
:1037C000F9D180F84842B024147080F84A320222BD
:1037D000836880F84B22F0221A704900036941F097
:1037E0000101197030BD036993F84B32043B032B80
:1037F00007D8DFE803F004020B040220704704201E
:1038000070470079003018BF0120704703207047CF
:1038100090F84B326BB190F84B32052B09D090F8F1
:103820004B32062B05D090F84B02C31F584258412B
:1038300070470120704770B504460D46FEF7AAF99F
:1038400006462046FFF7E4FFD0B9002DF9D0FEF779
:10385000A1F9801BA842F4D312E094F84B32022B5A
:1038600012D094F84B32032B0ED04FF4A073013BCF
:10387000FDD194F84B02D0F1010038BF002070BD9B
:1038800094F84B32012BE8D1042384F84B32ECE757
:1038900010B504460AB9002010BDFFF777FF204697
:1038A0000299FFF7C8FF0028F5D0D4F8380110BD01
:1038B00038B5044615460069FFF73BFF20692946E5
:1038C000FFF7B9FF2046BDE83840FFF78CBFD0F8BE
:1038D0003411D0F838219142034608D2D0F834216F
:1038E0008118013291F83000C3F8342170474FF04D
:1038F000FF3070470069FFF7EABFD0F83421D0F8F5
:1039000038319A4205D2D0F83431C01890F83000DE
:1039100070474FF0FF3070470069FFF7EEBFFFFFC1
:1039200038B5C16883680D781A78044602F0200023
:10393000C0B2002800F0AB8002F01002D2B2002A20
:103940004DD094F84B22012A1CD115F00105D4F872
:10395000402206D002B927E0062284F84B228022BA
:103960000CE10132C4F84022D4F844128A4202D356
:1039700084F84B522CE0D4F840222369A21892F824
:103980003C21FBE094F84B22022A1DD105F01002E5
:10399000D2B23AB1072284F84B2280221A70E3682F
:1039A00012221EE1EA0701D50522D6E7032284F898
:1039B0004B22D4F85022012A01D1E82200E0E02273
:1039C0001A7023691B780AE194F84B22042AC6D1A5
:1039D00094F84A22012A00D1C1E7B022CEE0D4F8FF
:1039E0003811D4F850220231914200F0FC8094F852
:1039F0004B22042A04D194F85522002A00F0F380C7
:103A0000D4F83821D4F8503201329A4280F0EE8056
:103A100094F84B32042B40F0F28094F85532002B8E
:103A200040F0E480EBE084F84B32A368B0221A70D7
:103A300023691978D4F83831B3F5817F07D8D4F8E1
:103A40003831E218013382F83010C4F8383194F874
:103A50004A32012B05D12023013BFDD1A3688022EE
:103A60001A7094F84B3207E0D4F83831E11801337A
:103A700081F83020C4F8383194F84B32042B40F0F0
:103A8000AE8094F85532002B00F0C280A7E005F01C
:103A90001003DBB233B110230B7005F04003DBB22F
:103AA00003B99CE015F0400150D094F84B32092B3B
:103AB00004D1D4F85832002B40F0AE8015F0040544
:103AC0001DD0082384F84B320023C4F84432D4F8C4
:103AD0005C3203B19847D4F844320BB984F83C31D6
:103AE000A368D0221A7023691A78520884F84C22ED
:103AF00094F83C211A700123C4F840326FE094F826
:103B0000492284F854520AB9122002E0012A02D153
:103B10001120454903E0022A03D144491E20032213
:103B200003E0032A03D141491F20FDF775FE092355
:103B300084F84B320023C4F83831A368C0221A70CD
:103B400023691B785B0884F84C3248E012F01002BD
:103B50001ED015F0010513D1D4F84022D4F8443218
:103B60009A4207D2D4F84032E218013392F83C511D
:103B7000C4F8403223691D70A368D0221A702EE069
:103B8000A368C0221A7023691B7884F84B1226E0C0
:103B900084F8542294F849220AB9122002E0012A3A
:103BA00002D11120204903E0022A03D11F491E201F
:103BB000032203E0032A03D11C491F20FDF72CFE3A
:103BC00023691978D4F83831B3F5817F07D8D4F850
:103BD0003831E218013382F83010C4F83831E36824
:103BE00002221A7038BDE8221A7009E794F84B22B5
:103BF0000023042A84F855327FF415AF15E72369B2
:103C00001A78D4F83831B3F5817F7FF62DAF33E7DA
:103C1000012384F85532E2E70022C4F83421D4F8B5
:103C2000380198474AE700BFE53C0000D93C000056
:103C300001480121FFF774BE088BFF1F01480021D6
:103C4000FFF76EBEA888FF1F10B5C3681B7813F07E
:103C5000200304461ED180F84B3290F849320BB94C
:103C600012200AE0012B01D1112006E0022B01D124
:103C70001E2002E0032B02D11F20FDF7F7FDD4F830
:103C80005832002B27D00022C4F83421D4F8380150
:103C9000984710BD90F854320133DBB2012B80F805
:103CA000543213D890F84832012B0FD110BD122096
:103CB00008E01120012B05D01E20022B02D0032B7F
:103CC00009D11F20BDE81040FDF7D0BD94F849325E
:103CD000002BEED1EBE710BD01480121FFF7B4BF87
:103CE000088BFF1F01480021FFF7AEBFA888FF1F08
:103CF00070B50C4E0C4D0D4C00213046FFF748FCC2
:103D000030460B4E2246294607F07CF90121304609
:103D1000FFF73EFC304629462246BDE8704007F0DA
:103D200071B900BF749DFF1F093500006087FF1F38
:103D3000609DFF1F38B504468088A1600D4606F0DF
:103D400001FF0146284606F049FEE06038BD10B587
:103D500004460846E16807F0FBF800B1207C10BD7E
:103D60004FF47A732DE9F047B0FBF3F006F0E6FE6E
:103D700000240546DFF83C900D4E4FF0140A10E089
:103D80000AFB04F808EB060738462946FFF7DFFF71
:103D900030B158F80630984738462946FFF7CAFF31
:103DA000013499F800309C42EADBBDE8F08700BF9F
:103DB0007087FF1F8C92FF1F0020054A142101E02D
:103DC0000130C0B201FB00F3D358002BF8D170478B
:103DD0007087FF1F08B590F838304BB90549406B24
:103DE00006F004FF07F0C8F800B206F0ABFE08BD0D
:103DF000C06808BDCDCCCC3D002380F83830418769
:103E0000704741647047012380F8383042878187CA
:103E1000C287A0F84010704773B504468668E16A0F
:103E2000C06806F0DBFD07F0A7F836B205B2AE4277
:103E30000EDDE06907F0A0F8B4F93A10B4F93C30AF
:103E40000091024629463046FDF758FB80B200E05B
:103E5000A08F94F848300BB1404280B200B27CBDD4
:103E60002DE9F347C56A476929460446384606F0F6
:103E7000B3FD07F081F8D4F80C9006B2304606F096
:103E800061FE494606F0A8FD002107F043F882468E
:103E900000283AD12946384606F0A0FD07F06CF814
:103EA00007B2384606F04EFED4F81C800146404664
:103EB00006F092FD002107F02DF8054638BB29E0F9
:103EC000404607F059F8A668B4F93A300246009324
:103ED000304639462B460DE0A368B3420EDA484619
:103EE00007F04AF8A768B4F93A300095014632461F
:103EF00038465B42FDF702FB80B200E0284694F8AA
:103F000048302BB1404280B202E0002000E0504631
:103F100000B203E0A368BB42DEDDD1E7BDE8FC8769
:103F200090F838300BB9FFF79BBFFFF775BF406CB7
:103F3000704703791BB9037D0BB9007B70470120E3
:103F400070470B6803608B6883600B690361002313
:103F50000B710B730B75037103730375704738B5E1
:103F600000210446006806F0D5FF68B1A068002172
:103F700006F0D0FF40B120690021012506F0CAFFFC
:103F800000B90546E8B238BD002038BDF8B58468F0
:103F900005460F4620460021164606F0BBFF08BB2B
:103FA0002146384606F022FE10490446304606F007
:103FB000D1FE0146204606F019FE696B06F00EFDA3
:103FC000AE6906F100473946044606F0ADFF30B948
:103FD0002046314606F0C6FF10B1344600E03C46AC
:103FE0006C6300E000242046F8BD00BF0024744943
:103FF0002DE9F041002406460F460069214690460F
:1040000006F088FF002831D1706C04F029F810B94F
:104010007464204615E0B16B384606F0DDFC06F00E
:1040200071F904460D464046124906F093FE06F02B
:1040300069F902460B462046294606F0E1FA06F0E9
:1040400077FC756C294606F0C7FCB16C06F0CEFD16
:104050000146284606F0C2FC014670643069B76329
:1040600000F1004006F0C2FDBDE8F0812046BDE849
:10407000F08100BF00247449F8B51D4690F84C301B
:1040800004461646F3B10846114606F0A5FC216821
:10409000E063074606F0AAFD3946A0622A4620469C
:1040A000FFF774FF2A46E06231462046FFF7A0FF83
:1040B000E16A20630546A06A06F090FC294606F0F6
:1040C0008DFCF8BD0020F8BDF8B50646084611463F
:1040D00006F082FC356A05F100473946044606F0D1
:1040E00023FF30B92046294606F03CFF10B12C468C
:1040F00000E03C46F4632046F8BDFFFF0023436325
:10410000014B4364704700BF0000C07F00687047E8
:1041100090F84C00704738B5054640680C46FFF7EC
:10412000FFFE06F00FFD60602868FFF7F9FE06F05D
:1041300009FDA06038BDFFFFF8B5037D05460E46BA
:1041400083B100242B1956F824001F7C06F0FAFCDA
:10415000054906F04BFD01340146384603F0A4FD45
:10416000042CEFD1F8BD00BF000040407FB50446ED
:104170008068FFF7D5FE06466068FFF72BFE054610
:10418000304606F0DFFC294606F028FC054620688C
:10419000FFF720FE0146284606F01EFC0546E068B3
:1041A000FFF718FE0146284606F018FC0090A068AC
:1041B000FFF7B6FE06466068FFF70CFE0546304680
:1041C00006F0C0FC294606F009FC05462068FFF70A
:1041D00001FE0146284606F001FC0546E068FFF7AF
:1041E000F9FD0146284606F0F7FB0190A068FFF7AD
:1041F00097FE06466068FFF7EDFD0546304606F07F
:10420000A1FC294606F0E8FB05462068FFF7E2FD21
:104210000146284606F0E0FB0546E068FFF7DAFDB8
:104220000146284606F0D8FB0290A068FFF778FE0A
:1042300006466068FFF7CEFD0546304606F082FC74
:10424000294606F0C9FB05462068FFF7C3FD014675
:10425000284606F0C3FB0546E068FFF7BBFD0146B4
:10426000284606F0BBFB002503905DF805600021A1
:10427000304606F06DFE38B1304606F043F80022B5
:104280000C4B05F0E1FE06E0304606F03BF800225C
:10429000084B05F0D7FE06F023FB63190435102DFB
:1042A0009861E2D1204604F1180104B0BDE87040E5
:1042B000FFF742BF0000E03F2DE9F043044687B01E
:1042C0008068FFF734FEA36803F10C02074692E80A
:1042D00003002C3302AE86E8030093E8030004AD2C
:1042E00085E803000298049906F078FB8146E068AF
:1042F000FFF71DFEE36803F10C02804692E803001D
:104300002C3386E8030093E8030085E80300384671
:1043100006F018FC4946029E049D06F005FE0028A2
:1043200034D0404606F00EFC29460746304606F0DB
:1043300055FB0146384606F0F7FD38B3A068FFF795
:10434000F6FD642822DDE068FFF7F1FD642818DC43
:104350001CE001221A70144B1B680093009A134B47
:104360001A60114B1B680193104B019A1B68D31AFA
:10437000B3F57A7F03D90E4B187858B911E00020B5
:104380000FE00B4B1A78002AEBD1E2E7084B002232
:104390001A70E6E7227D82F00102227500221A706F
:1043A000012007B0BDE8F083E09AFF1F8C9DFF1F3E
:1043B000909DFF1F70B505460846074906F016FC9C
:1043C000002406462B193146187C013403F06CFC9E
:1043D000042CF7D170BD00BF000040400149FFF739
:1043E000E9BF00BF00007A4408B5037D43B180688F
:1043F000FFF796FD40F24C43984201DD012008BDD5
:10440000002008BD007D70470175704710B5084653
:104410000C46054903F048FC20464FF48061BDE896
:10442000104003F015BC00BF00803B45044B0C223C
:104430001A6002F5EA529A602822DA60704700BFDB
:104440000080034070B50546FFF7F0FF2C462E1D97
:10445000217C28460134FFF7D9FFB442F8D170BD62
:1044600003688A685A6343684A685A63C3680A687B
:104470005A6370470B88584080EA0010C0B2C200EF
:1044800082EA002282EA132383EA10100880704730
:1044900010B5CA780C460632023107F003F9E2780B
:1044A0000632034681182088985423881B124B70CB
:1044B000E078083010BDFFFF2DE9F7430446984629
:1044C000FE238370E270002317461D4A41718371F9
:1044D000937902AE0371013393714FF6FF73C51CDC
:1044E00026F8023D00F1080904E015F8010B3146F9
:1044F000FFF7C0FF4D45F8D12546BDF8063025F839
:10450000083B94F80390A9442E461FFA89F904E069
:1045100016F8010B2146FFF7ADFFB3B29945F7D16D
:1045200040462146FFF7A6FFE3782288EA54E37865
:10453000ED1823881B126B7007F10800BDE8FE839D
:10454000929DFF1F2DE9F04F0B4687B0D789558A02
:10455000B2F804B0B2F806A0B2F80890B2F80A8037
:10456000B2F80CC0168A517DADF80E700446107D6D
:104570001268ADF812500092ADF804B0ADF806A084
:10458000ADF80890ADF80A80ADF80CC0ADF8106039
:104590008DF814008DF815106D4603F1080204AF74
:1045A0002E4603CE083242F8080C42F8041CBE42E4
:1045B0003546F5D130681060B18891802322DA71D8
:1045C000184621461622F42307B0BDE8F04FFFF746
:1045D00073BF7FB50B46157A51681268029101923C
:1045E00001AA064603CAFE229860D960DA7103F177
:1045F00008041D741846314609222E238DF80C50EC
:1046000004B0BDE87040FFF757BF7FB50C4601937B
:104610009DF820108DF80A2002238DF808300C2315
:104620008DF809308DF80B1001AB064603CB002343
:104630000325A060E160E371204631460922322360
:104640008DF80C50257404B0BDE87040FFF734BFFE
:10465000F0B589B006460D46BDF83C409DF83810CF
:10466000BDF840000193ADF80840ADF80A008DF8A0
:104670001C102AB9114603A8102207F033F90AE0EA
:1046800003AC02F1100710685168234603C30832D7
:10469000BA421C46F7D101AA05F1080307AF144638
:1046A00003CC083343F8080C43F8041CBC422246F0
:1046B000F5D122781A701623EB712846314619225B
:1046C000DC2309B0BDE8F040FFF7F6BE2DE9F0416C
:1046D0001368D768D2F80480D2F808C0146988B08B
:1046E0000D4606469169506901930497CDF80880FC
:1046F000CDF80CC005940690079101AA05F10803B6
:1047000007AF144603CC083343F8080C43F8041CE5
:10471000BC422246F5D1206818601E23EB71284662
:1047200031461C22272308B0BDE8F041FFF7C4BE84
:104730002DE9F04F0B4687B0D789558AB2F804B0FF
:10474000B2F806A0B2F80890B2F80A80B2F80CC02D
:10475000168A517DADF80E700446107D1268ADF8D2
:1047600012500092ADF804B0ADF806A0ADF8089074
:10477000ADF80A80ADF80CC0ADF810608DF81400EB
:104780008DF815106D4603F1080204AF2E4603CED6
:10479000083242F8080C42F8041CBE423546F5D1F6
:1047A00030681060B18891802222DA711846214663
:1047B0001622ED2307B0BDE8F04FFFF77DBEFFFFE7
:1047C000F8B5584DEB781646002204462A70092B9E
:1047D00000F29180DFE803F005050F1F17262D3B3F
:1047E0004C6EFE2C40F087800223EB704E4B002273
:1047F000DA709C706FE04C492A71CC702046FFF74C
:1048000039FE042305E0484920460C71FFF732FECB
:104810000323EB706FE0444920464C71FFF72AFEFA
:104820000523F6E7404920468C71FFF723FE062357
:10483000EFE73D4D2046EC712946FFF71BFEEA7875
:10484000384B0AB9082200E00722DA7053E02B79CE
:10485000354FFA18013314722B7120463946FFF791
:1048600009FE2A79FB789A4245D108222D4BECE7C4
:104870002D4D2E4AEB792946D05CFFF7FBFD2B88A6
:10488000DBB29C42274B0FD09A78013201219A70FB
:104890000022FE2C1A70D9702DD10221D9704FF64A
:1048A000FF73EA702B8026E00922DA701B79ED187D
:1048B0002C7220E01C4B1A88B4EB122F0FD0AA7870
:1048C0000132AA700122FE2CEA7014D1154A02218D
:1048D000D1700022DA704FF6FF721A800BE00122CD
:1048E0002A70EA702A799A180846547219464FF4C9
:1048F000887206F0D7FE0B4B1878012807D10A4AB8
:1049000012795A711A8902B95A8101321A81054BFA
:104910005A79013272711A8932819A787281002231
:104920009A70F8BD929DFF1FC29DFF1FB4C9000081
:1049300038B5044608460D46FCF734FF23680246A6
:104940005B6820462946984738BD38B50A220023BF
:104950000446FCF77BFD05462046FCF769FD281858
:1049600038BD38B50446FCF7A9FD05462046FCF7DE
:104970005FFD281838BDFFFFF8B5154B154E1960BF
:10498000074600241C25144B18E00A2A0ED1D0F843
:1049900018E0002201E0013292B205FB02F01EF89D
:1049A00000000028F7D11878121801E01A780132B7
:1049B0001A703278013401323270A4B205FB04F26D
:1049C00088188A5C002AE0D100F0A8FA3846F8BDC1
:1049D00004A2FF1F02A2FF1F03A2FF1F13B504467C
:1049E00001A8FFF7C9FF054B20681B7863730368B4
:1049F0004FF4E1319B6998471CBD00BF03A2FF1F24
:104A0000002303737047FFFFF0B5CDB004460D4699
:104A100001F1080305AA01F118071868596816463C
:104A200003C60833BB423246F7D1186815493060D7
:104A30002068FFF77DFFBDF914102068FFF791FF94
:104A400006A99DF814200DF1130000F0D9FA9DF885
:104A500013200346A07B0092627B0192BDF81420D4
:104A60002946029206AAFFF7F3FD29460AA8FFF796
:104A70000FFD0246206801684C680AA9A0474DB0A6
:104A8000F0BD00BF90C900002DE9F043CFB006464D
:104A90000C4601F1080306AA01F1180718685968C5
:104AA000154603C50833BB422A46F7D1186828606B
:104AB00099889B79A980AB710DF11E000DF117014A
:104AC00000F0BAF9054648B30DF11702069900F057
:104AD00075FA9DF81710B77B284600F055FA054681
:104AE0000DF11E009DF8179096F80D8000F012FB56
:104AF00021460DF11E0202902B46CDF80090CDF814
:104B000004803846FFF7A4FD21460CA8FFF7C0FC3F
:104B10000246306801684C680CA9A0474FB0BDE858
:104B2000F08310B5027B437B9342ADF5107D0446C4
:104B30001ED305A90DF1130000F062FA227B9DF847
:104B400013100132D2B222730346A07B0091617B25
:104B50000292019105AA4CA9FFF77AFD4CA90AA877
:104B6000FFF796FC0246206801684C680AA9A04736
:104B70000DF5107D10BD10B5044642760176807E9D
:104B8000ADF5087D0343A376A07B009144A9FFF710
:104B90003CFD44A902A8FFF77BFC0246206801689F
:104BA0004C6802A9A0470DF5087D10BD30B5134B28
:104BB000ADF50B7D1B680393039A4369D31A40F646
:104BC000B8329342044601D9002300E00123217E3C
:104BD000627E23710091A37EA07B46A9FFF715FD9D
:104BE00046A904A8FFF754FC0246206801684D68F6
:104BF00004A9A84720790DF50B7D30BDE09AFF1F71
:104C000010B5ADF5067D0A46044642A9807BFFF744
:104C10005DFD42A96846FFF73BFC0246206801683B
:104C20004C686946A0470DF5067D10BD10B5ADF581
:104C3000067D0A46044642A9807BFFF783FC42A911
:104C40006846FFF725FC0246206801684C68694603
:104C5000A0470DF5067D10BD10B5ADF5067D0A46E1
:104C6000044642A9807BFFF763FD42A96846FFF72F
:104C70000FFC0246206801684C686946A0470DF5A4
:104C8000067D10BD10B5044600680368C8B09B6877
:104C90009847002843D020680368DB68984704A938
:104CA000C0B201AAFFF78CFD002838D09DF817305C
:104CB000142B21D003D84BB10B2B27D117E0172B86
:104CC00010D0452B1DD0152B20D107E001232371D7
:104CD000164B1B680093009B636120E02046FFF7A2
:104CE0008FFE1CE0204604A9FFF7CEFE17E0204609
:104CF00004A9FCF79DF812E0204604A9FFF784FE02
:104D00000DE0204604A9FCF763F808E00849206894
:104D1000FFF70EFE20689DF81710FFF716FE2379A7
:104D200013B12046FFF7FDFE48B010BDE09AFF1F0B
:104D3000ABC90000837E194381767047837E23EAE6
:104D400001018176704708B5437ED02B12D004D87C
:104D5000C02B07D0C22B0DD106E0D82B06D0DC2B00
:104D600008D105E0402306E0422304E0582302E096
:104D70005C2300E050234376FFF718FF08BD08B519
:104D8000437E502B12D004D8402B07D0422B0DD19C
:104D900006E0582B06D05C2B08D105E0C02306E0C6
:104DA000C22304E0D82302E0DC2300E0D0234376D2
:104DB000FFF7FCFE08BDFFFF10B50E4BADF50A7DF9
:104DC0001B6802910093009B8DF80C20044601AAF9
:104DD00046A9807B0193FFF7FCFB46A904A8FFF7D7
:104DE00057FB0246206801684C6804A9A0470DF5EE
:104DF0000A7D10BDE09AFF1F0176704710B504468A
:104E000051B18021FFF796FF20460421FFF7F4FF00
:104E10002046FFF7B4FF09E08021FFF78FFF20460F
:104E20000321FFF7E9FF2046FFF78DFF2046FFF73C
:104E3000BDFE10BD007970472DE9FF4780468946C9
:104E40000027264E3EE00A2C08D033685D19681C06
:104E5000414606F0DBFF002832D12CE0946925E0C2
:104E60001F4900A8FCF795FB31684919013100A8DA
:104E7000FCF7B5FB611C00A8FCF7B1FB00984146AC
:104E800006F0C4FF1C3470B99AF80030BAF8144028
:104E900089F80030114B1B685D1968466B69E4188E
:104EA000FCF736FB15E000A8FCF732FB2378A2469E
:104EB000002BD5D1C9E72B786C6989F8003008E060
:104EC0000137BFB21C257D4333685C5D5A19002C45
:104ED000B9D1204604B0BDE8F08700BF04A2FF1F8F
:104EE000A2CB0000023810B50C46072815D8DFE821
:104EF00000F0041409140E141413104606F03CF8C4
:104F0000207010BD104606F037F8208010BD104606
:104F100006F032F8206010BD0A6010BD70B50024A4
:104F20000B4D0C4E0FE023B299005A01521A316812
:104F3000885C092801EB020303D859699A69FFF7D5
:104F4000D1FF0134E4B22B78A342ECD870BD00BF8E
:104F500002A2FF1F04A2FF1F70B506460D460024E3
:104F600008E0092804D8918A92697118FFF7BAFFFE
:104F70000134E4B222B2910053015B1AEA18E85CF2
:104F80000028EED170BDFFFF023908B5072911D8FE
:104F9000DFE801F0041007100A10100E90F900006D
:104FA00003E0B0F9000000E0006805F0CBFD08BDAB
:104FB000006808BD004808BD0000C07F1378023BB0
:104FC00010B504460846072B18D8DFE803F004178D
:104FD0000A171017171405F0CFFF01232070637014
:104FE00010BD05F0C9FF01232080A37010BD05F09E
:104FF000C3FF206000E021600123237110BDFFFF8B
:10500000274BD3F800C000232DE9F04781460F4617
:105010001D464FF01C0A37E00A2820D18E6919E09E
:105020001C36954214D10131384606F0DDFF08F1F7
:105030000101384606F0C4FE194B98F800101B68B1
:10504000B8F8140089F800101C196369C01815E03D
:105050000135EDB23078B0460028E1D101E00135EC
:10506000EDB293420ED10131384606F0BDFF0C4B34
:105070001B681A19195D506989F80010BDE8F047DE
:10508000FFF782BF01339BB20AFB03F40CEB040170
:105090001CF804000028BFD10020BDE8F08700BF45
:1050A00004A2FF1F1A4B2DE9F0411E6800230C4695
:1050B0001D464FF01C0C23E00A2A15D18A690CE02A
:1050C0001C32854209D10131204606F08DFF204671
:1050D000791CBDE8F04106F073BE92F800801746D7
:1050E000B8F1000FECD101E00135EDB2834205D1FA
:1050F00020460131BDE8F04106F076BF01339BB296
:105100000CFB03F2B118B25C002AD5D1BDE8F081E6
:1051100004A2FF1F7FB5054600240A4E0AE0204680
:105120006946FFF7BFFF2846694606F06FFE28B1C3
:105130000134E4B23378A342F1D80024204604B00D
:1051400070BD00BF03A2FF1F2DE9F047D2F8008019
:10515000576896680C460546C968404605F046FD06
:1051600021698146384605F041FD0146484605F073
:1051700035FC61698146304605F038FD01464846F8
:1051800005F02CFCA1698246404605F02FFDE1693F
:105190008146384605F02AFD0146484605F01EFCCA
:1051A000216A8146304605F021FD0146484605F05A
:1051B00015FC21688146404605F018FD616880466F
:1051C000384605F013FD0146404605F007FCA1688E
:1051D0000746304605F00AFD0146384605F0FEFB5D
:1051E000C5F804A02860C5F808902846BDE8F087F7
:1051F0002DE9F843D1F80490D1F808800F4606460F
:105200000968484605F0F2FCF9680446404605F096
:10521000EDFC0146204605F0E1FB014605F0DEFB12
:1052200005F070F804460D464846494605F0DEFC98
:1052300041468146404605F0D9FC0146484605F006
:10524000CDFB014605F0CAFB01464FF07E5005F04C
:10525000C3FB05F057F802460B462046294602F0EC
:10526000E1FF05F065FBB968B060386805F0BEFC89
:1052700079680446F86805F0B9FC0146204605F057
:10528000ABFB014605F0AAFB05F03CF802F076FF07
:1052900005F04EFBD7F80C9039687060484605F071
:1052A000A5FCD7F8088079680446404605F09EFCC6
:1052B0000146204605F092FB014605F08FFB05F004
:1052C00021F804460D464846494605F08FFC414604
:1052D0000746404605F08AFC0146384605F07EFB4D
:1052E000014605F07BFB01464FF07E5005F074FB54
:1052F00005F008F802460B462046294602F092FFC8
:1053000005F016FB3060BDE8F88338B50446006848
:105310000D4605F06BFC29462060606805F066FCD0
:1053200029466060A06805F061FCA060204638BD99
:105330001FB5044604A800E90E002068019905F095
:1053400055FC02992060606805F050FC039960608C
:10535000A06805F04BFCA060204604B010BD0160C1
:10536000426083607047FFFF38B5044608680D4609
:1053700004F0C8FF16A3D3E9002305F017F80022B4
:10538000154B05F013F805F0D3FA2060686804F0B7
:10539000B9FF0FA3D3E9002305F008F800220E4B54
:1053A00005F004F805F0C4FA6060A86804F0AAFFEC
:1053B00007A3D3E9002304F0F9FF0022064B04F011
:1053C000F5FF05F0B5FAA060204638BDAFF30080C8
:1053D000F8C1631ADCA54C4000005940AFF30080CF
:1053E00038B504460D460868074905F0FFFB064935
:1053F0002060686805F0FAFB03496060A86805F062
:10540000F5FBA060204638BD0000C84200230360C1
:10541000436083607047FFFF10B504460068616811
:1054200005F0DCFAA16805F0D9FA024905F092FC12
:1054300010BD00BF0000404038B50446B1F900007F
:105440000D4605F07FFB2060B5F9020005F07AFB00
:105450006060B5F9040005F075FBA06038BD0288F6
:1054600089B24A43028042884A434280828851433B
:105470008180704701804280838070470B88038061
:105480004B8843808B888380704703680B60436838
:105490004B6083688B60704707B5154B1B6893F8AA
:1054A00024208AB108B1022216E08DF807005A685C
:1054B0001B681078597C01220DF1070302F0A8FB4C
:1054C00068B94FF0FF3012E0997A0029F9D000282E
:1054D000EBD0597C51B901228DF80720E7E7044B46
:1054E0009DF807201B6800205A7400E010460EBD8E
:1054F00064A2FF1F08B5FFF71BFA08BD0A220023AC
:10550000FBF7A4BF38B50446FFF712FA054620465C
:10551000FBF78EFF281838BD034B82B01B68019340
:10552000019B036002B07047E09AFF1F01281BD85F
:105530000F4B18600F4B2A2202FB00320E4B1A60F1
:105540000E4B0E2202FB00320D4B1A600D4B28222F
:1055500002FB00320C4B1A600C4B382202FB00306D
:105560000B4B1860002070474FF0FF30704700BFB2
:1055700048A3FF1F08A2FF1F60A2FF1FB8A2FF1FC2
:10558000D4A2FF1F68A2FF1F5CA2FF1FD8A2FF1FAB
:1055900064A2FF1F4E4B1B68752210B51A701922AA
:1055A0005A701A229A700C22DA706A221A71232217
:1055B0005A711B229A711C22DA711F229A722022C0
:1055C000DA7272221A7374225A7343229A733B223C
:1055D000DA7341221A7438225A7439229A743A22A0
:1055E000DA746B225A756C229A753722DA756F223B
:1055F0001A7606225A7624229A766D22DA766E225E
:105600001A7770225A77492283F82820012283F8DA
:10561000292025229A772622DA77272283F820204C
:10562000282283F82120292283F822202A2283F8A5
:105630002320342283F82420632283F82520642247
:1056400083F82620672283F82720224A1168224AFD
:1056500011B1012906D102E01168682001E011684A
:105660006920087011684FF480624A8076220A71BE
:105670004FF4AA72CA804FF6F7520A814FF4807233
:105680004A8142F266628A81144A126883204FF48A
:10569000006482E811000020107290721820D0720D
:1056A00032209081052090730D4810610D485061A3
:1056B0000D4801245472906150620C4C0C48D46126
:1056C00000680C4C146203604160426310BD00BF6F
:1056D00060A2FF1F48A3FF1FD4A2FF1F5CA2FF1FF1
:1056E000000020410000D242295C0F3E9A99993E69
:1056F00064A2FF1F3333733F2DE9FF41044610B905
:105700004FF0FF3078E0036823B9436813B980682D
:10571000002871D03A4D3B4E2B685B68187833886F
:10572000032100930A4602AB02F0FEF90028E7D0FD
:1057300094E80E009DF80A409DF8088028689DF8BE
:1057400009702411083404F00F045B004FEA281894
:10575000403408F108083F1193FBF4F4436808F063
:105760000F08083749001878338808F1400807F017
:105770000F07520091FBF8F84037062192FBF7F72C
:1057800000930A4602AB02F0CFF90028B8D09DF88A
:1057900009309DF808109DF80A209DF80C0043EA96
:1057A00001219DF80B3043EA02229DF80D3043EAB7
:1057B00000234144BA18E31889B292B29BB241F374
:1057C00007208DF809108DF80B2042F307218DF882
:1057D0000D3043F307222B688DF80A108DF80C204A
:1057E0008DF808005B68062118780A4602AB02F0C3
:1057F0000FFA002884D0002004B0BDE8F08100BF7B
:1058000064A2FF1F688DFF1F37B55E4D2B689A7A23
:1058100012B94FF0FF30B4E002AC002204F8012DC1
:105820005A681B681078597C0122234602F0F0F96F
:105830000028EED02B685A681B681078597901222D
:10584000234602F0E5F90028E3D02B685A681B686C
:10585000107819790122234602F0DAF90028D8D00D
:105860002B6893F824105A68002944D00C218DF835
:1058700007101B68107819790122234602F0C8F935
:105880000028C6D03220FCF7A3F9C0238DF80730DA
:105890002B689A7AD10702D5E0228DF807205A6842
:1058A0001B681078197901220DF1070302F0B0F995
:1058B0000028AED0334B1B685A7C02B102228DF80F
:1058C00007205A681B681078597C01220DF10703E4
:1058D00002F09EF900289CD000238DF80730294B58
:1058E0001B685A681B681078597901220DF107036B
:1058F00042E0002045E004218DF807101B68107875
:1059000019790122234602F083F9002881D02B68FF
:105910009A7C12B99A7AD20701D4402200E0602220
:105920008DF807205A681B681078197901220DF14B
:10593000070302F06DF900283FF46BAF3220FCF74B
:1059400047F9104B1B685A7C02B101228DF80720E1
:105950005A681B681078597C01220DF1070302F088
:1059600057F900283FF455AF064B1B68596853F8A8
:10597000102B08785179012202F04AF90028B8D199
:1059800047E73EBD64A2FF1F07B51D4B1B689A7A0F
:1059900012B94FF0FF3032E0B0F5FA7F0CD002D8E8
:1059A000FA2828D106E0B0F57A7F07D0B0F5FA6F73
:1059B00021D105E0002204E0082202E0102200E0EC
:1059C00018228DF807209DF807101A7AB2EBD10F34
:1059D00014D05A681B681078997901220DF10703D9
:1059E00002F016F90028D4D0054B9DF807201B685B
:1059F000D2101A7202E06FF0010000E000200EBD2C
:105A000064A2FF1F07B51C4B1B689A7A12B94FF0AE
:105A1000FF302FE004280AD002D8022826D104E063
:105A2000082806D0102821D105E0002204E0082231
:105A300002E0102200E018228DF807209DF80710E0
:105A40005A7AB2EBD10F14D05A681B681078D97902
:105A500001220DF1070302F0DBF80028D7D0064B36
:105A60009DF807201B68D2105A7202E06FF0010007
:105A700000E000200EBD00BF64A2FF1F07B51A4B57
:105A80001B689A7A12B94FF0FF302CE0BB2801D97D
:105A9000012210E0612801D902220CE0292801D955
:105AA000032208E0132801D9042204E0092801D9BF
:105AB000052200E006228DF80720D97A9DF80720FC
:105AC00091420FD05A681B681078997801220DF125
:105AD000070302F09DF80028D5D0034B9DF807205E
