:1000000000800020BD010000CD1E0000CD1E0000BC
:10001000CD1E0000CD1E0000CD1E0000991E000068
:10002000991E0000991E0000991E0000CD1E0000C0
:10003000CD1E0000991E0000CD1E0000891E00008C
:10004000CD1E0000CD1E0000CD1E0000CD1E000004
:10005000CD1E0000CD1E0000CD1E0000CD1E0000F4
:10006000CD1E0000CD1E0000CD1E0000CD1E0000E4
:10007000CD1E0000CD1E0000CD1E0000CD1E0000D4
:10008000CD1E0000CD1E0000CD1E0000CD1E0000C4
:10009000CD1E0000CD1E0000CD1E0000CD1E0000B4
:1000A000C9430000BD430000CD1E0000CD1E00006E
:1000B000CD1E0000CD1E0000CD1E0000CD1E000094
:1000C000CD1E0000CD1E0000CD1E0000CD1E000084
:1000D000CD1E0000CD1E0000CD1E0000CD1E000074
:1000E000CD1E0000CD1E0000CD1E0000CD1E000064
:1000F000CD1E0000A9270000CD1E0000252C000009
:10010000CD1E0000D52F0000CD1E0000CD1E00002A
:10011000CD1E0000CD1E0000CD1E0000CD1E000033
:10012000CD1E0000CD1E0000CD1E0000CD1E000023
:10013000CD1E0000CD1E0000CD1E0000CD1E000013
:10014000CD1E0000CD1E0000CD1E0000CD1E000003
:10015000A11A0000B91A0000D11A0000E91A000023
:10016000CD1E00008D320000CD1E0000CD1E00000F
:10017000CD1E0000CD1E0000CD1E0000CD1E0000D3
:10018000CD1E0000CD1E0000CD1E0000CD1E0000C3
:10019000CD1E0000CD1E0000CD1E00002920000055
:1001A0007920000001210000BD2100004122000053
:1001B000CD1E0000CD1E000021170000544B4CF254
:1001C000205210B51A804DF628121A8000BF00BFC9
:1001D00001F080FE4F4B4FF010621A604E4A9A6059
:1001E0004E4ADA604E4B1A6812F4807204D14D49BF
:1001F0000A604FF4A8521A604B4B1A7802F00802BA
:10020000D2B21AB11A7842F008021A70474B484825
:10021000484C2A221A700023474A02E01959995083
:10022000043399188142F9D3444B454A002101E037
:1002300043F8041B9342FBD34249434800231A5816
:100240005A500433B3F5DE7FF9D1404B404A802148
:1002500003F8011B9342FBD13A4A3E4B1A603E4BD6
:100260000A221A703D4B24221A70A02203F8012C96
:100270003B4A137803F00203DBB2002BF9D0384A73
:10028000137803F01003DBB2002BF9D1344A137852
:1002900003F00C03082BFAD1324B03221A704022D0
:1002A0005A702F4A137803F02003DBB2002BF9D0E9
:1002B0002B4A137803F04003DBB2002BF9D02A4B12
:1002C0002A4A1A6002225A60294B20221A70244AB4
:1002D000137803F00C030C2BFAD1264A264B1A6034
:1002E000264B274A1A60072243F8042C62B602F014
:1002F0004BF80C4B1B68DC0702D5224801F0B8FF15
:100300000AF022FB01F0ECFD01F0B6FDFEE700BFB4
:100310000E20054030800440823F04000100002B85
:1003200010D0034014D0034002D0074000E0074043
:100330007092FF1FE0D500006087FF1F7092FF1FC3
:10034000A4A0FF1F0082FF1F0000000000E400E0E7
:100350005FE400E008ED00E0005006400140064088
:10036000064006400440064044800440000003016B
:1003700000400640C01005000480044014E000E086
:10038000FF760100F51A6351FFFFFFFFFFFFFFFF3C
:10039000FFFFFFFFFFFFFFFFFFFFFFFFFFFFFFFF6D
:1003A000FFFFFFFFFFFFFFFFFFFFFFFFFFFFFFFF5D
:1003B000FFFFFFFFFFFFFFFFFFFFFFFFFFFFFFFF4D
:1003C000FFFFFFFFFFFFFFFFFFFFFFFFFFFFFFFF3D
:1003D000FFFFFFFFFFFFFFFFFFFFFFFFFFFFFFFF2D
:1003E000FFFFFFFFFFFFFFFFFFFFFFFFFFFFFFFF1D
:1003F000FFFFFFFFFFFFFFFFFFFFFFFFFFFFFFFF0D
:10040000FFFFFFFFFFFFFFFFFFFFFFFFFEFFFFFFFD
:1004100008B549F27020074BC1F6FF701B1A062B76
:1004200000D808BD40F20003C0F20003002BF8D052
:100430009847F6E77392FF1F08B549F2702049F21A
:100440007023C1F6FF70C1F6FF731B1A9B1003EBFC
:10045000D373591000D108BD40F20002C0F200026F
:10046000002AF8D09047F6E710B549F27024C1F69B
:10047000FF74237873B9FFF7CBFF40F20003C0F29B
:1004800000032BB14DF2E050C0F20000AFF300804A
:100490000123237010BD00BF08B540F20003C0F275
:1004A00000034BB14DF2E05049F27421C0F200005C
:1004B000C1F6FF71AFF3008049F27020C1F6FF7002
:1004C00003682BB140F20003C0F2000303B1984768
:1004D000BDE80840B0E700BF0148024904F096B803
:1004E000AC92FF1F10C0000038B5044608460D4608
:1004F00001F01EFD236802465B68204629469847A6
:1005000038BDFFFF2DE9F8439946144B0A9E8363DB
:100510000123002580F83C3000230F46056045602C
:100520008560C560056145618561C561066245629A
:100530008562C562056345630364094904469046C4
:1005400004F04AFC089B2760A361099BC4F804805F
:10055000C4F80890E3612046BDE8F883A48E0E3FFE
:1005600038BD0000F8B5446805460F462046002116
:1005700016460AF05BF908BB2146384609F0C2FF6F
:100580001049044630460AF071F80146204609F049
:10059000B9FF696A09F0AEFEEE6906F10047394617
:1005A00004460AF04DF930B9204631460AF066F9A2
:1005B00010B1344600E03C466C6200E00024204666
:1005C000F8BD00BF002474492DE9F041002406461F
:1005D0000F468068214690460AF028F9002831D15C
:1005E000706B07F0C9F910B97463204615E0B16A61
:1005F000384609F07DFE09F011FB04460D464046E1
:1006000012490AF033F809F009FB02460B4620466E
:10061000294609F081FC09F017FE756B294609F09F
:1006200067FEB16B09F06EFF0146284609F062FED5
:1006300001467063B068B76200F1004009F062FFE4
:10064000BDE8F0812046BDE8F08100BF0024744978
:10065000F8B51D4690F83C3004461646EBB1084606
:10066000114609F045FE2168074609F04BFF39465F
:10067000E0602A462046FFF775FF2A462061314692
:100680002046FFF7A1FF216960610546E06809F097
:1006900031FE294609F02EFEF8BD0020F8BDFFFF0F
:1006A0002DE9F84399464FF47A7304460385838510
:1006B0009DF8203021700025002680F834300F4648
:1006C0008560C660066146618661C66180F8245017
:1006D000C58445850B49904604F07EFB3846294683
:1006E00001F002FE4146C4F81490C4F80C8048465C
:1006F00009F000FE4FF07C5109F004FF2061204614
:10070000BDE8F8832CC0000008B590F824304BB940
:100710000549006A09F0F6FE0AF0BAF800B209F0DD
:100720009DFE08BDC06808BDCDCCCC3D73B5044668
:100730008668E169C06809F0DDFD0AF0A9F836B203
:1007400005B2AE420EDD60690AF0A2F8B4F92610D7
:10075000B4F92830009102462946304601F08EFA5D
:1007600080B200E0208D94F834300BB1404280B26A
:1007700000B27CBD2DE9F347C569076929460446E7
:10078000384609F0B5FD0AF083F8D4F80C9006B2AB
:10079000304609F063FE494609F0AAFD00210AF03F
:1007A00045F8824600283AD12946384609F0A2FD8C
:1007B0000AF06EF807B2384609F050FED4F81480FB
:1007C0000146404609F094FD00210AF02FF8054645
:1007D00038BB29E040460AF05BF8A668B4F9263039
:1007E00002460093304639462B460DE0A368B342DB
:1007F0000EDA48460AF04CF8A768B4F9263000959E
:100800000146324638465B4201F038FA80B200E0D9
:10081000284694F834302BB1404280B202E00020E8
:1008200000E0504600B203E0A368BB42DEDDD1E742
:10083000BDE8FC8790F824300BB9FFF79BBFFFF7AA
:1008400075BF38B504468088A1600D4609F006FEE4
:100850000146284609F04EFDE06038BD10B504465B
:100860000846E1680AF000F800B1207C10BDFFFFE7
:100870004FF47A732DE9F047B0FBF3F009F0EAFD8D
:1008800000240546DFF83C900D4E4FF0140A10E0AE
:100890000AFB04F806EB080738462946FFF7DEFF97
:1008A00030B158F80630984738462946FFF7C9FF57
:1008B000013499F800309C42EADBBDE8F08700BFC4
:1008C0006487FF1F8C92FF1F0020054A142101E05E
:1008D0000130C0B201FB00F3D358002BF8D17047B0
:1008E0006487FF1F072817D8DFE800F00406080A0E
:1008F0000C0E1012094B0CE0094B0AE0094B08E002
:10090000094B06E0094B04E0094B02E0094B00E00B
:10091000094B1A6811431960704700BF04B00440C6
:1009200008B004400CB0044010B0044010C00440B3
:1009300014C0044018C004401CC0044008B5072877
:100940002DD8DFE800F004090E13181D22270846F1
:1009500009F0C4FF124B21E0084609F0BFFF114B1C
:100960001CE0084609F0BAFF0F4B17E0084609F0F3
:10097000B5FF0E4B12E0084609F0B0FF0C4B0DE03E
:10098000084609F0ABFF0B4B08E0084609F0A6FF4C
:10099000094B03E0084609F0A1FF084B186008BDA9
:1009A00010800340188003402080034028800340CB
:1009B000308003403880034040800340488003403B
:1009C00010B50C46044909F09DFD01462046BDE8DE
:1009D0001040FFF7B3BF00BF0000404010B505490D
:1009E0000446FFF7ABFF20464FF48061BDE810409E
:1009F000FFF778BF00803B45044B0C221A6002F5DC
:100A0000EA529A602822DA60704700BF00800340F3
:100A1000037D70B505460E465BB1002456F82400F0
:100A200009F01CFD2B190134197CFFF7C9FF042CB8
:100A3000F4D170BD7FB504468068FFF7FBFE064623
:100A40006068FFF761FE0546304609F007FD29465C
:100A500009F050FC05462068FFF756FE014628467F
:100A600009F046FC0546E068FFF74EFE01462846C1
:100A700009F040FC09F00CFF0090A068FFF7DAFED7
:100A800006466068FFF740FE0546304609F0E6FC82
:100A9000294609F02FFC05462068FFF735FE014680
:100AA000284609F027FC0546E068FFF72DFE0146C1
:100AB000284609F01DFC09F0EBFE0190A068FFF745
:100AC000B9FE06466068FFF71FFE0546304609F08E
:100AD000C5FC294609F00CFC05462068FFF714FE0A
:100AE0000146284609F004FC0546E068FFF70CFEC5
:100AF0000146284609F0FCFB09F0CAFE0290A068F6
:100B0000FFF798FE06466068FFF7FEFD0546304693
:100B100009F0A4FC294609F0EBFB05462068FFF725
:100B2000F3FD0146284609F0E5FB0546E068FFF7BE
:100B3000EBFD0146284609F0DDFB09F0A9FEADF109
:100B40000405039003AE6868002806DB09F054F83A
:100B500000220A4B08F004FF05E009F04DF80022DE
:100B6000064B08F0FBFE09F047FB45F8040FB542C1
:100B7000E9D120466946FFF74BFF7FBD0000E03F0B
:100B800083682DE9F743D9691E6B0446D86809F0DC
:100B9000B1FBE368814630461D6BD3F80C80DF69FA
:100BA00009F05CFC494609F04BFE00282ED028468F
:100BB00009F054FC39468146404609F09BFB01464A
:100BC000484609F03DFE08B3642E1FDD642D18DC95
:100BD0001CE001221A701C4B1B680093009A1B4BEF
:100BE0001A60194B1B680193184B019A1B68D31AA2
:100BF000B3F57A7F03D9164D287858B921E0002043
:100C00001FE0134B1A78002AEBD1E2E7104B0022C9
:100C10001A70E6E7237D0F490F4883F0010323751F
:100C2000FFF762FC0D490C48FFF75EFC217D0A4886
:100C300001F004F808480A49FFF756FC00232B701E
:100C40000120BDE8FE8300BFD097FF1FD096FF1F95
:100C5000C096FF1F20C000002C9AFF1F26C0000076
:100C600028C0000070B506460D46002433192846FA
:100C7000197C0134FFF7A4FE042CF7D170BDFFFFEF
:100C80000149FFF7EFBF00BF00007A4438B50546C1
:100C9000FFF7B2FE00242B190134187CFFF79EFEEB
:100CA000042CF8D138BD08B5037D43B18068FFF747
:100CB000C1FD40F24C43984201DD012008BD0020F7
:100CC00008BDFFFF1E4B1A7810B5002A37D072B648
:100CD0001C4CE2696264626DE267D4F88C20C4F84F
:100CE000B420D4F8C420C4F8EC2062B60022164820
:100CF0001A70FFF7D8FF80B104F1BC00FFF79AFD2E
:100D0000642390FBF3F000B209F0A8FB0146D4F88D
:100D10008C0209F0EFFAC4F88C020B48FFF730FFA1
:100D200068B10A4B5A780AB9022200E000225A70D0
:100D3000054B0748197DBDE8104003F075BF10BD95
:100D4000CC92FF1F3094FF1F9092FF1FC092FF1F95
:100D5000AC92FF1F37B54578044615B1012D26D159
:100D600007E0837A5BBB0078012101F091FA01234F
:100D700024E0134B1B680093009A4368D31A02893E
:100D800093421CD9837A23B90078294601F080FA6E
:100D9000A572A37A2BB12078002101F079FA002303
:100DA000A372074B1B680193019B636007E0837A82
:100DB0002BB10078002101F06BFA0023A3723EBD35
:100DC000D097FF1F42788A4208B505D000224280A2
:100DD00041704260FFF7BEFF08BDFFFF08B506483F
:100DE00003F0ACFE10B90548022101E003480021E0
:100DF000FFF7E8FF08BD00BFAC92FF1FC496FF1FBE
:100E000008B50548FFF7A6FF0448FFF7A3FF04480D
:100E1000FFF7A0FF08BD00BFD092FF1FC496FF1FC1
:100E2000C092FF1F1FB50022022113461C4803F089
:100E300059FE1C4B00240522597B03920094019417
:100E4000029418692246682302F07EFF4FF47A70FC
:100E500001F084FA322262238DE80C0064210A2317
:100E600011484FF4C87205F029FF01280ED0062161
:100E7000002281230A4803F035FE0C480C49FFF795
:100E8000F1FE4FF47A7001F069FAF0E704480221AC
:100E90005022234604B0BDE8104003F023BE00BF3B
:100EA000AC92FF1F649AFF1FDC92FF1F9092FF1FFE
:100EB00000007A44FFFFFFFF38B51B4C1B4BC4F802
:100EC0006C31C4F82831C4F8B031C4F8F431C4F836
:100ED0003832C4F87C32164B00251869C4F85C51CE
:100EE000C4F81851C4F8A051C4F8E451C4F8285209
:100EF000C4F86C5208F092FE09A3D3E9002308F06D
:100F0000E1FE00220B4B08F0DDFE09F09DF92560A3
:100F1000C4F88C026560A56038BD00BFAFF30080E7
:100F2000F8C1631ADCA54C403094FF1F0000C07F5D
:100F3000DC92FF1F000059402DE9F04F844885B036
:100F4000FFF7B1FE38B9FFF7B7FF814805B0BDE83C
:100F5000F04FFFF795BE01F0E3F97E4B7E4C1F6822
:100F60007E4D8346C71B04F14C00FFF763FC8246AD
:100F7000686908F053FE74A3D3E9002308F0A2FEC9
:100F80000022774B08F09EFE09F05EF9754901904A
:100F9000286C09F0B7FA009004F11400FFF74AFC3E
:100FA0008146A86908F03AFE67A3D3E9002308F058
:100FB00089FE00226A4B08F085FE09F045F969496F
:100FC0000290E86B09F09EFA0646D4F88C0209F00C
:100FD0005FFC8046286908F021FE5BA3D3E900236B
:100FE00008F070FE00225E4B08F06CFE09F02CF950
:100FF00000210390D4F8380109F018FC002837D0FC
:10100000D4F83C01002109F011FC002830D0D4F8BC
:101010004001002109F00AFC002829D05AE04E4C7A
:101020000021D4F8C00109F001FC00285FD0D4F8F9
:10103000C401002109F0FAFB002858D0D4F8C801F7
:10104000002109F0F3FB002851D0424B4048C3F87F
:1010500000B0414B426859681162026819689B6888
:101060001162C268136205B0BDE8F04FFFF7E2BC41
:10107000384609F0EFF90546504609F0EFF9364CCD
:10108000019A2B46014604F59C70FFF7E1FAD4F86B
:101090005C1109F02DF96060484609F0DFF9029A09
:1010A0002B46014604F1F400FFF7D2FAD4F81811E8
:1010B00009F01EF92060404609F0D0F9039A014674
:1010C0002B4604F5BE70FFF7C3FAD4F8A01109F05F
:1010D0000FF90AE0504609F0C1F96060484609F08E
:1010E000BDF92060404609F0B9F9A06097E738469D
:1010F00009F0B0F9184C009A616805462B4604F5D2
:10110000E070FFF7A5FAD4F85C1109F0F3F8324665
:101110002B466060216804F50170FFF799FAD4F856
:10112000181109F0E7F8A168206032462B4604F553
:101130001270FFF78DFAD4F8A01109F0DBF8A06067
:1011400083E700BFAFF30080F8C1631ADCA54C4011
:101150009092FF1FA892FF1F3094FF1FDC92FF1F89
:10116000000059400000C84210B50446007801F064
:10117000AFF8012803D101F0D3F8606010BD01F091
:10118000CFF86368C01A83B2A360024B01221A70C1
:1011900010BD00BFCC92FF1F0148FFF7E5BF00BFA5
:1011A000EC94FF1F0148FFF7DFBF00BFB494FF1F9F
:1011B0000148FFF7D9BF00BF7C94FF1F0148FFF72C
:1011C000D3BF00BF4494FF1F70B51D4C1D49207D47
:1011D000042200F0E7FE94F84C001B49042200F0C2
:1011E000E1FE94F884001949042200F0DBFE18495E
:1011F00094F8BC00042200F0D5FE002541F29413BF
:10120000E0686387A4F8723084F8385084F870502E
:1012100009F03EFB0646206909F03AFB012384F8F9
:10122000A83044F25063A4F8AA00A4F8AC60A4F873
:10123000AE00A4F8B06084F8E050A4F8E23070BDCD
:101240003094FF1FBD110000B1110000A511000076
:101250009911000000B5154B15481B6889B002A90B
:101260000193019B029301238DF81C30FF238DF81D
:101270001D30104B5A6CADF80C20DA6FADF80E2013
:10128000D3F8B420D3F8EC30ADF81020ADF812301C
:101290000023ADF81430ADF81630ADF81830ADF8C5
:1012A0001A3003F0E7F909B000BD00BFD097FF1F67
:1012B000AC92FF1F3094FF1F10B5174B174C1B68E3
:1012C00088B004F114000193019B0293FFF7B2FA76
:1012D000ADF80C0004F14C00FFF7ACFAADF80E00CD
:1012E00004F18400FFF7A6FAADF8100004F1BC0089
:1012F000FFF7A0FA0023ADF8120002A90848ADF8E4
:101300001430ADF81630ADF81830ADF81A3003F0DF
:10131000F9F908B010BD00BFD097FF1F3094FF1F30
:10132000AC92FF1F1FB50B46044653F8080F5968CF
:1013300001AA03C29A7AA37A9A420ED1074BBDF949
:1013400004205A64BDF90620DA67BDF90820C3F805
:10135000B420BDF90A20C3F8EC201FBD3094FF1F54
:1013600000B50D4B0D481A6989B008A904925A6955
:1013700003929A6902921A6C0692DA6B5B6C059280
:101380000793074B1B680093009B41F81C3D03F03B
:1013900063FC09B000BD00BFDC92FF1FAC92FF1FD1
:1013A000D097FF1F08B5064B1B783BB1FFF7D8FF5E
:1013B000FFF750FFBDE80840FFF77EBF08BD00BF44
:1013C000AC92FF1F13B5044651F8080F8B880090AC
:1013D000ADF804309DF80420A37A9A422FD19DF8ED
:1013E0000530502B08D002D8402B21D104E0C02B6F
:1013F00011D0D02B1CD10EE003222274A27C637486
:1014000002F07F020F4BA2740F4800221A750221CE
:10141000FFF7D8FC0DE004222274A27C637462F012
:101420007F02084BA27401221A7507480021EFE7DA
:101430006374204602B0BDE8104003F07FBB02B0E9
:1014400010BD00BF9092FF1FC092FF1F08B5074854
:10145000FFF71CFCFFF7B8FEFFF7E4FC044B5A78DB
:101460000AB9022200E000225A7008BD9092FF1FC4
:10147000D092FF1F08B5064805F09AFE00F050FF15
:10148000FFF7F6F90348BDE8084003F035BA00BF9E
:10149000DC92FF1FAC92FF1F2DE9F04F804BDFF86D
:1014A0007482DFF874924FF0824C87B0C3F800C0AA
:1014B00002257C4B00244FF47A76284601211D70CA
:1014C0005D701E815C805C609C72CDF814C000F081
:1014D0000BFF754B0B20012118705D701E815C8025
:1014E0005C609C7200F000FF704B5D70704D1E815F
:1014F0000C200026012105F1140B18705C805C6043
:101500009C7200F0F1FE2E606E60AE60EE602E61A7
:101510000321684A684B00945846FFF7C1F805F16B
:101520004C0A012200920421644A654B5046FFF7A1
:10153000B7F80521634A644B009405F18400FFF776
:10154000AFF80621614A604B009405F1BC00FFF73B
:10155000A7F832463346CDF804905D49CDF80080B7
:10156000029405F1F400FEF7CDFF32463346CDF884
:1015700004905749CDF80080029405F59C70FEF761
:10158000C1FF544BCDF80490DFF8909100933246A0
:1015900033464F49029405F5BE70FEF7B3FF4E493E
:1015A0004E4A4F4BCDF80080CDF80490029405F5DB
:1015B000E070FEF7A7FF4849484A494BCDF8008044
:1015C000CDF80490029405F50170FEF79BFFDDF85D
:1015D00014C0444B4449454A0093CDF804C03346F7
:1015E000029405F51270FEF78DFFC5F88C62404835
:1015F000404E06F02DF8404B4049C3F800B005F1CD
:1016000084029A6005F1BC02DA6005221A7406228F
:101610005A7401221C75C3F804A09A74DC74384B08
:101620001C201960374B16E00A2D0CD1BF6900222F
:1016300001E0013292B200FB02F57D5D002DF8D190
:101640001D78521901E01A7801321A70327801348B
:1016500001323270A4B200FB04F28F188D5C002DB1
:10166000E2D103F09BFB274A274B12781D705A7278
:1016700064229A7201221A7451229A745D601D725A
:10168000DD605D74064B186809F028F91F4B9880DF
:10169000FFF71AF91E4B187007B0BDE8F08F00BFB6
:1016A000D496FF1FD092FF1FC496FF1FC092FF1F4A
:1016B0003094FF1F0080834400C0EE4400A0924499
:1016C0000060E944008085440000F2440020864424
:1016D0003333734000A08C469A99193ECDCCCC3D53
:1016E0006F12833B00401C46CDCC4C3E0AD7A33C36
:1016F000DC92FF1FE89EFF1F9092FF1F50BE00006C
:10170000EC9EFF1FE99EFF1FAC92FF1F6487FF1F27
:101710008C92FF1F00A08C450080BB440000A040BD
:10172000F8B5164B164D1A6842F080721A60154BC8
:101730001A6842F001021A60134B2E681C680FE011
:10174000237A63B121682F680B68204698472A687E
:10175000E388D21B12099A42A28088BFE2806469A2
:10176000002CEDD1064B094A1B689B1B1B091380FB
:10177000074A11888B4288BF1380F8BDFCED00E05A
:10178000041000E0001000E0D896FF1FDE96FF1F57
:10179000DC96FF1F08B50368C9B21B68984708BDEF
:1017A00008B50368C9B21B68984708BD08B5036847
:1017B000C9B21B68984708BD08B50368C9B21B6861
:1017C000984708BD084608B500F0D4FE012008BDC2
:1017D000084608B500F0CEFE012008BD38B5084621
:1017E0000D4600F0A5FB04462146284600F00CFFFC
:1017F000204638BD10B508461446114600F004FFD7
:10180000204610BD00F068BF00F0B2BF00F058BF26
:1018100000F080BF00F096BF00F06EBF084600F0F9
:101820008FBE00F061BE480800F1376000F5D83087
:10183000B0FBF1F000F0E8BD480800F1376010B5EA
:1018400000F5D830B0FBF1F0144600F0DDFD204685
:10185000BDE8104000F01EBE7047FFFF044B0022A1
:101860001A711A73034A4FF47A7199601A607047BB
:10187000E096FF1FE0C0000008B50368C9B21B680E
:10188000984708BD08B50368C9B21B68984708BDEA
:1018900008B50368C9B21B68984708BD08B5036856
:1018A000C9B21B68984708BD084608B501F0A0F802
:1018B000012008BD084608B501F09AF8012008BDCE
:1018C00038B508460D4600F033FB0446214628464D
:1018D00001F0D8F8204638BD10B508461446114628
:1018E00001F0D0F8204610BD01F034B901F07EB906
:1018F00001F024B901F04CB901F062B901F03AB934
:10190000084601F05BB801F02DB8480800F13760D7
:1019100000F5D830B0FBF1F000F0B4BF480800F19A
:10192000376010B500F5D830B0FBF1F0144600F088
:10193000A9FF2046BDE8104000F0EABF7047FFFF56
:10194000044B00221A711A73034A4FF47A7199609A
:101950001A607047F096FF1F30C1000008B5036899
:10196000C9B21B68984708BD08B50368C9B21B68AF
:10197000984708BD08B50368C9B21B68984708BDF9
:1019800008B50368C9B21B68984708BD084608B582
:1019900001F068FA012008BD084608B501F062FAB6
:1019A000012008BD38B508460D4600F0C1FA0446CE
:1019B0002146284601F0A0FA204638BD10B5084659
:1019C0001446114601F098FA204610BD01F0ACBA59
:1019D00001F0F6BA01F09CBA01F0C4BA01F0DABA2B
:1019E00001F0B2BA084601F023BA01F0F5B948088F
:1019F00000F1B76000F55840B0FBF1F001F080B99C
:101A0000480800F1B76010B500F55840B0FBF1F0A0
:101A1000144601F075F92046BDE8104001F0B2B956
:101A20007047FFFF044B00221A711A73034A4FF4E8
:101A30007A7199601A6070470097FF1F80C100009B
:101A40002DE9F041002407460D4626463B190A229F
:101A500019792846002300F0B9F82B6880462E211A
:101A60001B682846984701344044032C0644EDD1B6
:101A70002846F9790A22002300F0A8F88019BDE869
:101A8000F081FFFF044B054A1A6000221A715A7157
:101A90009A71DA71704700BF1097FF1FD0C1000024
:101AA00008B5034B01221A60024B1B68984708BD1A
:101AB0000C7103402097FF1F08B5034B01221A60E9
:101AC000024B5B68984708BD1C7103402097FF1FBD
:101AD00008B5034B01221A60024B9B68984708BD6A
:101AE0002C7103402097FF1F08B5034B01221A6099
:101AF000024BDB68984708BD3C7103402097FF1FED
:101B0000054B01221A60054B1A6822F400021A6084
:101B1000034B00221A707047007003403C80044061
:101B20001C97FF1F037B0122591103F01F0302FAC8
:101B300003F3084A42F82130826800231360417899
:101B4000054A5354D15C21B90133042BFAD1FFF774
:101B5000D7BF704780E100E01897FF1F037810B5EA
:101B600004460BB1FFF7DEFF0023237010BD2DE903
:101B7000F04100258AB0074688468C682E4611E061
:101B80002B46404601A9212200F0FEF83B68202C9C
:101B900034BF224620225B68384601A9AD18A41A3A
:101BA00098473618002CEBD130460AB0BDE8F081DA
:101BB00007B5054B1B88ADF80430036801A95B68C5
:101BC000022298470EBD00BFD8C10000F0B50546FF
:101BD0008BB022B90368C9B21B6898472CE0012A70
:101BE00008BF0A2221B930228DF82520212413E0D4
:101BF0002124B1FBF2F002FB1011C9B2092901D86E
:101C0000303100E037310AAF3E1906F8241C014696
:101C100010B1013CE4B2ECE733B1013C0AAAE4B2F2
:101C200013192D2203F8242C2B6801AF5B6828467A
:101C30003919C4F1220298470BB0F0BD002902DA2D
:101C400049422D2300E000230A22FFF7BFBF10B551
:101C50000446FFF783FF204610BDFFFF04480549F7
:101C6000054A002303708023437308F057BE00BF6A
:101C70003097FF1F4F1C00006087FF1F30B5039C8B
:101C8000401AE51A6843521A90FBF2F1C9189942BA
:101C900003DBA142B4BF0B462346184630BD10B546
:101CA0000446006808F084FE204610BD38B504469E
:101CB0000D460068013109F00BFB10B184E82100EA
:101CC000012038BD43688B4210B5044600D306E0BE
:101CD000FFF7ECFF20B1A3680BB922681370012055
:101CE00010BDF8B504460F46154622B9036803B186
:101CF0001A7000230BE01146FFF7E4FF064640B9D7
:101D0000206810B108F054FE266000236360A360D1
:101D100004E0A5602068394609F0F2FD2046F8BDD0
:101D200038B50023044603604360836003730D46A7
:101D300039B1084600F0FCF8294602462046FFF774
:101D4000D0FF204638BD70B504460E4685685AB1AE
:101D500055192946FFF7B6FF30B12068A368314610
:101D6000C01809F0CDFDA560204670BD38B5054608
:101D70000C4639B1084600F0DBF8214602462846F9
:101D8000FFF7E1FF284638BD38B50C469AB191B14E
:101D900081688B4202D30023237038BDCD1A013AEB
:101DA0000168954228BF1546C91820462A4609F001
:101DB00005FE0023635538BD224B60221A70E122D4
:101DC0005A70214B214A1978214B082901D1012150
:101DD00002E00A2907D13921116013221A601D4B34
:101DE00019605A600BE00C291A4901D1352000E036
:101DF0003D20106012221A60174B08601A60174BC2
:101E000017491B78174A03B101230B601360164B67
:101E1000164A1978164B012901D880210CE00429B3
:101E200001D8842108E0082901D8852104E010297F
:101E300001D8862100E08721116019600D4B012235
:101E40001A70704700400740F087FF1F08B003403A
:101E50000CB0034008B00B400CB00B404597FF1F7F
:101E600020B0034020B00B40F187FF1F24B0034097
:101E700024B00B404497FF1F08B5FFF7E7FAFFF7C0
:101E8000F9FA01F0DFFEFAE7024B1A6801321A6034
:101E9000704700BFD097FF1F38B50B4C254623680D
:101EA000580301D501F0F2F92B68590501D500F06E
:101EB0007BFC2B681A0501D500F0B4FE2368DB0417
:101EC000EDD501F087F8EAE73480044008B5FFF764
:101ED000E3FFFFFF014B10221A80704700200540EE
:101EE0007047FFFF024A13681818106018467047C1
:101EF000F487FF1FEFF313839BB9EFF3108098B9BA
:101F0000EFF3058323B10F2B04D9084A985C01E055
:101F10004FF48070EFF311833BB1984228BF18460D
:101F200070474FF0FF30704718467047F0E300E00D
:101F3000002300E00133C25C002AFBD11846704741
:101F400010B50023B0FBF2F402FB1400092801D8FD
:101F5000303000E03730C85420460CB10133F1E78F
:101F6000CA185470224605E0885CCC5C8C54C85476
:101F70000132013B9A42F7DB084610BD084B4FF493
:101F800000021A604FF080721A604FF000721A60FF
:101F90004FF080621A604FF000621A60704700BF15
:101FA00008E100E0212830B521D8042A1FD8DFE855
:101FB00002F00709050B03000B2306E00A2304E0E7
:101FC000082302E00C2300E00923094A02EBC002C7
:101FD000526872B61468074D24F47024146044F0FB
:101FE000807444EA034345F82010136062B630BDA4
:101FF000DCC100004897FF1F094B03EBC0035B687F
:1020000072B61A6822F0877222F4803242F080722F
:102010001A60044B002243F8202062B6704700BFCC
:10202000DCC100004897FF1F114B10B51C68E0048D
:102030001C6004D50F4BDA680AB1DB689847A1042D
:1020400004D50C4B1A690AB11B699847A20604D53E
:10205000084B1A6E0AB11B6E9847E30606D5054B6E
:10206000D3F8842012B1D3F88430984710BD00BF54
:10207000A09004404897FF1F1F4B10B51C68E00359
:102080001C6004D51D4B1A680AB11B689847A10350
:1020900004D51A4B5A680AB15B689847E20704D521
:1020A000164B1A6C0AB11B6C9847A30704D5134B47
:1020B0005A6C0AB15B6C9847200704D50F4B9A6C99
:1020C0000AB19B6C9847610704D50C4BDA6C0AB1D6
:1020D000DB6C9847220304D5084B5A6E0AB15B6E3D
:1020E0009847630306D5054BD3F8802012B1D3F887
:1020F0008030984710BD00BFA0A004404897FF1F44
:102100002C4B10B51C6820071C6004D52A4B5A6A5A
:102110000AB15B6A9847E10604D5274B9A6A0AB16F
:102120009B6A9847620604D5234BDA6A0AB1DB6AD8
:102130009847230604D5204B1A6B0AB11B6B9847AE
:10214000A00604D51C4B5A6B0AB15B6B9847E1079C
:1021500004D5194BDA6B0AB1DB6B9847A20704D59B
:10216000154B9A6D0AB19B6D9847630704D5124BC6
:10217000DA6D0AB1DB6D9847A00504D50E4BDA6E17
:102180000AB1DB6E9847E10504D50B4B1A6F0AB113
:102190001B6F9847620504D5074B5A6F0AB15B6FF6
:1021A0009847230504D5044B9A6F0AB19B6F984753
:1021B00010BD00BFA0B004404897FF1F1E4B10B5D4
:1021C0001C68E0071C6004D51C4B9A680AB19B6828
:1021D0009847210604D5194B5A690AB15B6998479B
:1021E000E20604D5154B9A690AB19B6998476307C3
:1021F00004D5124BDA690AB1DB699847200704D588
:102200000E4B1A6A0AB11B6A9847A10704D50B4BFB
:102210009A6B0AB19B6B9847A20604D5074B1A6DBF
:102220000AB11B6D9847630604D5044B5A6D0AB179
:102230005B6D984710BD00BFA0C004404897FF1FCA
:10224000094B10B51C68A2071C6004D5074B9A6E99
:102250000AB19B6E9847E30704D5044BDA6F0AB1C5
:10226000DB6F984710BD00BFA0D004404897FF1F08
:10227000044B054900221A600A60044A10601022CB
:102280001A60704714D0034004D0034000D00340CC
:10229000212810B518D80D4A52F8303093F88042F2
:1022A0003CB1012211B183F8802010BD83F80021D8
:1022B00010BD02EBC00043681A6811B142F003027E
:1022C00001E022F002021A6010BD00BFDCC1000074
:1022D000212805D8034B53F8303093F8000270479B
:1022E00000207047DCC10000212816D80B4A02EB01
:1022F000C00301295B6852F8302004D182F88012B3
:102300004FF4A27208E0002082F8800211B94FF465
:10231000807201E040F203121A607047DCC10000D5
:1023200072B60B4B0B491A680B4B1B68096862B6F7
:10233000490102D5322A88BF0133C2F5BB32FF32D0
:102340006021B2FBF1F24FF47A7000FB032070477A
:1023500018E000E004ED00E0D097FF1F70B50446E0
:10236000FFF7DEFF05466CB140F2E736FFF7D8FF16
:10237000401BB04203D9013C04D005F57A7501F049
:1023800061FCF3E770BDFFFF10B5FFF7F7FD164BDB
:10239000164A174C00204BF6FF711860596028232D
:1023A0001360936013619361136293621363936389
:1023B000092222600F4C20606160A360236144F811
:1023C000042C0D4C20600D4801600D490B608B60A2
:1023D0000C4B1A60FFF7F0FC0420FFF7BFFFBDE8CD
:1023E000104001F06FBA00BF048003400C8003402E
:1023F000008003400490034004800B4008800B40A1
:102400000C800B4000800B40194B1A6842F480622C
:102410001A60184A00231370174A1370174A137072
:10242000174A1370174A1370174B40F213321A6091
:102430004FF451725A60154BC0F344321A70C0F316
:1024400047125A700221042200F01F0098729A70FD
:10245000D9745A7588221A743C22DA700C4B4022C7
:102460006FF44A711A705B184FF400521A6070478B
:10247000348004405698FF1FD597FF1F5C98FF1FBC
:102480005798FF1FD497FF1F40A0044000A00640AC
:102490002DE400E0134A937800F0030103F0EC030D
:1024A0000B43410748BF43F01003937000F00F0344
:1024B000042B0C4903D18B7943F040038B71537982
:1024C000C20603F0EF03074A48BF43F010035371FD
:1024D0009379800603F0EF0348BF43F01003937134
:1024E000704700BF00A006400E4B1B68580510B592
:1024F00003D410BD01F0A6FB00E00B4C2378002BA9
:10250000F8D10A4A4FF400511160094A0949D370C1
:1025100040F203120A604A60074A1370074A1370B8
:1025200010BD00BF34800440D497FF1F84E100E059
:1025300000A0064040A004405698FF1FD597FF1FFB
:1025400038B5094B04461D78002DFCD120460121E9
:10255000FFF7CAFE20462946FFF79AFE034B53F8C1
:102560003420034B1A6038BDD497FF1FDCC1000034
:102570005898FF1F1D4B1B685A052DE9F04107466F
:1025800031D51B4B1B680BB101221A70194B1A4D28
:102590001C781A4EDFF8688001343F2C88BF002475
:1025A00014E0FFF7A7FC40280CDC33791B060DD59F
:1025B0002B7801333F2B88BF002318F80320F271DA
:1025C0002B7003E0FF2801DD01F03CFB2B78A342D8
:1025D000E7D00B4B1F550B4B01221A70054B1C709B
:1025E000064BBC22DA70BDE8F08100BF34800440A5
:1025F0005898FF1F5C98FF1F5798FF1F00A00640C8
:10260000D697FF1FD497FF1F2DE9F84F254B1B6866
:1026100006465805894642D5234B1B680BB101225B
:102620001A70224DB346AA4632E0214B1C782F780F
:1026300001343F2C88BF0024A74209D01BF8012B8E
:102640001C4B1A551C4B01221A70194B1C701FE0B1
:102650001A4BBC22DA709846FFF74CFC40280FDC7E
:1026600098F8043019060FD52B78124A01333F2B06
:1026700088BF0023D25C88F807208AF8003003E086
:10268000FF2801DD01F0DEFA2B78BB42E4D0D5E76C
:1026900006EB09039B45C8D3084BBC22DA70BDE8A2
:1026A000F88F00BF348004405898FF1F5798FF1FD1
:1026B0005C98FF1FD697FF1FD497FF1F00A006400E
:1026C00010B5044C01E001F0BDFA2378002BFAD1DB
:1026D00010BD00BFD497FF1F054B064A1B7810782A
:1026E000834201D33F3000E00138C01A704700BF79
:1026F0005C98FF1F5798FF1F044B1878044B1B78FA
:10270000984238BF4030C01A704700BF5698FF1F2C
:10271000D597FF1F084B094A19781378994207D0BB
:1027200001333F2B88BF00230549C85C13707047F5
:102730004FF0FF30704700BF5698FF1FD597FF1F1F
:102740001698FF1F074B1A78074B1B789A4206D042
:1027500001333F2B88BF0023044AD05C70474FF001
:10276000FF3070475698FF1FD597FF1F1698FF1F21
:10277000094B1B685B050ED5084BDA7802F0CB02DB
:10278000DA7040225A74DA7842F03402DA70044B7C
:102790001A78044B1A7070473480044000A0064039
:1027A000D597FF1F5698FF1F70B52D4B1A7912F061
:1027B000300F1DD072B6997D21B9DA7940225A7452
:1027C00062B615E062B6274A27481278274D00788E
:1027D0001C46531C3F2B88BF0023E67983421CBF55
:1027E000EE541A46013911F0FF01F2D11D4B1A7057
:1027F0001B4AD37819465BB2002B1BDA13791806F3
:1028000018D51B4B1B4C1D781B4B1B78AB4209D0BA
:1028100001333F2B88BF00231079E05CD071107D1D
:102820000728F3D9144A13700D4B1A79120601D5F3
:102830007C22DA7001F04003DBB27BB1084B1A79DD
:1028400002F04002D2B2194642B10C4B00221A707B
:102850000B4B1B6803B11A703C23CB7070BD00BFDB
:1028600000A006405698FF1FD597FF1F1698FF1F20
:102870005C98FF1FD697FF1F5798FF1FD497FF1F25
:102880005898FF1F184B1A6842F400621A60174AE2
:1028900000231370164A1370164A1370164A1370E9
:1028A000164A1370164B40F213321A604FF45172ED
:1028B0005A60144BC0F344321A70C0F347125A7076
:1028C00000F01F000422022198729A70D9745A7580
:1028D00088221A743C22DA700B4B40221A700B4B80
:1028E0004FF400421A60704734800440C798FF1FBD
:1028F0005E98FF1FD098FF1FC898FF1F5D98FF1FAD
:102900000CB0044000B006402FE400E004E100E019
:10291000134A937800F0030103F0EC030B434107E3
:1029200048BF43F01003937000F00F03042B0C49D1
:1029300003D18B7943F040038B715379C20603F0C6
:10294000EF03074A48BF43F01003537193798106A0
:1029500003F0EF0348BF43F010039371704700BFCB
:1029600000B006400E4B1B68180510B503D410BD0F
:1029700001F068F900E00B4C2378002BF8D10A4AEB
:102980004FF400411160094A0949D37040F2031223
:102990000A604A60074A1370074A137010BD00BFEF
:1029A000348004405D98FF1F84E100E000B00640E1
:1029B0000CB00440C798FF1F5E98FF1F38B5094B45
:1029C00004461D78002DFCD120460121FFF78CFC28
:1029D00020462946FFF75CFC034B53F83420034B99
:1029E0001A6038BD5D98FF1FDCC10000CC98FF1F46
:1029F0001D4B1B681A052DE9F041074631D51B4BCD
:102A00001B680BB101221A70194B1A4D1C781A4E13
:102A1000DFF868800134272C88BF002414E0FFF71A
:102A200069FA40280CDC33791B060DD52B7801336D
:102A3000272B88BF002318F80320F2712B7003E0C6
:102A4000FF2801DD01F0FEF82B78A342E7D00B4B05
:102A50001F550B4B01221A70054B1C70064BBC22F4
:102A6000DA70BDE8F08100BF34800440CC98FF1FCD
:102A7000D098FF1FC898FF1F00B006405F98FF1F47
:102A80005D98FF1F2DE9F84F254B1B68064618057A
:102A9000894642D5234B1B680BB101221A70224D87
:102AA000B346AA4632E0214B1C782F780134272CFC
:102AB00088BF0024A74209D01BF8012B1C4B1A55D4
:102AC0001C4B01221A70194B1C701FE01A4BBC22C0
:102AD000DA709846FFF70EFA40280FDC98F80430B9
:102AE00019060FD52B78124A0133272B88BF0023F4
:102AF000D25C88F807208AF8003003E0FF2801DD67
:102B000001F0A0F82B78BB42E4D0D5E706EB09032F
:102B10009B45C8D3084BBC22DA70BDE8F88F00BFD4
:102B200034800440CC98FF1FC898FF1FD098FF1F27
:102B30005F98FF1F5D98FF1F00B0064010B5044C62
:102B400001E001F07FF82378002BFAD110BD00BF1F
:102B50005D98FF1F054B064A1B781078834201D30E
:102B6000273000E00138C01A704700BFD098FF1F1F
:102B7000C898FF1F044B1878044B1B78984238BF45
:102B80004030C01A704700BFC798FF1F5E98FF1FF4
:102B9000084B094A19781378994207D001333F2B23
:102BA00088BF00230549C85C137070474FF0FF30A1
:102BB000704700BFC798FF1F5E98FF1F8798FF1FD1
:102BC000074B1A78074B1B789A4206D001333F2BEC
:102BD00088BF0023044AD05C70474FF0FF30704735
:102BE000C798FF1F5E98FF1F8798FF1F094B1B6840
:102BF0001B050ED5084BDA7802F0CB02DA704022C2
:102C00005A74DA7842F03402DA70044B1A78044BC2
:102C10001A7070473480044000B006405E98FF1F71
:102C2000C798FF1F70B52D4B1A7912F0300F1DD0C9
:102C300072B6997D21B9DA7940225A7462B615E0EC
:102C400062B6274A27481278274D00781C46531C45
:102C50003F2B88BF0023E67983421CBFEE541A46FF
:102C6000013911F0FF01F2D11D4B1A701B4AD378C4
:102C700019465BB2002B1BDA1379180618D51B4BCB
:102C80001B4C1D781B4B1B78AB4209D00133272B03
:102C900088BF00231079E05CD071107D0728F3D93C
:102CA000144A13700D4B1A79120601D57C22DA7082
:102CB00001F04003DBB27BB1084B1A7902F040020D
:102CC000D2B2194642B10C4B00221A700B4B1B6852
:102CD00003B11A703C23CB7070BD00BF00B006403A
:102CE000C798FF1F5E98FF1F8798FF1FD098FF1F90
:102CF0005F98FF1FC898FF1F5D98FF1FCC98FF1FAC
:102D0000174B1A6842F480521A60164A0023137057
:102D1000154A1370154A1370154A1370154A13702B
:102D2000154A40F2133111604FF451715160134A4A
:102D3000C0F344311170C0F3471100F01F0051700F
:102D40009072937013742C23D3700D4B40226FF448
:102D50004B711A705B184FF400321A60704700BF55
:102D6000348004403B99FF1FD298FF1F4499FF1FF6
:102D70003C99FF1FD198FF1F08C0044000C00640C7
:102D800031E400E0134A937800F0030103F0EC0310
:102D90000B43410748BF43F01003937000F00F034B
:102DA000042B0C4903D18B7943F040038B71537989
:102DB000C20603F0EF03074A48BF43F01003537104
:102DC0009379800603F0EF0348BF43F0100393713B
:102DD000704700BF00C006400E4B1B68D80410B5FA
:102DE00003D410BD00F02EFF00E00B4C2378002B25
:102DF000F8D10A4A4FF400311160094A0949D370E9
:102E000040F203120A604A60074A1370074A1370BF
:102E100010BD00BF34800440D198FF1F84E100E062
:102E200000C0064008C004403B99FF1FD298FF1F16
:102E300038B5094B04461D78002DFCD120460121F0
:102E4000FFF752FA20462946FFF722FA034B53F8C0
:102E50003420034B1A6038BDD198FF1FDCC100003D
:102E60004099FF1F1D4B1B68DA042DE9F04107460E
:102E700031D51B4B1B680BB101221A70194B1A4D2F
:102E80001C781A4EDFF868800134272C88BF002494
:102E900014E0FFF72FF840280CDC33791B060DD522
:102EA0002B780133272B88BF002318F80320F271F9
:102EB0002B7003E0FF2801DD00F0C4FE2B78A34255
:102EC000E7D00B4B1F550B4B01221A70054B1C70A2
:102ED000064BAC22DA70BDE8F08100BF34800440BC
:102EE0004099FF1F4499FF1F3C99FF1F00C00640F7
:102EF000D398FF1FD198FF1F38B54518044603E04B
:102F000014F8010BFFF7AEFFAC42F9D138BDFFFF5B
:102F100010B5044C01E000F095FE2378002BFAD1A7
:102F200010BD00BFD198FF1F054B064A1B781078D3
:102F3000834201D3273000E00138C01A704700BF38
:102F40004499FF1F3C99FF1F044B1878044B1B78D2
:102F5000984238BF4030C01A704700BF3B99FF1FEE
:102F6000D298FF1F084B094A19781378994207D065
:102F700001333F2B88BF00230549C85C137070479D
:102F80004FF0FF30704700BF3B99FF1FD298FF1FE3
:102F9000FB98FF1F074B1A78074B1B789A4206D005
:102FA00001333F2B88BF0023044AD05C70474FF0A9
:102FB000FF3070473B99FF1FD298FF1FFB98FF1F00
:102FC000024B1A78024B1A70704700BFD298FF1F4D
:102FD0003B99FF1F10B5214B1A7902F02002D2B2A3
:102FE0006AB11F4AD8791F491378097801333F2BFA
:102FF00088BF00238B4202D01B49C8541370174A64
:10300000D37818465BB2002B13DA1379190610D562
:10301000164B17491C780B789C4202D16C23D37055
:1030200007E00133272B88BF0023124CE45CD471E6
:103030000B7000F04003DBB27BB1084B1A7902F051
:103040004002D2B2194642B10B4B00221A700B4B10
:103050001B6803B11A702C23CB7010BD00C0064052
:103060003B99FF1FD298FF1FFB98FF1F4499FF1F3A
:103070003C99FF1FD398FF1FD198FF1F4099FF1F56
:103080001FB572B6154B70221A70154A4121117086
:103090000F2102F8011C80221A701A781206FCD542
:1030A000104B186862B6104B984201D80A23584357
:1030B00001A90A22FEF744FF0C48002301AA9A5CEA
:1030C0002AB100EB430101330A2B4A80F6D10133C8
:1030D000064A5B00137005B000BD00BF000002404F
:1030E00007000240080002407F9698008088FF1F7A
:1030F000F0B50C4B0C4C1A7842F0020504EBC506F7
:1031000082F00102706009481A700678002E0CBF28
:103110008827C82747EA014186F0010644F83510A0
:103120000670F0BDB099FF1F0080FF1F289AFF1F97
:10313000431E032B10B510D872B6094A52F823006B
:1031400048B1416842F82310064A018832F813401A
:10315000611A22F8131062B610BD002010BD00BF26
:10316000A099FF1F90A0FF1F013803280BD872B64B
:10317000064B53F82030002001E05B680130002B43
:10318000FBD162B670470020704700BFF499FF1F63
:1031900070B572B6184E194C01239A1912F8012C09
:1031A00002F00802D2B2E2B19900144A54F8315048
:1031B0002DB902EB431308305860114B09E041F080
:1031C000010154F8315065B902EBC1030830586071
:1031D0000C4B42F831300C4B1A78013A1A7062B637
:1031E00070BD0133052BD8D162B6074B00221A708F
:1031F000BDE8704000F0F0BBECC200000080FF1F93
:1032000088004000C80040001E9AFF1F431E032B89
:1032100030B532D84001194A40F01000101872B68B
:10322000174CE25C032A09D8DFE802F01602180501
:103230000830022213E00830042210E01148124A3C
:1032400050F8234014B940F8231002E052F823004C
:10325000416042F823100FE0032200E00522E2540F
:1032600010F0080F01F108030A8843600CBF88239F
:10327000C82343EA0243036062B630BD0080FF1FEB
:103280005C99FF1FF499FF1F049AFF1F2DE9F74F68
:10329000A54EA64C357805F00403DBB2ABB1A44BC8
:1032A0001B7883B1A34A137823B1013BDBB21370BF
:1032B00003B900BEA04A13782BB1013BDBB21370F7
:1032C0000BB900F09DFC0423337005F00802D2B264
:1032D000002A00F08082994B1B781D094FEA930960
:1032E00040F0FE8104EBC903586854F83930C3F349
:1032F0008303013B0C2B00F2F081DFE813F0A901FE
:10330000A901EE01EE01EE01EE01EE01EE01C501B3
:10331000EE01EE01EE010D004368894902684B6041
:10332000884B894844F83930884D0A60002303608F
:103330000120287092B240F28165AA422361A36104
:1033400017D8B2F5D06F80F02C81B2F5817F00F0F4
:10335000DC8006D8802A00F0C280822A40F03D81BD
:10336000C1E040F202339A4200F00C81B2F5A06F46
:1033700016E042F22105AA4200F0678108D8B2F5B2
:10338000086F00F0A680B2F5106F40F026810AE0C9
:1033900042F22120824200F01C8142F221339A4203
:1033A00040F01B811DE18A78614B604D1A702B6AD9
:1033B000180603D5686A083800F00EFB644A083521
:1033C0009542F4D1DFF8B091DFF8B0B10025A846FE
:1033D000CA4655F8090005E04368009300F0FCFA7E
:1033E000009B18460028F7D15A4B4AF8050045F8CB
:1033F0000B00E85807E042680093019200F0ECFAF5
:10340000019A009B10460028F5D15851524BE850C4
:10341000524B23F81800524B18F80320023A032AA3
:1034200008D8DFE802F002040204002200E00122D2
:1034300003F8082008F101080435B8F1040FC8D1D9
:10344000484BDFF83C9100221A7001259846464B04
:1034500005EB0902EB1812F8012C9B001A7002F020
:103460000802D2B23AB300F099FAAB0038B104EBDB
:103470004512083050603D4A44F8332006E044F8D5
:10348000330098F80030013388F8003000F086FAF5
:10349000AB0043F0010338B104EBC30208305060C5
:1034A000284A44F8332006E044F8330098F8003006
:1034B000013388F80030AA0042F00201013542F0E1
:1034C00003020023052D44F8313044F83230BED1D8
:1034D00088E0174B264D1B782B70034685E0244D62
:1034E0002B706B7080E08A88042A00D975E0204D2B
:1034F0002B706B701F4B9200D3181B7803F00203E4
:10350000DBB2002B70D028706EE08A8802F07F0357
:10351000042B62DC4B8803B15FE09100154A8A18E6
:10352000117821F0020156E0802007400080FF1F43
:10353000279AFF1FB199FF1F3C9AFF1F9020074059
:10354000149AFF1FC80040004899FF1F289AFF1FC8
:103550008080FF1FF499FF1F049AFF1F90A0FF1F98
:103560005C99FF1F1E9AFF1F30C8011088004000A1
:103570001F9AFF1FC0200740A099FF1F4C99FF1FF3
:10358000ECC200008A8802F07F03042B25DC4B8804
:1035900003B122E09100A14A8A18117841F002019A
:1035A00019E04A889E4B898853F8085CA3F10C0007
:1035B0009DB133F80CCC944509D133F80ACC8C4535
:1035C00005D1120A032A0CBF2B7803890DE00C33B6
:1035D000EAE78978934A117004E0904B0F221A7041
:1035E00033E000231D4600E002238F4AB2F8069024
:1035F0004B4538BF9946B9F1400F34BFC8464FF02C
:10360000400828464146FFF773FDB9EB08094544D9
:1036100003D1B8F1400F07D017E0B9F1400F34BF24
:10362000C8464FF0400800E0C84628464146FFF72C
:103630005FFDB9EB0809454402D1B8F1400F04D150
:103640007A4B7B4A1D60A2F800900122794B43E03F
:10365000754B1A8842F221039A4211D1764A00230F
:10366000C15C99540133072BFAD1734B1B68862B2D
:1036700002D1724B0F221A7000200146FFF738FD6D
:103680006F4B44F8393028E0684BD3F80080B8F12C
:10369000000F18D0DFF89891B9F800A0BAF1400FE8
:1036A00034BF5546402540462946FFF721FDC5EB6E
:1036B0000A039BB2A9F800300BB9402D01D108EBE9
:1036C00005035A4A1360584B1A88B2F5A06F04D10B
:1036D00000225A709A785B4B1A700122554B6DE0AC
:1036E00004EBC90803F00803D8F80420013DD9B25F
:1036F000A2F10800EDB2002937D000F06DF9524870
:10370000524B50F82510F1B14A6840F8252001F1DC
:103710000802C8F804205A5D032A0BD8DFE802F03B
:1037200002040608032204E0022202E0052200E06F
:1037300004225A5518F0080F0A880CBF8823C823A2
:1037400043EA024342E05A5D032A07D8DFE802F069
:1037500040400204002206E0012204E018F0080FB5
:103760000CBF022203225A5532E054F839301B0CA8
:1037700022F8083C23B322F8061C42F8041C344A01
:10378000344952F8257017B942F8250002E051F883
:1037900025205060304A41F8250032F815105B189A
:1037A00022F8153000F0FAF818B10830C8F8040013
:1037B00006E02A4B44F839001A7801321A7007E003
:1037C0001F4B274A18F0080F08BF134644F839303A
:1037D000082333705EE5E90752D516492048214C8D
:1037E00002230B70204B1A70204B18609860204801
:1037F0001A61D8609A615C60084B0D2018701D48F2
:10380000FF23037000F8083C02741B4A13701B4B23
:103810009F221A7001230B704BE000BFC0200740AD
:10382000FCC200004C9AFF1F149AFF1F4899FF1F0B
:103830001C9AFF1F9420074098A0FF1FB199FF1FFB
:10384000C800400098200740F499FF1F5C99FF1FB3
:10385000A099FF1F4C99FF1F90A0FF1F1E9AFF1FEA
:10386000880040006099FF1FB099FF1F0080FF1F74
:10387000B499FF1F882007408C2007408420074010
:103880002B0605D50C4B0D221A70802203F8402C14
:1038900005F00203DBB22BB1084B1A781A70022232
:1038A00003F8082C05F01005EDB215B1044B1022F9
:1038B0001A70BDE8FE8F00BFC02007408820074077
:1038C0008020074008B5FFF7DBFB00231E491A469E
:1038D0005A50C8180833882B4260F9D11B4B1A681C
:1038E00042F480221A601A4B80221A701978184A02
:1038F0000906FBD4144B1749C3F307200870C3F320
:1039000007401B0E08750B76FF2301F81C3C01F8DD
:10391000143C01F88C3C137843F0400313700021F1
:10392000012302F8783C02F80C1C02F8883C0A4B90
:1039300070226FF4507C1A7063444FF400721A6066
:10394000064B10221A7008BD0080FF1F348004400F
:103950000C2107409C20074049E400E00821074073
:103960000846114600F0AEB8084600F013B900F062
:103970001BB900F07BB800F051B800F095B8704763
:10398000044B00221A711A73034A4FF47A7199603A
:103990001A6070472C9AFF1F50C3000072B60C4A81
:1039A0001168B1FA81F30B2B02D962B6002070477F
:1039B0004FF0004020FA03F021EA0001116062B6E6
:1039C000044948225343C8180022CA504260704735
:1039D0009888FF1F0084FF1F0C4B4822C31AB3FBBB
:1039E000F2F30B2B11D80A4A127822B1094A127845
:1039F0000AB1FFF7CDBB72B6074A4FF0004121FA7A
:103A000003F311681943116062B670470084FF1F09
:103A10001E9AFF1F279AFF1F9888FF1F38B5114C69
:103A200023684BB10F4D28684288811801320C7A07
:103A300001888A4212D30CE00B4B1B7813B94FF06C
:103A4000FF340CE00320FFF773FB20600028E9D16E
:103A5000F5E7FFF7C1FF00232B6000E0428020461E
:103A600038BD00BF489AFF1F279AFF1F10B50C4CA6
:103A700023681BB10A4B1B686BB902E0094B1B782A
:103A800013B94FF0FF3010BD0320FFF751FB20604A
:103A90000028EFD1F5E75A889B18187A10BD00BFAF
:103AA000489AFF1F279AFF1F044B9888044B1B68F6
:103AB0001BB11A885B88D31AC018704790A0FF1FEB
:103AC000489AFF1F2DE9F8432D4B2E4DDFF8C0809B
:103AD00001220C461A7006464BE02B682BBBDFF820
:103AE000A0904AF2F92798F8003013B9244A1370CD
:103AF00014E00420FFF738FB072808D8012389F8D1
:103B00000030FFF74BFF286078B989F80000013FCB
:103B10001D4B01D01A782AB101221A704FF0FF30E4
:103B2000BDE8F88300F08EF8DDE72968164A48887A
:103B300000231370C0F14002944238BF224600F1C6
:103B400008078018CF194880A41A02E0F05CF854E6
:103B500001339342FAD1F6184B883F2B06D9402304
:103B60000B800420FFF752FB00232B60074B05223C
:103B70001A70002CB1D1024B20461C70BDE8F883AE
:103B80003D9AFF1F409AFF1F449AFF1F3C9AFF1F58
:103B9000279AFF1F07B502AB012103F8010D184654
:103BA000FFF790FF0EBDFFFFF8B5114B1B78EBB18F
:103BB000104E114B3468114D01271F704CB16388B2
:103BC00000272F70042023802146FFF71FFB37605A
:103BD00009E0FFF7E3FE014620B104202C70FFF757
:103BE00015FB00E02F70044B00221A70F8BD00BFD7
:103BF000279AFF1F409AFF1F3D9AFF1F3C9AFF1F05
:103C000038B50D4B1D78ADB90C4C216831B14B88DE
:103C100004200B80FFF7FAFA256038BDFFF7BEFEDF
:103C2000014620B10420BDE83840FFF7EFBA044B4D
:103C300001221A7038BD00BF3D9AFF1F409AFF1F36
:103C40003C9AFF1F08B50E4B1A78C2B901221A70B0
:103C5000FFF72AFF08B1FFF792FEFEF74DFD08B10E
:103C6000FDF7FAFDFEF786FF08B1FDF767FEFFF7E7
:103C70006BF908B1FDF7D4FE014B00221A7008BDA4
:103C80004D9AFF1F0369D3F83801D3F83431C01AB5
:103C900070477047014B0360704700BF70C300005E
:103CA0000369D3F84422B2F5817F09D8D3F84422BE
:103CB0009818013280F83C11C3F844220120704763
:103CC0000123037100207047036930B5D3F84442E3
:103CD000B4F5817F1CD8D3F84442D3F84452C4F5DC
:103CE000817401345B19A24203F59E7502D9012348
:103CF00003712246002302E0CC5CEC540133934272
:103D0000FAD10369D3F844125118C3F8441202E0FF
:103D1000012303710022104630BDFFFF0022027113
:103D20000273074A417310B502604FF47A74054A72
:103D300084604FF4187404FB0121016110BD00BFC1
:103D400070C300009C88FF1FF0B59DF814409DF8DB
:103D500018509DF8206029B94C4FD7F800C04CF09E
:103D6000400C06E0012906D1484FD7F800C04CF0BE
:103D7000800CC7F800C0002780F84B7280F84822FA
:103D8000476932B920233B7003681A70C3691A70FF
:103D900014E0002C0CBF202228223A70076801D0C2
:103DA000A34201D25A0000E062003A70C26924B115
:103DB000A34201D2640000E05C0014709DF81C3046
:103DC00040F20362002B40F2646440F2032308BF18
:103DD0004FF4197308BF224671B9012D05D12C4A41
:103DE00080F849521360536018E02A4A80F849125B
:103DF000136042F8043C11E001290FD1032D06D1D4
:103E0000254B80F849521A6043F8042C06E0022240
:103E100080F84922214A13600432136043680A2E55
:103E20001BD8DFE806F01A06080A0C0E101214164A
:103E300018001F2212E01D2210E085220EE014223D
:103E40000CE045220AE00D2208E00B2206E00922E0
:103E500004E0022202E0002200E027221A708369B7
:103E600004221A7090F8482283680AB9802200E080
:103E7000C0221A7011B94FF0807203E0012903D1FA
:103E80004FF00072064B1A60F0BD00BF3480044052
:103E900000A004400CA0044004D0044028B004401A
:103EA00000E100E00369490083F83C110369012245
:103EB000C3F844220022027183F84B227047D0F8E5
:103EC000443210B53BB3C36812221A7083681A7863
:103ED00002F02002D2B20AB1B42209E0C46822780A
:103EE00002F02002D2B2002AF9D180F84822B02292
:103EF0001A70012380F84B320023C0F840328368E7
:103F000080F84A12F0221A70D0F840220369801813
:103F100090F83C211A7010BD30B54AB3C0F8502259
:103F20000022C0F83421C0F83821C268122414706D
:103F30008268147804F02004E4B20CB1B42409E0DF
:103F4000C5682C7804F02004E4B2002CF9D180F884
:103F50004842B024147080F84A320222836880F804
:103F60004B22F0221A704900036941F001011970D7
:103F700030BD036993F84B32043B032B07D8DFE8CD
:103F800003F004020B0402207047042070470079FC
:103F9000003018BF012070470320704790F84B3263
:103FA0006BB190F84B32052B09D090F84B32062BB1
:103FB00005D090F84B02C31F58425841704701206A
:103FC000704770B504460D46FEF7AAF9064620462E
:103FD000FFF7E4FFD0B9002DF9D0FEF7A1F9801B5F
:103FE000A842F4D312E094F84B32022B12D094F88A
:103FF0004B32032B0ED04FF4A073013BFDD194F84C
:104000004B02D0F1010038BF002070BD94F84B3254
:10401000012BE8D1042384F84B32ECE710B50446B9
:104020000AB9002010BDFFF777FF20460299FFF77D
:10403000C8FF0028F5D0D4F8380110BD38B50446C3
:1040400015460069FFF73BFF20692946FFF7B9FFD6
:104050002046BDE83840FFF78CBFD0F83411D0F8C7
:1040600038219142034608D2D0F834218118013218
:1040700091F83000C3F8342170474FF0FF3070479B
:104080000069FFF7EABFD0F83421D0F838319A42FE
:1040900005D2D0F83431C01890F8300070474FF096
:1040A000FF3070470069FFF7EEBFFFFF38B5C1680A
:1040B00083680D781A78044602F02000C0B2002808
:1040C00000F0AB8002F01002D2B2002A4DD094F87A
:1040D0004B22012A1CD115F00105D4F8402206D04C
:1040E00002B927E0062284F84B2280220CE101323B
:1040F000C4F84022D4F844128A4202D384F84B52C6
:104100002CE0D4F840222369A21892F83C21FBE06D
:1041100094F84B22022A1DD105F01002D2B23AB116
:10412000072284F84B2280221A70E36812221EE1D3
:10413000EA0701D50522D6E7032284F84B22D4F8FA
:104140005022012A01D1E82200E0E0221A702369FE
:104150001B780AE194F84B22042AC6D194F84A222B
:10416000012A00D1C1E7B022CEE0D4F83811D4F84A
:1041700050220231914200F0FC8094F84B22042A34
:1041800004D194F85522002A00F0F380D4F83821A5
:10419000D4F8503201329A4280F0EE8094F84B32DB
:1041A000042B40F0F28094F85532002B40F0E4806C
:1041B000EBE084F84B32A368B0221A7023691978B7
:1041C000D4F83831B3F5817F07D8D4F83831E21804
:1041D000013382F83010C4F8383194F84A32012B98
:1041E00005D12023013BFDD1A36880221A7094F8E9
:1041F0004B3207E0D4F83831E118013381F8302030
:10420000C4F8383194F84B32042B40F0AE8094F867
:104210005532002B00F0C280A7E005F01003DBB29E
:1042200033B110230B7005F04003DBB203B99CE0FF
:1042300015F0400150D094F84B32092B04D1D4F83A
:104240005832002B40F0AE8015F004051DD0082335
:1042500084F84B320023C4F84432D4F85C3203B102
:104260009847D4F844320BB984F83C31A368D02283
:104270001A7023691A78520884F84C2294F83C2169
:104280001A700123C4F840326FE094F8492284F890
:1042900054520AB9122002E0012A02D111204549E4
:1042A00003E0022A03D144491E20032203E0032A2B
:1042B00003D141491F20FDF775FE092384F84B32D5
:1042C0000023C4F83831A368C0221A7023691B7810
:1042D0005B0884F84C3248E012F010021ED015F052
:1042E000010513D1D4F84022D4F844329A4207D2BF
:1042F000D4F84032E218013392F83C51C4F840320D
:1043000023691D70A368D0221A702EE0A368C02212
:104310001A7023691B7884F84B1226E084F8542223
:1043200094F849220AB9122002E0012A02D1112090
:10433000204903E0022A03D11F491E20032203E083
:10434000032A03D11C491F20FDF72CFE236919788D
:10435000D4F83831B3F5817F07D8D4F83831E21872
:10436000013382F83010C4F83831E36802221A7041
:1043700038BDE8221A7009E794F84B220023042A7A
:1043800084F855327FF415AF15E723691A78D4F80D
:104390003831B3F5817F7FF62DAF33E7012384F801
:1043A0005532E2E70022C4F83421D4F838019847A6
:1043B0004AE700BF71440000654400000148012144
:1043C000FFF774BEFC8AFF1F01480021FFF76EBE95
:1043D0009C88FF1F10B5C3681B7813F020030446A8
:1043E0001ED180F84B3290F849320BB912200AE006
:1043F000012B01D1112006E0022B01D11E2002E089
:10440000032B02D11F20FDF7F7FDD4F85832002B03
:1044100027D00022C4F83421D4F83801984710BDC1
:1044200090F854320133DBB2012B80F8543213D8A8
:1044300090F84832012B0FD110BD122008E0112056
:10444000012B05D01E20022B02D0032B09D11F20E7
:10445000BDE81040FDF7D0BD94F84932002BEED1F5
:10446000EBE710BD01480121FFF7B4BFFC8AFF1F35
:1044700001480021FFF7AEBF9C88FF1F70B50C4EAE
:104480000C4D0D4C00213046FFF748FC30460B4EDA
:104490002246294606F042FA01213046FFF73EFC4B
:1044A000304629462246BDE8704006F037BA00BFC4
:1044B000649AFF1F953C00006087FF1F509AFF1F02
:1044C0000B88584080EA0010C0B2C20082EA002285
:1044D00082EA132383EA10100880704710B5CA7867
:1044E0000C460632023106F069FDE27806320346D8
:1044F00081182088985423881B124B70E07808306C
:1045000010BDFFFF2DE9F74304469846FE23837054
:10451000E270002317461D4A41718371937902AE00
:104520000371013393714FF6FF73C51C26F8023DEA
:1045300000F1080904E015F8010B3146FFF7C0FF50
:104540004D45F8D12546BDF8063025F8083B94F8CE
:104550000390A9442E461FFA89F904E016F8010BCE
:104560002146FFF7ADFFB3B29945F7D1404621464A
:10457000FFF7A6FFE3782288EA54E378ED18238852
:104580001B126B7007F10800BDE8FE83789AFF1FCD
:10459000F0B589B006460D46BDF83C409DF8381090
:1045A000BDF840000193ADF80840ADF80A008DF861
:1045B0001C102AB9114603A8102206F01FFE0AE0BB
:1045C00003AC02F1100710685168234603C3083298
:1045D000BA421C46F7D101AA05F1080307AF1446F9
:1045E00003CC083343F8080C43F8041CBC422246B1
:1045F000F5D122781A701623EB712846314619221C
:10460000DC2309B0BDE8F040FFF77CBF30B5184BA4
:10461000ADF50D7D1B680293029B04460A4605A872
:104620000DF10701039300F025FC9DF81410039A87
:10463000A57A069206AC07908DF82010049094E8B5
:1046400007004AAB03C31A70FE238DF827312946B1
:1046500009222E2348A8FFF755FF48A92046FFF757
:104660003DFF01462046FFF72DFA0DF50D7D30BDCB
:10467000D097FF1F2DE9F0430B46ADF5077DB3F84A
:1046800008C0B3F80AE0867AB3F80490B3F806805D
:104690009F89DD891C8A588A5A7D1B68097DADF87F
:1046A00008C0ADF80AE0ADF80E500093ADF80490E4
:1046B000ADF80680ADF80C706D46ADF812008DF8BF
:1046C00014108DF815200FCDADF8104044AC0FC478
:1046D00095E8030044F8040B232321808DF80F3163
:1046E00031461622F42342A8FFF70CFF42A9684680
:1046F000FFF7F4FE01466846FFF7E4F90DF5077D84
:10470000BDE8F0832DE9F0430B46ADF5077DB3F826
:1047100008C0B3F80AE0867AB3F80490B3F80680CC
:104720009F89DD891C8A588A5A7D1B68097DADF8EE
:1047300008C0ADF80AE0ADF80E500093ADF8049053
:10474000ADF80680ADF80C706D46ADF812008DF82E
:1047500014108DF815200FCDADF8104044AC0FC4E7
:1047600095E8030044F8040B222321808DF80F31D3
:1047700031461622ED2342A8FFF7C4FE42A968463F
:10478000FFF7ACFE01466846FFF79CF90DF5077D83
:10479000BDE8F08310B5027A437A9342ADF5107DFF
:1047A00004461CD305A90DF1130000F0CBFB227ABF
:1047B0009DF8131001320091617AD2B20346227241
:1047C000019102924CA905AAA07AFFF7E1FE4CA93B
:1047D0000AA8FFF783FE01460AA8FFF773F90DF553
:1047E000107D10BD38B500240546047204E028464B
:1047F000FFF7D0FF0134E4B26B7AA342F7D838BD9B
:10480000F0B5CDB006460C4601F1080305AA01F14A
:10481000180718685968154603C50833BB422A466D
:10482000F7D118680DF11201286006AA0DF11300E6
:1048300000F020FB9DF812200092727A01929DF800
:10484000132003460292214606AAB07AFFF7A0FE83
:1048500021460AA8FFF742FE01460AA8FFF732F9EF
:104860004DB0F0BD2DE9F041CEB006460C4601F149
:10487000080306AA01F1180718685968154603C508
:104880000833BB422A46F7D11868286099889B797B
:10489000A980AB710DF11E000DF1170100F00CFAAB
:1048A000054628B30DF11702069900F0C7FA9DF8E6
:1048B0001710B77A284600F0A7FA05460DF11E003A
:1048C0009DF81780767A00F0C7FB214602900DF123
:1048D0001E022B46CDF8008001963846FFF758FEA1
:1048E00021460CA8FFF7FAFD01460CA8FFF7EAF8ED
:1048F0004EB0BDE8F081FFFFF0B5C7B00646FFF748
:10490000D3F8002800F0E180714DFFF787F8EB78CD
:1049100000220746C4B22A70092B00F28D80DFE81E
:1049200003F0050512221A29303E4F6FFE2C40F08D
:1049300083800223EB70674B0022DA704FF6FF7220
:104940009C701A8078E063492A71CC702046FFF78A
:10495000B7FD042305E05F4920460C71FFF7B0FD69
:104960000323EB7068E05B4920464C71FFF7A8FD1C
:104970000523F6E7574920468C71FFF7A1FD062372
:10498000EFE7544D2046EC712946FFF799FDEA7890
:104990004F4B0AB9082200E00722DA704CE02B796D
:1049A0004C4FFA18013314722B7120463946FFF729
:1049B00087FD2A79FB789A423ED10822444BECE7E6
:1049C000444D454AEB792946D05CFFF779FD2B88A9
:1049D000FFB2DBB29F423E4B0CD000220121FE2CE5
:1049E0001A70D97028D10221D9704FF6FF73EA707E
:1049F0002B8021E00922DA701B79ED182C721BE064
:104A000034490B880122B4EB132F314B0AD0FE2C12
:104A1000DA7011D10222DA700023CB704FF6FF73E7
:104A20000B8009E01A70DA701B79CB1802A85C724F
:104A30004FF4887206F0C2FA254B1978012907D184
:104A4000244A12795A711A8902B95A8101321A819B
:104A50001F4B00229A70002937D09DF80F1014299F
:104A600021D003D849B10B2927D117E0172910D03D
:104A700045291DD0152920D107E001233370174B9C
:104A80001B680193019BF3601FE03046FFF7AAFE0D
:104A90001BE0304602A9FFF7E5FE16E0304602A90A
:104AA000FCF790FC11E0304602A9FFF7A9FE0CE0EC
:104AB000304602A9FCF736FC07E009480A22002329
:104AC000FDF784F80648FDF773F847B0F0BD00BF66
:104AD000789AFF1FA89AFF1F88C30000D097FF1F76
:104AE0002C9AFF1F30B5847C857A0174ADF5077D63
:104AF00023436C4600938374022323710C23637158
:104B000003232372A271E17142749DE8070044AB54
:104B100003C31A7000238DF80F312946092232236E
:104B200042A8FFF7EFFC42A96846FFF7D7FC014611
:104B30006846FEF7C7FF0DF5077D30BD70B51F4B0A
:104B4000ADF5087D1B680193019AC368D31A40F63E
:104B5000B8329342054601D9002300E00123A97C25
:104B60002B702B7C6A7C029102218DF80C108DF841
:104B70000F300C21032302AC8DF810308DF80D108E
:104B80008DF80E2094E8070046AB03C3AE7A1A7086
:104B9000002309228DF817313146322344A8FFF74C
:104BA000B1FC44A92046FFF799FC01462046FEF7D8
:104BB00089FF28780DF5087D70BD00BFD097FF1FD5
:104BC000437CD02B12D004D8C02B07D0C22B0DD1E0
:104BD00006E0D82B06D0DC2B08D105E0402306E008
:104BE000422304E0582302E05C2300E05023437496
:104BF000FFF7A4BF437C502B12D004D8402B07D022
:104C0000422B0DD106E0582B06D05C2B08D105E0D5
:104C1000C02306E0C22304E0D82302E0DC2300E046
:104C2000D0234374FFF78ABF10B50446837C39B1A3
:104C300063F07F03837404230374FFF7DBFF06E054
:104C400003F07F03837403230374FFF7B9FF204647
:104C5000BDE81040FFF772BFF0B50B46ADF5077D1C
:104C60004F688D68CC689A691B68867A08694969BB
:104C700002950394009301976D4604900591069266
:104C80000FCD44AC0FC495E807001E2384E807004D
:104C90008DF80F3131461C22272342A8FFF732FC42
:104CA00042A96846FFF71AFC01466846FEF70AFF6C
:104CB0000DF5077DF0BDFFFF2DE9FF4780468946D2
:104CC0000027264E3EE00A2C08D033685D19681C88
:104CD000414606F027FD002832D12CE0946925E0FA
:104CE0001F4900A8FDF71CF831684919013100A8D7
:104CF000FDF73CF8611C00A8FDF738F80098414624
:104D000006F010FD1C3470B99AF80030BAF814405F
:104D100089F80030114B1B685D1968466B69E4180F
:104D2000FCF7BDFF15E000A8FCF7B9FF2378A24609
:104D3000002BD5D1C9E72B786C6989F8003008E0E1
:104D40000137BFB21C257D4333685C5D5A19002CC6
:104D5000B9D1204604B0BDE8F08700BFEC9EFF1F2C
:104D60001DD30000023810B50C46072815D8DFE81F
:104D700000F0041409140E141413104605F088FDF5
:104D8000207010BD104605F083FD208010BD104638
:104D900005F07EFD206010BD0A6010BD70B50024D6
:104DA0000B4D0C4E0FE023B299005A01521A316894
:104DB000885C092801EB020303D859699A69FFF757
:104DC000D1FF0134E4B22B78A342ECD870BD00BF10
:104DD000E89EFF1FEC9EFF1F70B506460D4600249F
:104DE00008E0092804D8918A92697118FFF7BAFF80
:104DF0000134E4B222B2910053015B1AEA18E85C74
:104E00000028EED170BDFFFF023908B5072911D87F
:104E1000DFE801F0041007100A10100E90F90000EE
:104E200003E0B0F9000000E0006805F017FB08BDE2
:104E3000006808BD004808BD0000C07F1378023B31
:104E400010B504460846072B12D8DFE803F004111A
:104E500008110C11111005F01BFD207010BD05F09C
:104E600017FD208010BD05F013FD206010BD2160EE
:104E700010BDFFFF2DE9F04F002687B081468A461E
:104E80009346B0462D4F4CE00A2B34D195692EE065
:104E90002B49019302A8FCF743FF39680919013136
:104EA00002A8FCF763FF691C02A8FCF75FFF0298E9
:104EB000594606F037FC1C35019B88B91F4A89F812
:104EC000008012681978988A8AF8001014196369AA
:104ED000C018FFF799FF044602A8FCF7E0FE28E09F
:104EE00008F1010802A85FFA88F8FCF7D8FE2A78D2
:104EF0002B46002ACCD1386800190130594606F0FB
:104F000011FC60B90D4B89F800601B681A19195D16
:104F100050698AF80010FFF777FF044609E0013670
:104F2000B6B21C2474433B681A191B5D002BABD12D
:104F30000024204607B0BDE8F08F00BFEC9EFF1FA5
:104F40001DD30000274BD3F800C000232DE9F04704
:104F500081460F461D464FF01C0A37E00A2820D133
:104F60008E6919E01C36954214D10131384606F09D
:104F7000C7FC08F10101384606F0AEFB194B98F862
:104F800000101B68B8F8140089F800101C19636938
:104F9000C01815E00135EDB23078B0460028E1D1F7
:104FA00001E00135EDB293420ED10131384606F0F1
:104FB000A7FC0C4B1B681A19195D506989F8001081
:104FC000BDE8F047FFF720BF01339BB20AFB03F4B3
:104FD0000CEB04011CF804000028BFD10020BDE840
:104FE000F08700BFEC9EFF1F1A4B2DE9F0411E68B1
:104FF00000230C461D464FF01C0C23E00A2A15D155
:105000008A690CE01C32854209D10131204606F044
:1050100077FC2046791CBDE8F04106F05DBB92F8B4
:1050200000801746B8F1000FECD101E00135EDB278
:10503000834205D120460131BDE8F04106F060BC55
:1050400001339BB20CFB03F2B118B25C002AD5D13C
:10505000BDE8F081EC9EFF1F7FB5054600240A4E97
:105060000AE020466946FFF7BFFF2846694606F07A
:1050700059FB28B10134E4B23378A342F1D80024BB
:10508000204604B070BD00BFE99EFF1F07B5154B59
:105090001B6893F824208AB108B1022216E08DF82B
:1050A00007005A681B681078597C01220DF107032C
:1050B00002F0F8FB68B94FF0FF3012E0997A00294E
:1050C000F9D00028EBD0597C51B901228DF8072086
:1050D000E7E7044B9DF807201B6800205A7400E0A6
:1050E00010460EBD4C9FFF1F08B5FBF7FDF908BD2C
:1050F0000A220023FCF76ABD38B50446FBF7F4F931
:1051000005462046FCF754FD281838BD38B504463E
:10511000FCF794FD05462046FCF74AFD281838BDEB
:10512000034B82B01B680193019B036002B0704780
:10513000D097FF1F01281BD80F4B18600F4B2A2256
:1051400002FB00320E4B1A600E4B0E2202FB0032A5
:105150000D4B1A600D4B282202FB00320C4B1A60DB
:105160000C4B382202FB00300B4B186000207047BC
:105170004FF0FF30704700BF30A0FF1FF09EFF1FB1
:10518000489FFF1FA09FFF1FBC9FFF1F509FFF1F37
:10519000449FFF1FC09FFF1F4C9FFF1F4E4B1B686C
:1051A000752210B51A7019225A701A229A700C22A0
:1051B000DA706A221A7123225A711B229A711C22F8
:1051C000DA711F229A722022DA7272221A73742202
:1051D0005A7343229A733B22DA7341221A7438229B
:1051E0005A7439229A743A22DA746B225A756C22F4
:1051F0009A753722DA756F221A7606225A76242299
:105200009A766D22DA766E221A7770225A774922C0
:1052100083F82820012283F8292025229A77262244
:10522000DA77272283F82020282283F821202922D8
:1052300083F822202A2283F82320342283F8242092
:10524000632283F82520642283F82620672283F8CE
:105250002720224A1168224A11B1012906D102E011
:105260001168682001E011686920087011684FF426
:1052700080624A8076220A714FF4AA72CA804FF681
:10528000F7520A814FF480724A8142F266628A8143
:10529000144A126883204FF4006482E81100002051
:1052A000107290721820D072322090810520907375
:1052B0000D4810610D4850610D48012454729061F1
:1052C00050620C4C0C48D46100680C4C14620360B2
:1052D0004160426310BD00BF489FFF1F30A0FF1F09
:1052E000BC9FFF1F449FFF1F000020410000D242CF
:1052F000295C0F3E9A99993E4C9FFF1F3333733FB1
:105300002DE9FF41044610B94FF0FF3078E0036803
:1053100023B9436813B98068002871D03A4D3B4ED9
:105320002B685B6818783388032100930A4602AB28
:1053300002F044FA0028E7D094E80E009DF80A40F5
:105340009DF8088028689DF809702411083404F03D
:105350000F045B004FEA2818403408F108083F1199
:1053600093FBF4F4436808F00F08083749001878F5
:10537000338808F1400807F00F07520091FBF8F856
:105380004037062192FBF7F700930A4602AB02F082
:1053900015FA0028B8D09DF809309DF808109DF83E
:1053A0000A209DF80C0043EA01219DF80B3043EAE6
:1053B00002229DF80D3043EA00234144BA18E31855
:1053C00089B292B29BB241F307208DF809108DF893
:1053D0000B2042F307218DF80D3043F307222B6891
:1053E0008DF80A108DF80C208DF808005B680621F6
:1053F00018780A4602AB02F055FA002884D0002043
:1054000004B0BDE8F08100BF4C9FFF1F668DFF1FF9
:1054100037B55E4D2B689A7A12B94FF0FF30B4E081
:1054200002AC002204F8012D5A681B681078597CE0
:105430000122234602F036FA0028EED02B685A6883
:105440001B68107859790122234602F02BFA0028B4
:10545000E3D02B685A681B6810781979012223461B
:1054600002F020FA0028D8D02B6893F824105A684C
:10547000002944D00C218DF807101B681078197989
:105480000122234602F00EFA0028C6D03220FCF793
:1054900065FFC0238DF807302B689A7AD10702D5B3
:1054A000E0228DF807205A681B68107819790122CC
:1054B0000DF1070302F0F6F90028AED0334B1B685C
:1054C0005A7C02B102228DF807205A681B681078B6
:1054D000597C01220DF1070302F0E4F900289CD069
:1054E00000238DF80730294B1B685A681B68107819
:1054F000597901220DF1070342E0002045E0042123
:105500008DF807101B68107819790122234602F0E4
:10551000C9F9002881D02B689A7C12B99A7AD207EF
:1055200001D4402200E060228DF807205A681B68F1
:105530001078197901220DF1070302F0B3F9002860
:105540003FF46BAF3220FCF709FF104B1B685A7C0D
:1055500002B101228DF807205A681B681078597C27
:1055600001220DF1070302F09DF900283FF455AF29
:10557000064B1B68596853F8102B087851790122A3
:1055800002F090F90028B8D147E73EBD4C9FFF1FBD
:1055900007B51D4B1B689A7A12B94FF0FF3032E005
:1055A000B0F5FA7F0CD002D8FA2828D106E0B0F581
:1055B0007A7F07D0B0F5FA6F21D105E0002204E030
:1055C000082202E0102200E018228DF807209DF842
:1055D00007101A7AB2EBD10F14D05A681B681078F2
:1055E000997901220DF1070302F05CF90028D4D06B
:1055F000054B9DF807201B68D2101A7202E06FF06D
:10560000010000E000200EBD4C9FFF1F07B51C4BA2
:105610001B689A7A12B94FF0FF302FE004280AD0A5
:1056200002D8022826D104E0082806D0102821D16B
:1056300005E0002204E0082202E0102200E0182227
:105640008DF807209DF807105A7AB2EBD10F14D0CD
:105650005A681B681078D97901220DF1070302F00E
:1056600021F90028D7D0064B9DF807201B68D210DF
:105670005A7202E06FF0010000E000200EBD00BF92
:105680004C9FFF1F07B51A4B1B689A7A12B94FF04F
:10569000FF302CE0BB2801D9012210E0612801D99C
:1056A00002220CE0292801D9032208E0132801D99D
:1056B000042204E0092801D9052200E006228DF821
:1056C0000720D97A9DF8072091420FD05A681B68AD
:1056D0001078997801220DF1070302F0E3F8002811
:1056E000D5D0034B9DF807201B68DA7200200EBD51
:1056F0004C9FFF1F13B510B94FF0FF301FE0104C47
:105700002268D3899842F7D86428F5D8B3FBF0F023
:1057100002AB013803F8010D51681268087892F85D
:105720002410012202F0BEF80028E5D023689DF87D
:105730000720D989013291FBF2F21A8500201CBDA5
:105740004C9FFF1F70B5144B1B6893F82420EAB9D7
:105750009C7AECB100F0FE052C401E7C1C74AC421F
:1057600014BF4FF0FF3400240DB9187D20B1012083
:10577000FFF78CFC75B102E0FFF788FC0AE0FFF749
:1057800047FE38B1044B1B681E7401E0002401E0A1
:105790004FF0FF34204670BD4C9FFF1F1FB5104BCC
:1057A0001B689A7A0446A2B15A681B681078997CE3
:1057B0000C4B1B880222009303AB01F0FFFF58B192
:1057C0009DF80C209DF80D3043EA02232380002031
:1057D00004E04FF0FF3001E06FF0010004B010BDB5
:1057E0004C9FFF1F668DFF1F2DE9F043DFF8D4802B
:1057F000D8F8004094F8243085B00546894616460E
:10580000002B4CD0A37A002B4CD063682C4F187817
:105810002368197B3B880222009303AB01F0CEFF83
:10582000002842D09DF80C409DF80D3043EA042436
:10583000AC4204D2002333706FF003003DE0D8F88F
:1058400000305A685188B4EB510F14DD1B68107892
:10585000D97C3B880122009303AB01F0AFFF38B342
:105860009DF80C3003F01003DBB223B1FFF7D0FD3D
:105870006FF0050021E0134B1A685368187813681D
:10588000597B0F4B1B88EAB200934B4601F096FF01
:1058900088B1B4FBF5F4013C347000200DE04FF00A
:1058A000FF300AE06FF0010007E06FF0020004E053
:1058B0006FF0040001E06FF0060005B0BDE8F08372
:1058C000668DFF1F4C9FFF1F30B53C4C23689A7CB0
:1058D000824285B005466ED059681A68384B087800
:1058E0001B881179009301220DF10F033DB301F0E4
:1058F00065FF10B94FF0FF305EE09DF80F3023F0E8
:1059000020038DF80F3023685A681B6810781979C6
:1059100001220DF10F0301F0C5FF0028EAD003209A
:10592000FCF71CFD02238DF80F30236893F822202A
:1059300062B3822228E0214B1B689D743BE001F09A
:105940003DFF0028D6D023689A7A12F0010F9DF807
:105950000F2014BF42F0200222F020028DF80F2009
:105960005A681B681078197901220DF10F0301F0B4
:1059700099FF0028BED00320FCF7F0FC0F4B1B68FA
:1059800093F8222002B180228DF80F2093F8232073
:105990002AB19DF80F2042F030028DF80F205A688E
:1059A0001B681078D97D01220DF10F0301F07AFFF9
:1059B0000028C0D19EE7002005B030BD4C9FFF1FDE
:1059C000668DFF1F13B5194B1B6893F82320824285
:1059D000044625D018B130228DF8072001E08DF85B
:1059E00007009A7C2AB19DF8072042F002028DF848
:1059F000072093F822202AB19DF8072062F07F0249
:105A00008DF807205A681B681078D97D01220DF1A6
:105A1000070301F047FF28B1044B1B6883F82340BC
:105A2000002001E04FF0FF301CBD00BF4C9FFF1F66
:105A300030B510F0700385B0044601D0012302E0B8
:105A400000B100E04023514D8DF80E302B685A68AC
:105A50001B681078597D01220DF10E0301F022FF21
:105A60002B6800B937E09DF80E2022F040021A732F
:105A700004F04002D2B20AB1002200E004228DF804
:105A80000E2004F02002D2B22AB99DF80E2042F076
:105A900002028DF80E2004F01002D2B22AB99DF84D
:105AA0000E2042F001028DF80E2004F00802D2B25E
:105AB0002AB99DF80E2042F038028DF80E205A685F
:105AC0001B681078997D314D01220DF10E0301F014
:105AD000E9FE20B92B6898724FF0FF3054E024B1F2
