:1000000000800020BD010000691B0000691B00008A
:10001000691B0000691B0000691B0000351B000004
:10002000351B0000351B0000351B0000691B00005C
:10003000691B0000351B0000691B0000251B000028
:10004000691B0000691B0000691B0000691B0000A0
:10005000691B0000691B0000691B0000691B000090
:10006000691B0000691B0000691B0000691B000080
:10007000691B0000691B0000691B0000691B000070
:10008000691B0000691B0000691B0000691B000060
:10009000691B0000691B0000691B0000691B000050
:1000A000ED400000E1400000691B0000691B0000FA
:1000B000691B0000691B0000691B0000691B000030
:1000C000691B0000691B0000691B0000691B000020
:1000D000691B0000691B0000691B0000691B000010
:1000E000691B0000691B0000691B0000691B000000
:1000F000691B0000CD240000691B00004929000095
:10010000691B0000F92C0000691B0000691B00003E
:10011000691B0000691B0000691B0000691B0000CF
:10012000691B0000691B0000691B0000691B0000BF
:10013000691B0000691B0000691B0000691B0000AF
:10014000691B0000691B0000691B0000691B00009F
:10015000B9170000D1170000E917000001180000CE
:10016000ED420000B12F0000691B0000691B000078
:10017000691B0000691B0000691B0000691B00006F
:10018000691B0000691B0000691B0000691B00005F
:10019000691B0000691B0000691B0000C51C0000F2
:1001A000151D00009D1D0000591E0000DD1E0000F1
:1001B000691B0000691B000039140000544B4CF20D
:1001C000205210B51A804DF628121A8000BF00BFC9
:1001D00001F0CEFC4F4B4FF010621A604E4A9A600D
:1001E0004E4ADA604E4B1A6812F4807204D14D49BF
:1001F0000A604FF4A8521A604B4B1A7802F00802BA
:10020000D2B21AB11A7842F008021A70474B484825
:10021000484C2A221A700023474A02E01959995083
:10022000043399188142F9D3444B454A002101E037
:1002300043F8041B9342FBD34249434800231A5816
:100240005A500433B3F5DE7FF9D1404B404A802148
:1002500003F8011B9342FBD13A4A3E4B1A603E4BD6
:100260000A221A703D4B24221A70A02203F8012C96
:100270003B4A137803F00203DBB2002BF9D0384A73
:10028000137803F01003DBB2002BF9D1344A137852
:1002900003F00C03082BFAD1324B03221A704022D0
:1002A0005A702F4A137803F02003DBB2002BF9D0E9
:1002B0002B4A137803F04003DBB2002BF9D02A4B12
:1002C0002A4A1A6002225A60294B20221A70244AB4
:1002D000137803F00C030C2BFAD1264A264B1A6034
:1002E000264B274A1A60072243F8042C62B601F015
:1002F0008DFE0C4B1B68DC0702D5224801F006FE80
:1003000007F018FC01F03AFC01F004FCFEE700BF26
:100310000E20054030800440823F04000100002B85
:1003200010D0034014D0034002D0074000E0074043
:100330002C92FF1FE09F00006087FF1F3092FF1F7D
:10034000F89DFF1F0082FF1F0000000000E400E096
:100350005FE400E008ED00E0005006400140064088
:10036000064006400440064044800440000003016B
:1003700000400640C01005000480044014E000E086
:10038000FF760100F51A6351FFFFFFFFFFFFFFFF3C
:10039000FFFFFFFFFFFFFFFFFFFFFFFFFFFFFFFF6D
:1003A000FFFFFFFFFFFFFFFFFFFFFFFFFFFFFFFF5D
:1003B000FFFFFFFFFFFFFFFFFFFFFFFFFFFFFFFF4D
:1003C000FFFFFFFFFFFFFFFFFFFFFFFFFFFFFFFF3D
:1003D000FFFFFFFFFFFFFFFFFFFFFFFFFFFFFFFF2D
:1003E000FFFFFFFFFFFFFFFFFFFFFFFFFFFFFFFF1D
:1003F000FFFFFFFFFFFFFFFFFFFFFFFFFFFFFFFF0D
:10040000FFFFFFFFFFFFFFFFFFFFFFFFFEFFFFFFFD
:1004100008B549F22C20074BC1F6FF701B1A062BBA
:1004200000D808BD40F20003C0F20003002BF8D052
:100430009847F6E72F92FF1F08B549F22C2049F2A2
:100440002C23C1F6FF70C1F6FF731B1A9B1003EB40
:10045000D373591000D108BD40F20002C0F200026F
:10046000002AF8D09047F6E710B549F23024C1F6DB
:10047000FF74237873B9FFF7CBFF40F20003C0F29B
:1004800000032BB149F6E070C0F20000AFF300802A
:100490000123237010BD00BF08B540F20003C0F275
:1004A00000034BB149F6E07049F23421C0F200007C
:1004B000C1F6FF71AFF3008049F22C20C1F6FF7046
:1004C00003682BB140F20003C0F2000303B1984768
:1004D000BDE80840B0E700BF38B5054CA4F1C00541
:1004E00004F11C00303C01F03FFAAC42F8D138BDB9
:1004F0001093FF1F38B5044608460D4601F066FB11
:10050000236802465B6820462946984738BD08B5EF
:10051000FFF7F0FF08BD38B50446FFF7EBFF0546CF
:10052000204601F0B1F9281838BDF8B545680446F1
:100530000F4628460021164607F08EFAD8B92846FD
:10054000394607F0F5F8314607F0F2F8616906F030
:10055000E7FFE56860612946064607F0A5FA00B1A5
:1005600006E005F100453046294607F07FFA00B164
:1005700065616069F8BD0020F8BDFFFFF8B504466D
:100580001746456A0E460846A16906F0C7FF394678
:1005900007F082F9294606F0C1FF064907F0C8F8BE
:1005A0000146284606F0BCFFA6616062A16807F01C
:1005B000BFF8F8BDA48E0E3F2DE9F041984690F8A3
:1005C000283006460F46002B32D0104606F03CFC81
:1005D000044638460D4606F037FC17A3D3E900233E
:1005E00006F086FC0B4602462946204606F0CCFA69
:1005F00006F040FFF061404607F042F804463946F5
:1006000022463046FFF7BAFF22463062F169304693
:10061000FFF78BFFF16970610446306807F088F8D6
:10062000214606F07DFF316A06F07AFFBDE8F081D1
:100630000020BDE8F08100BFF8C1631ADCA54C4082
:100640001FB5204B002204460220597B00920192E4
:10065000029203901869682303F008FA4FF47A7045
:1006600001F0BEFC204604F06EFD204604F0BCFD07
:10067000607620B3204604F0D7FF003018BF012079
:1006800020766FF00E01204604F0F0FD2046052193
:1006900004F006FE20464FF0FF3104F01BFE20461A
:1006A0006FF44B7104F0BEFD204640F6C76104F0C4
:1006B000BEFD204640F26B5104F0BEFD607E04B0EA
:1006C00010BD00BFF898FF1F037E10B5044673B934
:1006D000012104F004FE01232376204605F008FDE5
:1006E00060834FF4FA70BDE8104001F079BC064910
:1006F0000648FFF70CFF217E044801F00BF9034880
:100700000349FFF708FFFEE72C900000C098FF1F89
:100710004D9000002DE9F04786B004461746884604
:100720001E46DDF838A004F0ADFC0546204604F076
:100730002BFD05F01002D2B2A4F89C0012B9B0F55E
:10074000806F05D1204606B0BDE8F04704F0E0BC5C
:1007500005F00205EDB2002D4ED0628B904205D21D
:10076000204604F011FDA4F89C0045E004F11C05AE
:1007700020462946D2B204F019FDB4F89C20638BC0
:10078000CDF80080D31AA4F89C3008F1020301933D
:1007900008F104030293B31C0493331DBA1C04F143
:1007A000A009059320463B1D3946039604F0AAFC98
:1007B00049462A46204605F070FB41462A46204617
:1007C00005F098FB39462A4604F1B007204605F0AB
:1007D00033FB39464A46204605F0B4FB51464A46AB
:1007E00020463B4605F0FBFB204631462A4606B034
:1007F000BDE8F04705F091BB06B0BDE8F087FFFF0C
:100800002DE9F04104460025984605604FF47A73BF
:1008100045608560C56005610025038483840E46BC
:10082000217585610577C58345840B49174604F01A
:1008300065FA3046294601F099FB3946C4F808802C
:100840002760404606F06CFE4FF07C5106F070FFCA
:1008500060602046BDE8F0815891000010B501218C
:100860000446034A007D01F04FFCA06110BD00BFAB
:1008700040420F002DE9F3413E4C04F11400FFF714
:10088000EDFF04F13C00FFF7E9FF04F16400FFF71E
:10089000E5FF04F18C00FFF7E1FFE06FD4F8A470EE
:1008A000D4F88C60D4F89C5006F0EEFE616F804660
:1008B000606E06F035FE0146404607F0D7F8C0B13D
:1008C000384606F0E1FE29460446304606F028FE8A
:1008D0000146204607F0CAF858B1274B1A785AB992
:1008E00001221A70254B1B680093009A244B1A6052
:1008F00002E0214B00221A70204B1B680193204B11
:10090000019A1B68D21A40F6B8339A422FD91A4B73
:100910001B78DBB92BE01B48802104F053F9194800
:10092000D02104F04DF91748042109E01548802131
:1009300004F04CF91348502104F042F91148032106
:1009400004F049F90C4B00221A7010E00E4C0F49CC
:1009500023780F4883F001032370FFF7CBFD0C4889
:10096000217800F0D7FF2378002BD4D1DEE7BDE853
:10097000FC8100BF5493FF1F4F92FF1F6496FF1F1F
:100980004093FF1F5C92FF1F4D92FF1F4F9000008E
:10099000C098FF1FF7B50446806906F075FE25680C
:1009A0002946064607F062F808B1284608E0A7681D
:1009B0003046394607F078F808B1384600E030464E
:1009C00007F07CF821690646284606F0A9FD07F0E5
:1009D00075F836B200B2B04211DA284607F06EF868
:1009E0000546A06807F06AF8B4F91E10B4F9203083
:1009F000009102462946304600F0ACFF01E04FF47A
:100A00007A7000B2FEBD2DE9F041056947682946BC
:100A10000446384606F082FD07F050F806B230462C
:100A200006F032FE216806F079FD0021804607F0CD
:100A300013F848BB2946384606F072FD07F03EF829
:100A400005B2284606F020FE0146A06806F066FDC5
:100A50000021074607F000F8B0B919E0B4F91E20EC
:100A60005D1B3846554307F029F895FBF0F00CE084
:100A7000B34209DAB4F91E209E1B4046564307F0E4
:100A80001DF896FBF0F000E0002000B2BDE8F08118
:100A9000A369AB42ECDDE1E7037F0BB9FFF7B3BF1E
:100AA000FFF778BF38B504468088A1600D4606F090
:100AB000EBFD0146284606F033FDE06038BD10B579
:100AC00004460846E16806F0E5FF00B1207C10BD51
:100AD0004FF47A732DE9F047B0FBF3F006F0D0FD48
:100AE00000240546DFF83C900D4E4FF0140A10E04C
:100AF0000AFB04F806EB080738462946FFF7DFFF34
:100B000030B158F80630984738462946FFF7CAFFF3
:100B1000013499F800309C42EADBBDE8F08700BF61
:100B20006487FF1F4C92FF1F0020054A142101E03B
:100B30000130C0B201FB00F3D358002BF8D170474D
:100B40006487FF1F0F4B70B500220546E5E80223BE
:100B5000044628460E4603F045FB4FF4FA63236132
:100B60004FF47A73636104F11C00074900F03DFF04
:100B70000023E362A6612846314603F09FFB20462E
:100B800070BD00BF00408F404C9000002DE9F04147
:100B90001946074614461D4610460023002206F05B
:100BA0002DFC30B1204629460022364B05F0EEFFE1
:100BB00005E0204629460022324B05F0E5FF06F00D
:100BC00031FC7E69B04201DA304630E020462946E9
:100BD0000022002306F012FC30B1204629460022F4
:100BE000284B05F0D3FF05E0204629460022254B7F
:100BF00005F0CAFF06F016FC3B69984201DD184675
:100C000015E0204629460022002306F0F7FB30B10C
:100C10002046294600221B4B05F0B8FF05E0204680
:100C200029460022174B05F0AFFF06F0FBFB06F04C
:100C3000F9F8B84604460D463046E8E8024506F0A5
:100C4000F1F806460F462046294632463B4606F056
:100C5000C1FB10B13046394608E020462946002243
:100C6000094B06F0D5FB28B92046294606F0DAFBE9
:100C7000014601E04FF4C8614046BDE8F04103F091
:100C800023BB00BF0000E03F000099402DE9F04188
:100C9000094D0E4600243027304606F0D5F807FBF4
:100CA000045802460B4640460134FFF76FFF042C00
:100CB000F2D1BDE8F08100BF8092FF1F37B54578C3
:100CC000044615B1012D26D107E0837A5BBB00787D
:100CD000012101F02BF9012324E0134B1B68009341
:100CE000009A4368D31A028993421CD9837A23B9A4
:100CF0000078294601F01AF9A572A37A2BB1207861
:100D0000002101F013F90023A372074B1B68019324
:100D1000019B636007E0837A2BB10078002101F02A
:100D200005F90023A3723EBD6496FF1F08B50B486A
:100D300003F06AFD03460A482BB94278022A0BD019
:100D40004380022204E0437833B100231A464380F3
:100D500042704360FFF7B2FF08BD00BF5C92FF1F07
:100D60007092FF1F08B50548FFF7A8FF0448FFF77A
:100D7000A5FF0448FFF7A2FF08BD00BF4493FF1F73
:100D80007092FF1F5092FF1F01460148FFF77EBF80
:100D90004D92FF1F002210B50F480221134603F0A9
:100DA00006FD0E48FFF74CFC68B90621002281239E
:100DB000094803F0FCFC0A48FFF7E6FF4FF47A709D
:100DC00001F00EF9F1E70448022150220023BDE8AA
:100DD000104003F0ECBC00BF5C92FF1FB094FF1FFB
:100DE00000007A442DE9F743DFF888801F4CD8F8DB
:100DF00000301F4D009304F11400009ED4F84071A0
:100E0000FFF74AFE06F040FC2B6802463946F31A0B
:100E100004F1B400FFF7D0FB206004F13C00D4F8EB
:100E20003C91FFF739FE06F02FFC2B6804F1E00738
:100E300002464946F31A3846FFF7BEFB606004F1EC
:100E40008C00D4F83891FFF727FE06F01DFC2B68C4
:100E50000246F31A38464946FFF7AEFBD8F8003091
:100E6000A0600193019B2B60BDE8FE835493FF1F9C
:100E70005093FF1F6496FF1F70B5114C2D23002562
:100E8000E0686386A4F85A3084F8305084F85850EB
:100E900006F014FE0646206906F010FE012384F8D1
:100EA0008030B423A4F88200A4F88460A4F88600FB
:100EB000A4F8886084F8A850A4F8AA3070BD00BFD8
:100EC0005493FF1F00B5144B14481B6889B002A946
:100ED0000193019B029301238DF81C30FF238DF8B1
:100EE0001D300F4BDA6AADF80C205A6DADF80E20AC
:100EF000DA6FD3F8A430ADF81020ADF8123000232B
:100F0000ADF81430ADF81630ADF81830ADF81A3031
:100F100003F00CFB09B000BD6496FF1F5C92FF1F3D
:100F20005493FF1F10B5174B174C1B6888B004F182
:100F300014000193019B0293FFF7AEFDADF80C0086
:100F400004F13C00FFF7A8FDADF80E0004F16400C9
:100F5000FFF7A2FDADF8100004F18C00FFF79CFD37
:100F60000023ADF8120002A90848ADF81430ADF81E
:100F70001630ADF81830ADF81A3003F01FFB08B08A
:100F800010BD00BF6496FF1F5493FF1F5C92FF1FAC
:100F900010B5134C88B0D4F83831B4F94601049335
:100FA000D4F83C310393D4F84031029306F06CFB43
:100FB0000690B4F9440106F067FB0590B4F94801C6
:100FC00006F062FB074B07901B6807480093009BE5
:100FD00008A941F81C3D03F080FD08B010BD00BF1A
:100FE0005493FF1F6496FF1F5C92FF1F7FB5154B44
:100FF0001548B3F84A21ADF80420B3F84C21ADF8F8
:101000000620B3F84E21ADF80820B3F84421ADF81E
:101010000A20B3F84621ADF80C20B3F84821ADF80A
:101020000E20B3F85021ADF81020B3F85221B3F8D8
:101030005431ADF812206946ADF8143003F07CFD50
:1010400007B000BD5493FF1F5C92FF1F08B5FFF768
:101050009FFFFFF7CBFFFFF735FFBDE80840FFF725
:1010600061BFFFFF034651F8080F82B08A880090E5
:10107000ADF804209DF804109A7A914225D19DF88C
:101080000520502A08D002D8402A19D104E0C02AED
:101090000DD0D02A14D10AE003211974997C5A7416
:1010A00001F07F0199740021094A117009E00421BF
:1010B0001974997C5A7461F07F0199740121F3E7E6
:1010C0005A74184602B003F09FBB02B0704700BFCD
:1010D0004D92FF1F10B5084803F0F6FC074B0024A3
:1010E0005C70FFF7C9FEFFF755FE0548FFF7ECFA05
:1010F000044B5C7010BD00BF5C92FF1F7092FF1F1D
:10110000B094FF1F4493FF1FFFF7E4BF07B50D4BDB
:101110000D4803F59C7203F5A271009203F5A572C8
:1011200003F5A873FFF7F6FAFFF75CFE00F03AFF4D
:10113000FFF7CEFC054803F0D1FB03B05DF804EBEC
:10114000FFF710BE5493FF1FB094FF1F5C92FF1F68
:101150002DE9F84314219C48DFF8D892FFF7F2FC00
:1011600015219A48FFF7EEFC17219948FFF7EAFC92
:1011700016219848FFF7E6FC974A9849002006F0A8
:10118000C3FC0224964B00264FF47A7520460121B9
:101190001C705C701D815E805E609E7200F0E6FED9
:1011A000904B0B20012118705C701D815E805E6089
:1011B0009E7200F0DBFE8C4B5C708C4C1D810C2011
:1011C0000025012118705E805E609E7200F0CEFEE8
:1011D00025606560A560E5602561032104F11400C8
:1011E000834A844BFFF70CFB042104F13C00824A44
:1011F000824BFFF705FB052104F16400804A814B17
:10120000FFF7FEFA4FF001087F4B804A062104F1F8
:101210008C00FFF7F5FAC4F8B450C4F8B850C4F81D
:10122000BC50C4F8C050C4F8C850C4F8CC50C4F87E
:10123000D050C4F8D450C4F8D85004F1B400C4F865
:10124000C46084F8DC80724903F058FDC4F8B450DF
:10125000C4F8B850C4F8BC50C4F8E050C4F8E45026
:10126000C4F8E850C4F8EC50C4F8F450C4F8F8508E
:10127000C4F8FC50C4F80051C4F8045104F1E00073
:10128000C4F8C090C4F8F06084F80881604903F0A5
:1012900035FDC4F8E050C4F8E450C4F8E850C4F890
:1012A0000C51C4F81051C4F81451C4F81851C4F8C2
:1012B0002051C4F82451C4F82851C4F82C51C4F862
:1012C000305104F586705249C4F8EC90C4F81C61A2
:1012D00084F8348103F012FDC4F80C51C4F81051A5
:1012E000C4F81451C4F83851C4F83C51C4F8405102
:1012F000C4F81891A4F84461A4F84661A4F84861C0
:10130000A4F84A61A4F84C61A4F84E61A4F85061B5
:10131000A4F85261A4F854613E4C204603F06AFEE2
:101320004FF07E53C4F8A0303B4B3C491E705E70BA
:101330003B4BC4F8A450C4F8A850C4F8AC50C4F84F
:10134000B050C4F8B450C4F8B850196084F818808C
:1013500066766683A4F89C601C20324B324D16E002
:101360000A2C0CD1BF69002201E0013292B200FBCD
:1013700002F43C5D002CF8D11C78121901E01A78B7
:1013800001321A702A78013601322A70B6B200FB97
:1013900006F28F188C5C002CE2D103F091FC214AFC
:1013A000224B12781C705A7264229A7201221A74AB
:1013B00051225C601C72DC605C749A74FFF7B4FBB1
:1013C0001B4B1870BDE8F8838092FF1FB092FF1F7F
:1013D000E092FF1F1093FF1F6087FF1FD9040000DA
:1013E0004493FF1F7092FF1F5092FF1F5493FF1FE3
:1013F00000C08A440020F744008090440060E84424
:10140000006089440000F4440020F44400E0874474
:10141000CC900000B094FF1F4D92FF1FC08E0000C3
:10142000AC9DFF1FAB9DFF1FAA9DFF1F5C92FF1F7E
:101430004C92FF1F00004842F8B5164B164D1A6833
:1014400042F080721A60154B1A6842F001021A606D
:10145000134B2E681C680FE0237A63B121682F6854
:101460000B68204698472A68E388D21B12099A42E3
:10147000A28088BFE2806469002CEDD1064B094A46
:101480001B689B1B1B091380074A11888B4288BF6E
:101490001380F8BDFCED00E0041000E0001000E057
:1014A0006C95FF1F7295FF1F7095FF1F08B50368AD
:1014B000C9B21B68984708BD08B50368C9B21B6864
:1014C000984708BD08B50368C9B21B68984708BDAE
:1014D00008B50368C9B21B68984708BD084608B537
:1014E00000F0DAFE012008BD084608B500F0D4FE81
:1014F000012008BD38B508460D4600F067FB0446DC
:101500002146284600F012FF204638BD10B5084697
:101510001446114600F00AFF204610BD00F06EBFD1
:1015200000F0B8BF00F05EBF00F086BF00F09CBFC7
:1015300000F074BF084600F095BE00F067BE480892
:1015400000F1376000F5D830B0FBF1F000F0EEBDEF
:10155000480800F1376010B500F5D830B0FBF1F065
:10156000144600F0E3FD2046BDE8104000F024BE24
:101570007047FFFF044B00221A711A73034A4FF49D
:101580007A7199601A6070477495FF1F0892000085
:1015900008B50368C9B21B68984708BD08B5036859
:1015A000C9B21B68984708BD08B50368C9B21B6873
:1015B000984708BD08B50368C9B21B68984708BDBD
:1015C000084608B501F0A6F8012008BD084608B590
:1015D00001F0A0F8012008BD38B508460D4600F01E
:1015E000F5FA04462146284601F0DEF8204638BDCB
:1015F00010B508461446114601F0D6F8204610BD35
:1016000001F03AB901F084B901F02AB901F052B9F8
:1016100001F068B901F040B9084601F061B801F085
:1016200033B8480800F1376000F5D830B0FBF1F06E
:1016300000F0BABF480800F1376010B500F5D830A7
:10164000B0FBF1F0144600F0AFFF2046BDE81040BB
:1016500000F0F0BF7047FFFF044B00221A711A73AD
:10166000034A4FF47A7199601A6070478495FF1F9E
:101670005892000008B50368C9B21B68984708BDB6
:1016800008B50368C9B21B68984708BD08B5036868
:10169000C9B21B68984708BD08B50368C9B21B6882
:1016A000984708BD084608B501F06EFA012008BD4C
:1016B000084608B501F068FA012008BD38B50846AB
:1016C0000D4600F083FA04462146284601F0A6FAAA
:1016D000204638BD10B508461446114601F09EFA62
:1016E000204610BD01F0B2BA01F0FCBA01F0A2BA76
:1016F00001F0CABA01F0E0BA01F0B8BA084601F048
:1017000029BA01F0FBB9480800F1B76000F558406C
:10171000B0FBF1F001F086B9480800F1B76010B5F0
:1017200000F55840B0FBF1F0144601F07BF920467B
:10173000BDE8104001F0B8B97047FFFF044B00222C
:101740001A711A73034A4FF47A7199601A607047DC
:101750009495FF1FA89200002DE9F0410024074650
:101760000D4626463B190A2219792846002300F027
:1017700099F82B6880462E211B682846984701342B
:101780004044032C0644EDD12846F9790A2200236F
:1017900000F088F88019BDE8F081FFFF044B054A8E
:1017A0001A6000221A715A719A71DA71704700BF7B
:1017B000A495FF1FF892000008B5034B01221A60A0
:1017C000024B1B68984708BD0C710340B495FF1F7E
:1017D00008B5034B01221A60024B5B68984708BDAD
:1017E0001C710340B495FF1F08B5034B01221A601A
:1017F000024B9B68984708BD2C710340B495FF1FAE
:1018000008B5034B01221A60024BDB68984708BDFC
:101810003C710340B495FF1F054B01221A60054B34
:101820001A6822F400021A60034B00221A707047F3
:10183000007003403C800440B095FF1F037B0122F1
:10184000591103F01F0302FA03F3084A42F821304A
:101850008268002313604178054A5354D15C21B952
:101860000133042BFAD1FFF7D7BF704780E100E0C6
:10187000AC95FF1F037810B504460BB1FFF7DEFFF0
:101880000023237010BDFFFF07B5054B1B88ADF883
:101890000430036801A95B68022298470EBD00BFAF
:1018A00000930000F0B505468BB022B90368C9B2B9
:1018B0001B6898472CE0012A08BF0A2221B9302270
:1018C0008DF82520212413E02124B1FBF2F002FB46
:1018D0001011C9B2092901D8303100E037310AAFFF
:1018E0003E1906F8241C014610B1013CE4B2ECE7B5
:1018F00033B1013C0AAAE4B213192D2203F8242CB7
:101900002B6801AF5B6828463919C4F12202984759
:101910000BB0F0BD002902DA49422D2300E000237C
:101920000A22FFF7BFBF10B50446FFF7A3FF20460A
:1019300010BDFFFF04480549054A002303708023BA
:10194000437306F0E1B800BFC495FF1F27190000DC
:101950006087FF1F10B5029C401AE41A4443521AD4
:1019600094FBF2F0C01810BD10B50446006806F0F4
:1019700015F9204610BD38B504460D460068013102
:1019800006F09CFD10B184E82100012038BD4368B9
:101990008B4210B5044600D306E0FFF7ECFF20B100
:1019A000A3680BB922681370012010BDF8B5044676
:1019B0000F46154622B9036803B11A7000230BE0E5
:1019C0001146FFF7E4FF064640B9206810B106F063
:1019D000E5F8266000236360A36004E0A56020684A
:1019E000394607F083F82046F8BD38B50023044691
:1019F00003604360836003730D4639B1084600F00D
:101A0000E5F8294602462046FFF7D0FF204638BDBC
:101A100070B504460E4685685AB155192946FFF738
:101A2000B6FF30B12068A3683146C01807F05EF8F1
:101A3000A560204670BD38B505460C4639B108464C
:101A400000F0C4F8214602462846FFF7E1FF284689
:101A500038BDFFFF224B60221A70E1225A70214BE1
:101A6000214A1978214B082901D1012102E00A29D4
:101A700007D13921116013221A601D4B19605A6079
:101A80000BE00C291A4901D1352000E03D201060FF
:101A900012221A60174B08601A60174B17491B78FF
:101AA000174A03B101230B601360164B164A1978CD
:101AB000164B012901D880210CE0042901D884218A
:101AC00008E0082901D8852104E0102901D88621E1
:101AD00000E08721116019600D4B01221A707047D8
:101AE00000400740B487FF1F08B003400CB003401C
:101AF00008B00B400CB00B40D995FF1F20B003403D
:101B000020B00B40B587FF1F24B0034024B00B402A
:101B1000D895FF1F08B5FFF7F7FAFFF7F7FA01F0BE
:101B200023FFFAE7024B1A6801321A60704700BFC0
:101B30006496FF1F38B50B4C25462368580301D522
:101B400001F036FA2B68590501D500F0BFFC2B686F
:101B50001A0501D500F0F8FE2368DB04EDD501F08D
:101B6000CBF8EAE73480044008B5FFF7E3FFFFFF56
:101B7000014B10221A807047002005407047FFFF7C
:101B8000024A13681818106018467047B887FF1F7C
:101B9000EFF313839BB9EFF3108098B9EFF305834C
:101BA00023B10F2B04D9084A985C01E04FF48070F0
:101BB000EFF311833BB1984228BF184670474FF0AE
:101BC000FF30704718467047F0E300E0002300E064
:101BD0000133C25C002AFBD11846704710B50023C0
:101BE000B0FBF2F402FB1400092801D8303000E009
:101BF0003730C85420460CB10133F1E7CA1854708D
:101C0000224605E0885CCC5C8C54C8540132013B10
:101C10009A42F7DB084610BD084B4FF400021A60E9
:101C20004FF080721A604FF000721A604FF08062BD
:101C30001A604FF000621A60704700BF08E100E0D0
:101C4000212830B521D8042A1FD8DFE802F007097F
:101C5000050B03000B2306E00A2304E0082302E03F
:101C60000C2300E00923094A02EBC002526872B655
:101C70001468074D24F47024146044F0807444EA1E
:101C8000034345F82010136062B630BD0493000092
:101C9000DC95FF1F094B03EBC0035B6872B61A6843
:101CA00022F0877222F4803242F080721A60044B74
:101CB000002243F8202062B6704700BF0493000062
:101CC000DC95FF1F114B10B51C68E0041C6004D5A7
:101CD0000F4BDA680AB1DB689847A10404D50C4BB6
:101CE0001A690AB11B699847A20604D5084B1A6EF7
:101CF0000AB11B6E9847E30606D5054BD3F884203E
:101D000012B1D3F88430984710BD00BFA0900440B2
:101D1000DC95FF1F1F4B10B51C68E0031C6004D549
:101D20001D4B1A680AB11B689847A10304D51A4BCA
:101D30005A680AB15B689847E20704D5164B1A6CDB
:101D40000AB11B6C9847A30704D5134B5A6C0AB110
:101D50005B6C9847200704D50F4B9A6C0AB19B6CBB
:101D60009847610704D50C4BDA6C0AB1DB6C9847D5
:101D7000220304D5084B5A6E0AB15B6E9847630381
:101D800006D5054BD3F8802012B1D3F880309847A0
:101D900010BD00BFA0A00440DC95FF1F2C4B10B568
:101DA0001C6820071C6004D52A4B5A6A0AB15B6A7A
:101DB0009847E10604D5274B9A6A0AB19B6A98476F
:101DC000620604D5234BDA6A0AB1DB6A9847230618
:101DD00004D5204B1A6B0AB11B6B9847A00604D59B
:101DE0001C4B5A6B0AB15B6B9847E10704D5194B42
:101DF000DA6B0AB1DB6B9847A20704D5154B9A6DD5
:101E00000AB19B6D9847630704D5124BDA6D0AB18E
:101E1000DB6D9847A00504D50E4BDA6E0AB1DB6E78
:101E20009847E10504D50B4B1A6F0AB11B6F984711
:101E3000620504D5074B5A6F0AB15B6F98472305BB
:101E400004D5044B9A6F0AB19B6F984710BD00BF31
:101E5000A0B00440DC95FF1F1E4B10B51C68E007C6
:101E60001C6004D51C4B9A680AB19B6898472106F0
:101E700004D5194B5A690AB15B699847E20604D543
:101E8000154B9A690AB19B699847630704D5124BB1
:101E9000DA690AB1DB699847200704D50E4B1A6A44
:101EA0000AB11B6A9847A10704D50B4B9A6B0AB17C
:101EB0009B6B9847A20604D5074B1A6D0AB11B6DA0
:101EC0009847630604D5044B5A6D0AB15B6D984779
:101ED00010BD00BFA0C00440DC95FF1F094B10B52A
:101EE0001C68A2071C6004D5074B9A6E0AB19B6E52
:101EF0009847E30704D5044BDA6F0AB1DB6F9847C4
:101F000010BD00BFA0D00440DC95FF1F044B054965
:101F100000221A600A60044A106010221A6070479A
:101F200014D0034004D0034000D00340212810B552
:101F300018D80D4A52F8303093F880423CB1012253
:101F400011B183F8802010BD83F8002110BD02EB91
:101F5000C00043681A6811B142F0030201E022F0A8
:101F600002021A6010BD00BF04930000212816D899
:101F70000B4A02EBC00301295B6852F8302004D100
:101F800082F880124FF4A27208E0002082F88002EA
:101F900011B94FF4807201E040F203121A607047E9
:101FA0000493000072B60B4B0B491A680B4B1B686D
:101FB000096862B6490102D5322A88BF0133C2F5E9
:101FC000BB32FF326021B2FBF1F24FF47A7000FBBA
:101FD0000320704718E000E004ED00E06496FF1F66
:101FE00070B50446FFF7DEFF05466CB140F2E736F8
:101FF000FFF7D8FF401BB04203D9013C04D005F5E0
:102000007A7501F0B1FCF3E770BDFFFF10B5FFF783
:1020100003FE164B164A174C00204BF6FF71186052
:102020005960282313609360136193611362936274
:1020300013639363092222600F4C20606160A360E8
:10204000236144F8042C0D4C20600D4801600D49BB
:102050000B608B600C4B1A60FFF7FCFC0420FFF751
:10206000BFFFBDE8104001F0BFBA00BF04800340CD
:102070000C800340008003400490034004800B4028
:1020800008800B400C800B4000800B4070B50E2484
:1020900005464C4303E0013C01D1002070BD2B7884
:1020A000002BF8D101E0013CF7D02B78002BFAD0BF
:1020B000FFF778FF064601E0013CEED02B78002BBD
:1020C000FAD1FFF76FFF801B70BD70B50E24054677
:1020D0004C4303E0013C01D1002070BD2B78002B64
:1020E000F8D001E0013CF7D02B78002BFAD1FFF7B4
:1020F00059FF064601E0013CEED02B78002BFAD0C8
:10210000FFF750FF801B70BD21280BD8064B53F8FA
:10211000300000F5007011B11146FFF7B7BF11464E
:10212000FFF7D3BF0020704704930000194B1A68D3
:1021300042F480621A60184A00231370174A137021
:10214000174A1370174A1370174A1370174B40F24F
:1021500013321A604FF451725A60154BC0F3443277
:102160001A70C0F347125A700221042200F01F00B7
:1021700098729A70D9745A7588221A743C22DA704F
:102180000C4B40226FF44A711A705B184FF40052E6
:102190001A60704734800440EA96FF1F6996FF1F5B
:1021A000F096FF1FEB96FF1F6896FF1F40A00440AC
:1021B00000A006402DE400E0134A937800F00301EC
:1021C00003F0EC030B43410748BF43F01003937047
:1021D00000F00F03042B0C4903D18B7943F040032B
:1021E0008B715379C20603F0EF03074A48BF43F0EF
:1021F000100353719379800603F0EF0348BF43F057
:1022000010039371704700BF00A006400E4B1B687F
:10221000580510B503D410BD01F0A6FB00E00B4C2F
:102220002378002BF8D10A4A4FF400511160094A73
:102230000949D37040F203120A604A60074A1370DA
:10224000074A137010BD00BF348004406896FF1F1A
:1022500084E100E000A0064040A00440EA96FF1F91
:102260006996FF1F38B5094B04461D78002DFCD137
:1022700020460121FFF77AFE20462946FFF756FE49
:10228000034B53F83420034B1A6038BD6896FF1F88
:1022900004930000EC96FF1F1D4B1B685A052DE9A7
:1022A000F041074631D51B4B1B680BB101221A7058
:1022B000194B1A4D1C781A4EDFF8688001343F2CF8
:1022C00088BF002414E0FFF763FC40280CDC33795E
:1022D0001B060DD52B7801333F2B88BF002318F840
:1022E0000320F2712B7003E0FF2801DD01F03CFBBD
:1022F0002B78A342E7D00B4B1F550B4B01221A70D2
:10230000054B1C70064BBC22DA70BDE8F08100BFA3
:1023100034800440EC96FF1FF096FF1FEB96FF1FE2
:1023200000A006406A96FF1F6896FF1F2DE9F84F30
:10233000254B1B6806465805894642D5234B1B682A
:102340000BB101221A70224DB346AA4632E0214B4E
:102350001C782F7801343F2C88BF0024A74209D075
:102360001BF8012B1C4B1A551C4B01221A70194BE0
:102370001C701FE01A4BBC22DA709846FFF708FC6D
:1023800040280FDC98F8043019060FD52B78124A34
:1023900001333F2B88BF0023D25C88F807208AF8DE
:1023A000003003E0FF2801DD01F0DEFA2B78BB42AC
:1023B000E4D0D5E706EB09039B45C8D3084BBC2204
:1023C000DA70BDE8F88F00BF34800440EC96FF1F40
:1023D000EB96FF1FF096FF1F6A96FF1F6896FF1F80
:1023E00000A0064010B5044C01E001F0BDFA2378CE
:1023F000002BFAD110BD00BF6896FF1F054B064A9F
:102400001B781078834201D33F3000E00138C01AB6
:10241000704700BFF096FF1FEB96FF1F044B187824
:10242000044B1B78984238BF4030C01A704700BF39
:10243000EA96FF1F6996FF1F084B094A197813781F
:10244000994207D001333F2B88BF00230549C85C60
:10245000137070474FF0FF30704700BFEA96FF1FC0
:102460006996FF1FAA96FF1F074B1A78074B1B7828
:102470009A4206D001333F2B88BF0023044AD05C28
:1024800070474FF0FF307047EA96FF1F6996FF1FB5
:10249000AA96FF1F094B1B685B050ED5084BDA781F
:1024A00002F0CB02DA7040225A74DA7842F0340239
:1024B000DA70044B1A78044B1A7070473480044069
:1024C00000A006406996FF1FEA96FF1F70B52D4BCE
:1024D0001A7912F0300F1DD072B6997D21B9DA79D0
:1024E00040225A7462B615E062B6274A274812782D
:1024F000274D00781C46531C3F2B88BF0023E679EC
:1025000083421CBFEE541A46013911F0FF01F2D18B
:102510001D4B1A701B4AD37819465BB2002B1BDA8D
:102520001379180618D51B4B1B4C1D781B4B1B78B9
:10253000AB4209D001333F2B88BF00231079E05C08
:10254000D071107D0728F3D9144A13700D4B1A79F6
:10255000120601D57C22DA7001F04003DBB27BB1B8
:10256000084B1A7902F04002D2B2194642B10C4B24
:1025700000221A700B4B1B6803B11A703C23CB70FE
:1025800070BD00BF00A00640EA96FF1F6996FF1FBE
:10259000AA96FF1FF096FF1F6A96FF1FEB96FF1F7C
:1025A0006896FF1FEC96FF1F184B1A6842F40062F2
:1025B0001A60174A00231370164A1370164A1370D4
:1025C000164A1370164A1370164B40F213321A60F3
:1025D0004FF451725A60144BC0F344321A70C0F376
:1025E00047125A7000F01F000422022198729A705C
:1025F000D9745A7588221A743C22DA700B4B402227
:102600001A700B4B4FF400421A607047348004403C
:102610005B97FF1FF296FF1F6497FF1F5C97FF1FDA
:10262000F196FF1F0CB0044000B006402FE400E01C
:1026300004E100E0134A937800F0030103F0EC0397
:102640000B43410748BF43F01003937000F00F03A2
:10265000042B0C4903D18B7943F040038B715379E0
:10266000C20603F0EF03074A48BF43F0100353715B
:102670009379810603F0EF0348BF43F01003937191
:10268000704700BF00B006400E4B1B68180510B520
:1026900003D410BD01F068F900E00B4C2378002B47
:1026A000F8D10A4A4FF400411160094A0949D37030
:1026B00040F203120A604A60074A1370074A137017
:1026C00010BD00BF34800440F196FF1F84E100E09C
:1026D00000B006400CB004405B97FF1FF296FF1F4E
:1026E00038B5094B04461D78002DFCD12046012148
:1026F000FFF73CFC20462946FFF718FC034B53F834
:102700003420034B1A6038BDF196FF1F049300007C
:102710006097FF1F1D4B1B681A052DE9F041074606
:1027200031D51B4B1B680BB101221A70194B1A4D86
:102730001C781A4EDFF868800134272C88BF0024EB
:1027400014E0FFF725FA40280CDC33791B060DD581
:102750002B780133272B88BF002318F80320F27150
:102760002B7003E0FF2801DD01F0FEF82B78A34277
:10277000E7D00B4B1F550B4B01221A70054B1C70F9
:10278000064BBC22DA70BDE8F08100BF3480044003
:102790006097FF1F6497FF1F5C97FF1F00B0064004
:1027A000F396FF1FF196FF1F2DE9F84F254B1B688D
:1027B00006461805894642D5234B1B680BB10122FA
:1027C0001A70224DB346AA4632E0214B1C782F786E
:1027D0000134272C88BF0024A74209D01BF8012B05
:1027E0001C4B1A551C4B01221A70194B1C701FE010
:1027F0001A4BBC22DA709846FFF7CAF940280FDC62
:1028000098F8043019060FD52B78124A0133272B7C
:1028100088BF0023D25C88F807208AF8003003E0E4
:10282000FF2801DD01F0A0F82B78BB42E4D0D5E70A
:1028300006EB09039B45C8D3084BBC22DA70BDE800
:10284000F88F00BF348004406097FF1F5C97FF1F24
:102850006497FF1FF396FF1FF196FF1F00B006401D
:1028600010B5044C01E001F07FF82378002BFAD179
:1028700010BD00BFF196FF1F054B064A1B7810786C
:10288000834201D3273000E00138C01A704700BFEF
:102890006497FF1F5C97FF1F044B1878044B1B784D
:1028A000984238BF4030C01A704700BF5B97FF1F87
:1028B000F296FF1F084B094A19781378994207D0FE
:1028C00001333F2B88BF00230549C85C1370704754
:1028D0004FF0FF30704700BF5B97FF1FF296FF1F5E
:1028E0001B97FF1F074B1A78074B1B789A4206D09D
:1028F00001333F2B88BF0023044AD05C70474FF060
:10290000FF3070475B97FF1FF296FF1F1B97FF1F5B
:10291000094B1B681B050ED5084BDA7802F0CB0279
:10292000DA7040225A74DA7842F03402DA70044BDA
:102930001A78044B1A7070473480044000B0064087
:10294000F296FF1F5B97FF1F70B52D4B1A7912F09F
:10295000300F1DD072B6997D21B9DA7940225A74B0
:1029600062B615E062B6274A27481278274D0078EC
:102970001C46531C3F2B88BF0023E67983421CBFB3
:10298000EE541A46013911F0FF01F2D11D4B1A70B5
:102990001B4AD37819465BB2002B1BDA1379180651
:1029A00018D51B4B1B4C1D781B4B1B78AB4209D019
:1029B0000133272B88BF00231079E05CD071107D94
:1029C0000728F3D9144A13700D4B1A79120601D552
:1029D0007C22DA7001F04003DBB27BB1084B1A793C
:1029E00002F04002D2B2194642B10C4B00221A70DA
:1029F0000B4B1B6803B11A703C23CB7070BD00BF3A
:102A000000B006405B97FF1FF296FF1F1B97FF1F4A
:102A10006497FF1FF396FF1F5C97FF1FF196FF1F40
:102A20006097FF1F174B1A6842F480521A60164ACB
:102A300000231370154A1370154A1370154A13704A
:102A4000154A1370154A40F2133111604FF4517159
:102A50005160134AC0F344311170C0F3471100F0C4
:102A60001F0051709072937013742C23D3700D4B10
:102A700040226FF44B711A705B184FF400321A60E9
:102A8000704700BF34800440CF97FF1F6697FF1F39
:102A9000D897FF1FD097FF1F6597FF1F08C00440FE
:102AA00000C0064031E400E0134A937800F00301CF
:102AB00003F0EC030B43410748BF43F0100393704E
:102AC00000F00F03042B0C4903D18B7943F0400332
:102AD0008B715379C20603F0EF03074A48BF43F0F6
:102AE000100353719379800603F0EF0348BF43F05E
:102AF00010039371704700BF00C006400E4B1B6867
:102B0000D80410B503D410BD00F02EFF00E00B4C2C
:102B10002378002BF8D10A4A4FF400311160094A9A
:102B20000949D37040F203120A604A60074A1370E1
:102B3000074A137010BD00BF348004406597FF1F23
:102B400084E100E000C0064008C00440CF97FF1FAA
:102B50006697FF1F38B5094B04461D78002DFCD140
:102B600020460121FFF702FA20462946FFF7DEF949
:102B7000034B53F83420034B1A6038BD6597FF1F91
:102B800004930000D497FF1F1D4B1B68DA042DE946
:102B9000F041074631D51B4B1B680BB101221A705F
:102BA000194B1A4D1C781A4EDFF868800134272C17
:102BB00088BF002414E0FEF7EBFF40280CDC3379DB
:102BC0001B060DD52B780133272B88BF002318F85F
:102BD0000320F2712B7003E0FF2801DD00F0C4FE3A
:102BE0002B78A342E7D00B4B1F550B4B01221A70D9
:102BF000054B1C70064BAC22DA70BDE8F08100BFBB
:102C000034800440D497FF1FD897FF1FD097FF1F31
:102C100000C006406797FF1F6597FF1F38B545182E
:102C2000044603E014F8010BFFF7AEFFAC42F9D104
:102C300038BDFFFF10B5044C01E000F095FE23788D
:102C4000002BFAD110BD00BF6597FF1F054B064A48
:102C50001B781078834201D3273000E00138C01A76
:102C6000704700BFD897FF1FD097FF1F044B1878FD
:102C7000044B1B78984238BF4030C01A704700BFE1
:102C8000CF97FF1F6697FF1F084B094A19781378E3
:102C9000994207D001333F2B88BF00230549C85C08
:102CA000137070474FF0FF30704700BFCF97FF1F82
:102CB0006697FF1F8F97FF1F074B1A78074B1B78EC
:102CC0009A4206D001333F2B88BF0023044AD05CD0
:102CD00070474FF0FF307047CF97FF1F6697FF1F79
:102CE0008F97FF1F024B1A78024B1A70704700BF74
:102CF0006697FF1FCF97FF1F10B5214B1A7902F07F
:102D00002002D2B26AB11F4AD8791F4913780978D4
:102D100001333F2B88BF00238B4202D01B49C8548C
:102D20001370174AD37818465BB2002B13DA137965
:102D3000190610D5164B17491C780B789C4202D106
:102D40006C23D37007E00133272B88BF0023124C7C
:102D5000E45CD4710B7000F04003DBB27BB1084B34
:102D60001A7902F04002D2B2194642B10B4B00224E
:102D70001A700B4B1B6803B11A702C23CB7010BD5B
:102D800000C00640CF97FF1F6697FF1F8F97FF1F5A
:102D9000D897FF1FD097FF1F6797FF1F6597FF1FEB
:102DA000D497FF1F1FB572B6154B70221A70154AC3
:102DB000412111700F2102F8011C80221A701A782B
:102DC0001206FCD5104B186862B6104B984201D819
:102DD0000A23584301A90A22FEF700FF0C480023EA
:102DE00001AA9A5C2AB100EB430101330A2B4A8005
:102DF000F6D10133064A5B00137005B000BD00BF79
:102E00000000024007000240080002407F96980040
:102E10004488FF1FF0B50C4B0C4C1A7842F00205A9
:102E200004EBC50682F00102706009481A7006784A
:102E3000002E0CBF8827C82747EA014186F001060B
:102E400044F835100670F0BD4498FF1F0080FF1F46
:102E5000BC98FF1F431E032B10B510D872B6094A49
:102E600052F8230048B1416842F82310064A01880D
:102E700032F81340611A22F8131062B610BD002018
:102E800010BD00BF3498FF1FE49DFF1F01380328C9
:102E90000BD872B6064B53F82030002001E05B6877
:102EA0000130002BFBD162B670470020704700BF95
:102EB0008898FF1F70B572B6184E194C01239A19E5
:102EC00012F8012C02F00802D2B2E2B19900144AC1
:102ED00054F831502DB902EB431308305860114BB0
:102EE00009E041F0010154F8315065B902EBC1032A
:102EF000083058600C4B42F831300C4B1A78013ACC
:102F00001A7062B670BD0133052BD8D162B6074B7B
:102F100000221A70BDE8704000F0F0BB149400006D
:102F20000080FF1F88004000C8004000B298FF1FCB
:102F3000431E032B30B532D84001194A40F010002F
:102F4000101872B6174CE25C032A09D8DFE802F0C9
:102F5000160218050830022213E00830042210E09F
:102F60001148124A50F8234014B940F8231002E0E7
:102F700052F82300416042F823100FE0032200E0E2
:102F80000522E25410F0080F01F108030A8843609B
:102F90000CBF8823C82343EA0243036062B630BDF6
:102FA0000080FF1FF097FF1F8898FF1F9898FF1F52
:102FB0002DE9F74FA54EA64C357805F00403DBB29A
:102FC000ABB1A44B1B7883B1A34A137823B1013B67
:102FD000DBB2137003B900BEA04A13782BB1013BDA
:102FE000DBB213700BB900F09DFC0423337005F0C5
:102FF0000802D2B2002A00F08082994B1B781D098A
:103000004FEA930940F0FE8104EBC903586854F875
:103010003930C3F38303013B0C2B00F2F081DFE86E
:1030200013F0A901A901EE01EE01EE01EE01EE019E
:10303000EE01C501EE01EE01EE010D004368894984
:1030400002684B60884B894844F83930884D0A60E3
:10305000002303600120287092B240F28165AA42E9
:103060002361A36117D8B2F5D06F80F02C81B2F53F
:10307000817F00F0DC8006D8802A00F0C280822A9E
:1030800040F03D81C1E040F202339A4200F00C81F1
:10309000B2F5A06F16E042F22105AA4200F0678166
:1030A00008D8B2F5086F00F0A680B2F5106F40F0B6
:1030B00026810AE042F22120824200F01C8142F285
:1030C00021339A4240F01B811DE18A78614B604DAB
:1030D0001A702B6A180603D5686A083800F00EFBD0
:1030E000644A08359542F4D1DFF8B091DFF8B0B109
:1030F0000025A846CA4655F8090005E04368009334
:1031000000F0FCFA009B18460028F7D15A4B4AF809
:10311000050045F80B00E85807E04268009301926B
:1031200000F0ECFA019A009B10460028F5D15851A6
:10313000524BE850524B23F81800524B18F803201A
:10314000023A032A08D8DFE802F00204020400224F
:1031500000E0012203F8082008F101080435B8F165
:10316000040FC8D1484BDFF83C9100221A700125AA
:103170009846464B05EB0902EB1812F8012C9B0010
:103180001A7002F00802D2B23AB300F099FAAB001A
:1031900038B104EB4512083050603D4A44F8332002
:1031A00006E044F8330098F80030013388F8003026
:1031B00000F086FAAB0043F0010338B104EBC30220
:1031C00008305060284A44F8332006E044F83300C1
:1031D00098F80030013388F80030AA0042F002016C
:1031E000013542F003020023052D44F8313044F844
:1031F0003230BED188E0174B264D1B782B7003462A
:1032000085E0244D2B706B7080E08A88042A00D9F9
:1032100075E0204D2B706B701F4B9200D3181B78FC
:1032200003F00203DBB2002B70D028706EE08A88B6
:1032300002F07F03042B62DC4B8803B15FE0910056
:10324000154A8A18117821F0020156E080200740C3
:103250000080FF1FBB98FF1F4598FF1FD098FF1FDE
:1032600090200740A898FF1FC8004000DC97FF1F70
:10327000BC98FF1F8080FF1F8898FF1F9898FF1F32
:10328000E49DFF1FF097FF1FB298FF1F30C8011089
:1032900088004000B398FF1FC02007403498FF1FEC
:1032A000E097FF1F149400008A8802F07F03042B2C
:1032B00025DC4B8803B122E09100A14A8A181178DD
:1032C00041F0020119E04A889E4B898853F8085C56
:1032D000A3F10C009DB133F80CCC944509D133F81F
:1032E0000ACC8C4505D1120A032A0CBF2B7803891E
:1032F0000DE00C33EAE78978934A117004E0904BB3
:103300000F221A7033E000231D4600E002238F4A8B
:10331000B2F806904B4538BF9946B9F1400F34BF1B
:10332000C8464FF0400828464146FFF773FDB9EB09
:103330000809454403D1B8F1400F07D017E0B9F1AF
:10334000400F34BFC8464FF0400800E0C84628464A
:103350004146FFF75FFDB9EB0809454402D1B8F1DA
:10336000400F04D17A4B7B4A1D60A2F800900122E5
:10337000794B43E0754B1A8842F221039A4211D1EE
:10338000764A0023C15C99540133072BFAD1734B61
:103390001B68862B02D1724B0F221A700020014647
:1033A000FFF738FD6F4B44F8393028E0684BD3F80D
:1033B0000080B8F1000F18D0DFF89891B9F800A09C
:1033C000BAF1400F34BF5546402540462946FFF725
:1033D00021FDC5EB0A039BB2A9F800300BB9402DC3
:1033E00001D108EB05035A4A1360584B1A88B2F50D
:1033F000A06F04D100225A709A785B4B1A70012298
:10340000554B6DE004EBC90803F00803D8F804201D
:10341000013DD9B2A2F10800EDB2002937D000F089
:103420006DF95248524B50F82510F1B14A6840F8F6
:10343000252001F10802C8F804205A5D032A0BD8A0
:10344000DFE802F002040608032204E0022202E0A0
:10345000052200E004225A5518F0080F0A880CBF14
:103460008823C82343EA024342E05A5D032A07D86F
:10347000DFE802F040400204002206E0012204E0FE
:1034800018F0080F0CBF022203225A5532E054F8FC
:1034900039301B0C22F8083C23B322F8061C42F8F2
:1034A000041C344A344952F8257017B942F82500F3
:1034B00002E051F825205060304A41F8250032F8EA
:1034C00015105B1822F8153000F0FAF818B1083022
:1034D000C8F8040006E02A4B44F839001A78013293
:1034E0001A7007E01F4B274A18F0080F08BF134651
:1034F00044F83930082333705EE5E90752D51649A0
:103500002048214C02230B70204B1A70204B18606E
:10351000986020481A61D8609A615C60084B0D2061
:1035200018701D48FF23037000F8083C02741B4A02
:1035300013701B4B9F221A7001230B704BE000BFCE
:10354000C020074024940000E098FF1FA898FF1FA8
:10355000DC97FF1FB098FF1F94200740EC9DFF1FD2
:103560004598FF1FC8004000982007408898FF1F1B
:10357000F097FF1F3498FF1FE097FF1FE49DFF1F88
:10358000B298FF1F88004000F497FF1F4498FF1F68
:103590000080FF1F4898FF1F882007408C200740AD
:1035A000842007402B0605D50C4B0D221A70802273
:1035B00003F8402C05F00203DBB22BB1084B1A785C
:1035C0001A70022203F8082C05F01005EDB215B1AF
:1035D000044B10221A70BDE8FE8F00BFC0200740C8
:1035E000882007408020074008B5FFF7DBFB002359
:1035F0001E491A465A50C8180833882B4260F9D120
:103600001B4B1A6842F480221A601A4B80221A70EF
:103610001978184A0906FBD4144B1749C3F307203D
:103620000870C3F307401B0E08750B76FF2301F8E3
:103630001C3C01F8143C01F88C3C137843F0400327
:1036400013700021012302F8783C02F80C1C02F8E8
:10365000883C0A4B70226FF4507C1A7063444FF41C
:1036600000721A60064B10221A7008BD0080FF1FFE
:10367000348004400C2107409C20074049E400E0CE
:10368000082107400846114600F0AEB8084600F091
:1036900013B900F01BB900F07BB800F051B800F08E
:1036A00095B87047044B00221A711A73034A4FF4FD
:1036B0007A7199601A607047C098FF1F7894000073
:1036C00072B60C4A1168B1FA81F30B2B02D962B6BB
:1036D000002070474FF0004020FA03F021EA00017B
:1036E000116062B6044948225343C8180022CA50E8
:1036F000426070475C88FF1F0084FF1F0C4B48220C
:10370000C31AB3FBF2F30B2B11D80A4A127822B179
:10371000094A12780AB1FFF7CDBB72B6074A4FF0DB
:10372000004121FA03F311681943116062B6704732
:103730000084FF1FB298FF1FBB98FF1F5C88FF1F0C
:1037400038B5114C23684BB10F4D28684288811859
:1037500001320C7A01888A4212D30CE00B4B1B78A1
:1037600013B94FF0FF340CE00320FFF773FB206028
:103770000028E9D1F5E7FFF7C1FF00232B6000E047
:103780004280204638BD00BFDC98FF1FBB98FF1F5A
:1037900010B50C4C23681BB10A4B1B686BB902E0D7
:1037A000094B1B7813B94FF0FF3010BD0320FFF712
:1037B00051FB20600028EFD1F5E75A889B18187A52
:1037C00010BD00BFDC98FF1FBB98FF1F044B9888FB
:1037D000044B1B681BB11A885B88D31AC01870474A
:1037E000E49DFF1FDC98FF1F2DE9F8432D4B2E4D64
:1037F000DFF8C08001220C461A7006464BE02B68A9
:103800002BBBDFF8A0904AF2F92798F8003013B9E3
:10381000244A137014E00420FFF738FB072808D867
:10382000012389F80030FFF74BFF286078B989F849
:103830000000013F1D4B01D01A782AB101221A70F5
:103840004FF0FF30BDE8F88300F08EF8DDE729681F
:10385000164A488800231370C0F14002944238BFD2
:10386000224600F108078018CF194880A41A02E008
:10387000F05CF85401339342FAD1F6184B883F2B91
:1038800006D940230B800420FFF752FB00232B6056
:10389000074B05221A70002CB1D1024B20461C7038
:1038A000BDE8F883D198FF1FD498FF1FD898FF1F59
:1038B000D098FF1FBB98FF1F07B502AB012103F88B
:1038C000010D1846FFF790FF0EBDFFFFF8B5114B35
:1038D0001B78EBB1104E114B3468114D01271F704E
:1038E0004CB1638800272F70042023802146FFF706
:1038F0001FFB376009E0FFF7E3FE014620B104201B
:103900002C70FFF715FB00E02F70044B00221A709B
:10391000F8BD00BFBB98FF1FD498FF1FD198FF1FB1
:10392000D098FF1F38B50D4B1D78ADB90C4C2168F0
:1039300031B14B8804200B80FFF7FAFA256038BDBF
:10394000FFF7BEFE014620B10420BDE83840FFF776
:10395000EFBA044B01221A7038BD00BFD198FF1F87
:10396000D498FF1FD098FF1F08B50E4B1A78C2B924
:1039700001221A70FFF72AFF08B1FFF792FEFEF747
:103980004DFD08B1FDF7F4FDFEF786FF08B1FDF728
:1039900061FEFFF76BF908B1FDF7CEFE014B002287
:1039A0001A7008BDE198FF1F0369D3F83801D3F8F6
:1039B0003431C01A70477047014B0360704700BF35
:1039C000989400000369D3F84422B2F5817F09D8A6
:1039D000D3F844229818013280F83C11C3F84422ED
:1039E000012070470123037100207047036930B53F
:1039F000D3F84442B4F5817F1CD8D3F84442D3F8BD
:103A00004452C4F5817401345B19A24203F59E75DA
:103A100002D9012303712246002302E0CC5CEC545E
:103A200001339342FAD10369D3F844125118C3F811
:103A3000441202E0012303710022104630BDFFFF53
:103A4000002202710273074A417310B502604FF4FD
:103A50007A74054A84604FF4187404FB01210161F3
:103A600010BD00BF989400006088FF1FF0B59DF85E
:103A700014409DF818509DF8206029B94C4FD7F894
:103A800000C04CF0400C06E0012906D1484FD7F8A1
:103A900000C04CF0800CC7F800C0002780F84B72C3
:103AA00080F84822476932B920233B7003681A70B6
:103AB000C3691A7014E0002C0CBF202228223A702F
:103AC000076801D0A34201D25A0000E062003A70B8
:103AD000C26924B1A34201D2640000E05C0014700A
:103AE0009DF81C3040F20362002B40F2646440F207
:103AF000032308BF4FF4197308BF224671B9012D83
:103B000005D12C4A80F849521360536018E02A4AC4
:103B100080F84912136042F8043C11E001290FD1EA
:103B2000032D06D1254B80F849521A6043F8042C26
:103B300006E0022280F84922214A13600432136011
:103B400043680A2E1BD8DFE806F01A06080A0C0E96
:103B50001012141618001F2212E01D2210E08522F8
:103B60000EE014220CE045220AE00D2208E00B22B0
:103B700006E0092204E0022202E0002200E02722FF
:103B80001A70836904221A7090F8482283680AB96F
:103B9000802200E0C0221A7011B94FF0807203E059
:103BA000012903D14FF00072064B1A60F0BD00BF2F
:103BB0003480044000A004400CA0044004D0044021
:103BC00028B0044000E100E00369490083F83C119B
:103BD00003690122C3F844220022027183F84B22B8
:103BE0007047D0F8443210B53BB3C36812221A7044
:103BF00083681A7802F02002D2B20AB1B42209E036
:103C0000C468227802F02002D2B2002AF9D180F8EA
:103C10004822B0221A70012380F84B320023C0F8EA
:103C20004032836880F84A12F0221A70D0F840229D
:103C30000369801890F83C211A7010BD30B54AB362
:103C4000C0F850220022C0F83421C0F83821C268E0
:103C5000122414708268147804F02004E4B20CB1C9
:103C6000B42409E0C5682C7804F02004E4B2002CE8
:103C7000F9D180F84842B024147080F84A32022208
:103C8000836880F84B22F0221A704900036941F0E2
:103C90000101197030BD036993F84B32043B032BCB
:103CA00007D8DFE803F004020B0402207047042069
:103CB00070470079003018BF01207047032070471B
:103CC00090F84B326BB190F84B32052B09D090F83D
:103CD0004B32062B05D090F84B02C31F5842584177
:103CE00070470120704770B504460D46FEF75AF93B
:103CF00006462046FFF7E4FFD0B9002DF9D0FEF7C5
:103D000051F9801BA842F4D312E094F84B32022BF5
:103D100012D094F84B32032B0ED04FF4A073013B1A
:103D2000FDD194F84B02D0F1010038BF002070BDE6
:103D300094F84B32012BE8D1042384F84B32ECE7A2
:103D400010B504460AB9002010BDFFF777FF2046E2
:103D50000299FFF7C8FF0028F5D0D4F8380110BD4C
:103D600038B5044615460069FFF73BFF2069294630
:103D7000FFF7B9FF2046BDE83840FFF78CBFD0F809
:103D80003411D0F838219142034608D2D0F83421BA
:103D90008118013291F83000C3F8342170474FF098
:103DA000FF3070470069FFF7EABFD0F83421D0F840
:103DB00038319A4205D2D0F83431C01890F830002A
:103DC00070474FF0FF3070470069FFF7EEBFFFFF0D
:103DD00038B5C16883680D781A78044602F020006F
:103DE000C0B2002800F0AB8002F01002D2B2002A6C
:103DF0004DD094F84B22012A1CD115F00105D4F8BE
:103E0000402206D002B927E0062284F84B22802205
:103E10000CE10132C4F84022D4F844128A4202D3A1
:103E200084F84B522CE0D4F840222369A21892F86F
:103E30003C21FBE094F84B22022A1DD105F0100230
:103E4000D2B23AB1072284F84B2280221A70E3687A
:103E500012221EE1EA0701D50522D6E7032284F8E3
:103E60004B22D4F85022012A01D1E82200E0E022BE
:103E70001A7023691B780AE194F84B22042AC6D1F0
:103E800094F84A22012A00D1C1E7B022CEE0D4F84A
:103E90003811D4F850220231914200F0FC8094F89D
:103EA0004B22042A04D194F85522002A00F0F38012
:103EB000D4F83821D4F8503201329A4280F0EE80A2
:103EC00094F84B32042B40F0F28094F85532002BDA
:103ED00040F0E480EBE084F84B32A368B0221A7023
:103EE00023691978D4F83831B3F5817F07D8D4F82D
:103EF0003831E218013382F83010C4F8383194F8C0
:103F00004A32012B05D12023013BFDD1A368802239
:103F10001A7094F84B3207E0D4F83831E1180133C5
:103F200081F83020C4F8383194F84B32042B40F03B
:103F3000AE8094F85532002B00F0C280A7E005F067
:103F40001003DBB233B110230B7005F04003DBB27A
:103F500003B99CE015F0400150D094F84B32092B86
:103F600004D1D4F85832002B40F0AE8015F004058F
:103F70001DD0082384F84B320023C4F84432D4F80F
:103F80005C3203B19847D4F844320BB984F83C3121
:103F9000A368D0221A7023691A78520884F84C2238
:103FA00094F83C211A700123C4F840326FE094F871
:103FB000492284F854520AB9122002E0012A02D19F
:103FC0001120454903E0022A03D144491E2003225F
:103FD00003E0032A03D141491F20FDF731FE0923E5
:103FE00084F84B320023C4F83831A368C0221A7019
:103FF00023691B785B0884F84C3248E012F0100209
:104000001ED015F0010513D1D4F84022D4F8443263
:104010009A4207D2D4F84032E218013392F83C5168
:10402000C4F8403223691D70A368D0221A702EE0B4
:10403000A368C0221A7023691B7884F84B1226E00B
:1040400084F8542294F849220AB9122002E0012A85
:1040500002D11120204903E0022A03D11F491E206A
:10406000032203E0032A03D11C491F20FDF7E8FDCA
:1040700023691978D4F83831B3F5817F07D8D4F89B
:104080003831E218013382F83010C4F83831E3686F
:1040900002221A7038BDE8221A7009E794F84B2200
:1040A0000023042A84F855327FF415AF15E72369FD
:1040B0001A78D4F83831B3F5817F7FF62DAF33E726
:1040C000012384F85532E2E70022C4F83421D4F801
:1040D000380198474AE700BF954100008941000038
:1040E00001480121FFF774BEC08AFF1F014800216B
:1040F000FFF76EBE6088FF1F10B5C3681B7813F012
:10410000200304461ED180F84B3290F849320BB997
:1041100012200AE0012B01D1112006E0022B01D16F
:104120001E2002E0032B02D11F20FDF7B3FDD4F8BF
:104130005832002B27D00022C4F83421D4F838019B
:10414000984710BD90F854320133DBB2012B80F850
:10415000543213D890F84832012B0FD110BD1220E1
:1041600008E01120012B05D01E20022B02D0032BCA
:1041700009D11F20BDE81040FDF78CBD94F84932ED
:10418000002BEED1EBE710BD01480121FFF7B4BFD2
:10419000C08AFF1F01480021FFF7AEBF6088FF1FE4
:1041A00070B50C4E0C4D0D4C00213046FFF748FC0D
:1041B00030460B4E2246294603F0A6FC012130462C
:1041C000FFF73EFC304629462246BDE8704003F02A
:1041D0009BBC00BFF898FF1FB93900006087FF1F24
:1041E000E498FF1F10B5002303710C4B0C221988B3
:1041F00001230B4208D1094A19431180084A11884A
:1042000021EA0303138010BD04795B000134013AF5
:1042100004719BB2EDD1FF23037110BD1499FF1FF0
:104220001099FF1F2DE9F041984603790B2B0446A6
:10423000174634D8CEB230460121FDF797FE2579D6
:10424000184B19485E55194B44F2506223F815205B
:10425000012303FA05F503881D43154B05801A68F1
:104260000C214F4301FB08F112F48002278061808A
:1042700011D1196841F4800119600E4B4FF6FF719E
:1042800019605A609A6042F6A27243F8042C02F553
:10429000803243F8042C084B4FF480721A60207966
:1042A000BDE8F0812E99FF1F1099FF1F1699FF1F7F
:1042B0003C8004400460034008E100E04FF40872D1
:1042C0004FF41663FFF7AEBF0C235943038899429E
:1042D00003DB43889942B8BF0B4602790B2A9CBF87
:1042E000014921F8123070471699FF1F70B5334A03
:1042F000334C118894F9003041FA03F111F0010FA9
:10430000154606D02F4A0021D05CFDF70FFE0C2386
:1043100023702D4B2C88197800234DB223E05819B7
:1043200044FA00F6013316F0010F1CD0254B264C41
:10433000185C22700121FDF7F9FD2378204A59B25B
:104340001370224A32F81110214A106808181060C0
:10435000204A106809181160013342F6A37142F82F
:104360000C1C237070BD5A1850B20B28D7DD164BA9
:1043700017491A700A68C2F56A3303F5C073B3F5BA
:10438000966F05DB4EF660208342A8BF034601E02E
:104390004FF496639A180A600E4908681B180B6060
:1043A0000D4B42F6A37119600C4B9A4204D9084A8E
:1043B00000231360044A137070BD00BF1099FF1FE3
:1043C000208DFF1F2E99FF1F1299FF1F1699FF1FA7
:1043D0000C99FF1F0C600340006003407FA903009D
:1043E0000B88584080EA0010C0B2C20082EA002266
:1043F00082EA132383EA10100880704710B5CA7848
:104400000C460632023103F0CFFEE2780632034654
:1044100081182088985423881B124B70E07808304C
:1044200010BDFFFF2DE9F74304469846FE23837035
:10443000E270002317461D4A41718371937902AEE1
:104440000371013393714FF6FF73C51C26F8023DCB
:1044500000F1080904E015F8010B3146FFF7C0FF31
:104460004D45F8D12546BDF8063025F8083B94F8AF
:104470000390A9442E461FFA89F904E016F8010BAF
:104480002146FFF7ADFFB3B29945F7D1404621462B
:10449000FFF7A6FFE3782288EA54E378ED18238833
:1044A0001B126B7007F10800BDE8FE833A99FF1FED
:1044B000F0B589B006460D46BDF83C409DF8381071
:1044C000BDF840000193ADF80840ADF80A008DF842
:1044D0001C102AB9114603A8102203F085FF0AE038
:1044E00003AC02F1100710685168234603C3083279
:1044F000BA421C46F7D101AA05F1080307AF1446DA
:1045000003CC083343F8080C43F8041CBC42224691
:10451000F5D122781A701623EB71284631461922FC
:10452000DC2309B0BDE8F040FFF77CBF2DE9F04384
:104530000B46ADF5077DB3F808C0B3F80AE0867AFC
:10454000B3F80490B3F806809F89DD891C8A588AE5
:104550005A7D1B68097DADF808C0ADF80AE0ADF8DA
:104560000E500093ADF80490ADF80680ADF80C70D5
:104570006D46ADF812008DF814108DF815200FCD92
:10458000ADF8104044AC0FC495E8030044F8040BA8
:10459000232321808DF80F3131461622F42342A8BF
:1045A000FFF740FF42A96846FFF728FF014668462B
:1045B000FFF71AF90DF5077DBDE8F0832DE9F0430B
:1045C0000B46ADF5077DB3F808C0B3F80AE0867A6C
:1045D000B3F80490B3F806809F89DD891C8A588A55
:1045E0005A7D1B68097DADF808C0ADF80AE0ADF84A
:1045F0000E500093ADF80490ADF80680ADF80C7045
:104600006D46ADF812008DF814108DF815200FCD01
:10461000ADF8104044AC0FC495E8030044F8040B17
:10462000222321808DF80F3131461622ED2342A836
:10463000FFF7F8FE42A96846FFF7E0FE014668462C
:10464000FFF7D2F80DF5077DBDE8F08310B5027ACB
:10465000437A9342ADF5107D04461CD305A90DF1B4
:10466000130000F023FC227A9DF813100132009110
:10467000617AD2B203462272019102924CA905AA34
:10468000A07AFFF715FF4CA90AA8FFF7B7FE01466D
:104690000AA8FFF7A9F80DF5107D10BD38B5002464
:1046A0000546047204E02846FFF7D0FF0134E4B267
:1046B0006B7AA342F7D838BDF0B5CDB006460C46AC
:1046C00001F1080305AA01F1180718685968154691
:1046D00003C50833BB422A46F7D118680DF1120111
:1046E000286006AA0DF1130000F078FB9DF8122057
:1046F0000092727A01929DF813200346029221469D
:1047000006AAB07AFFF7D4FE21460AA8FFF776FE84
:1047100001460AA8FFF768F84DB0F0BD2DE9F04159
:10472000CEB006460C4601F1080306AA01F11807AF
:1047300018685968154603C50833BB422A46F7D1A5
:104740001868286099889B79A980AB710DF11E00CB
:104750000DF1170100F042FA054628B30DF11702DA
:10476000069900F020FB9DF81710B77A284600F054
:10477000DDFA05460DF11E009DF81780767A00F0EF
:104780001FFC214602900DF11E022B46CDF8008041
:1047900001963846FFF78CFE21460CA8FFF72EFE47
:1047A00001460CA8FFF720F84EB0BDE8F08130B507
:1047B000847C857A0174ADF5077D23436C460093B4
:1047C0008374022323710C23637103232372A27168
:1047D000E17142749DE8070044AB03C31A700023E3
:1047E0008DF80F3129460922322342A8FFF71AFE1D
:1047F00042A96846FFF702FE01466846FEF7F4FF4D
:104800000DF5077D30BDFFFF70B51F4BADF5087D81
:104810001B680193019AC368D31A40F6B8329342D9
:10482000054601D9002300E00123A97C2B702B7CD5
:104830006A7C029102218DF80C108DF80F300C214A
:10484000032302AC8DF810308DF80D108DF80E207A
:1048500094E8070046AB03C3AE7A1A70002309221E
:104860008DF817313146322344A8FFF7DBFD44A908
:104870002046FFF7C3FD01462046FEF7B5FF287826
:104880000DF5087D70BD00BF6496FF1F1FB5437C0A
:10489000C02B05D151F8080F496801AB03C312E0E2
:1048A00000210A4800F05CFA0021094800F058FA9B
:1048B0000021084800F054FA0748002105B05DF8CF
:1048C00004EB00F04DBA05B000BD00BFB09400008D
:1048D000BB940000C6940000D1940000F0B5C7B0AE
:1048E0000646FEF773FF002800F0E180714DFEF7E9
:1048F00027FFEB7800220746C4B22A70092B00F28A
:104900008D80DFE803F0050512221A29303E4F6F33
:10491000FE2C40F083800223EB70674B0022DA709C
:104920004FF6FF729C701A8078E063492A71CC7050
:104930002046FFF755FD042305E05F4920460C7132
:10494000FFF74EFD0323EB7068E05B4920464C7196
:10495000FFF746FD0523F6E7574920468C71FFF720
:104960003FFD0623EFE7544D2046EC712946FFF743
:1049700037FDEA784F4B0AB9082200E00722DA70C7
:104980004CE02B794C4FFA18013314722B712046EE
:104990003946FFF725FD2A79FB789A423ED1082255
:1049A000444BECE7444D454AEB792946D05CFFF790
:1049B00017FD2B88FFB2DBB29F423E4B0CD000228A
:1049C0000121FE2C1A70D97028D10221D9704FF61E
:1049D000FF73EA702B8021E00922DA701B79ED1851
:1049E0002C721BE034490B880122B4EB132F314B9E
:1049F0000AD0FE2CDA7011D10222DA700023CB70BB
:104A00004FF6FF730B8009E01A70DA701B79CB1830
:104A100002A85C724FF4887203F0C6FB254B19782C
:104A2000012907D1244A12795A711A8902B95A8187
:104A300001321A811F4B00229A70002937D09DF84D
:104A40000F10142921D003D849B10B2927D117E021
:104A5000172910D045291DD0152920D107E00123A1
:104A60003370174B1B680193019BF3601FE03046C6
:104A7000FFF714FE1BE0304602A9FFF74FFE16E0D9
:104A8000304602A9FCF7EEFA11E0304602A9FFF722
:104A900013FE0CE0304602A9FFF7F8FE07E00948D4
:104AA0000A220023FCF7FEFE0648FCF7EDFE47B0A5
:104AB000F0BD00BF3A99FF1F6A99FF1FDC94000008
:104AC0006496FF1FC098FF1F10B504462046FFF7ED
:104AD00005FF2378002BF9D010BDF0B50B46ADF5DE
:104AE000077D4F688D68CC689A691B68867A08696B
:104AF000496902950394009301976D4604900591CE
:104B000006920FCD44AC0FC495E807001E2384E83D
:104B100007008DF80F3131461C22272342A8FFF7EA
:104B200081FC42A96846FFF769FC01466846FEF72A
:104B30005BFE0DF5077DF0BD2DE9F0410B46ADF5AF
:104B4000067DB1F806C0B1F808E0B1F804804F89DD
:104B50008D89CC899A8A1B68867A088A498AADF839
:104B600006C0ADF808E0ADF80C50ADF80E4000936B
:104B7000ADF80480ADF80A706D46ADF81000ADF8E0
:104B80001210ADF814200FCD44AC0FC495E803000B
:104B900044F8040B1A23218016228DF80F31314678
:104BA000AA2342A8FFF73EFC42A96846FFF726FC6D
:104BB00001466846FEF718FE0DF5067DBDE8F0815A
:104BC00041747047837C194381747047837C23EA66
:104BD00001018174704701747047FFFF2DE9FF47A1
:104BE000804689460027264E3EE00A2C08D03368CE
:104BF0005D19681C414603F08BFE002832D12CE081
:104C0000946925E01F4900A8FCF7EFFE31684919B7
:104C1000013100A8FCF70FFF611C00A8FCF70BFF97
:104C20000098414603F074FE1C3470B99AF80030C5
:104C3000BAF8144089F80030114B1B685D196846BA
:104C40006B69E418FCF790FE15E000A8FCF78CFEF9
:104C50002378A246002BD5D1C9E72B786C6989F857
:104C6000003008E00137BFB21C257D4333685C5D2E
:104C70005A19002CB9D1204604B0BDE8F08700BF16
:104C8000AC9DFF1F4C900000023810B50C46072861
:104C900015D8DFE800F0041409140E14141310469C
:104CA00002F00CFF207010BD104602F007FF2080BC
:104CB00010BD104602F002FF206010BD0A6010BD5A
:104CC00070B500240B4D0C4E0FE023B299005A0131
:104CD000521A3168885C092801EB020303D859692C
:104CE0009A69FFF7D1FF0134E4B22B78A342ECD8E4
:104CF00070BD00BFAA9DFF1FAC9DFF1F70B506468B
:104D00000D46002408E0092804D8918A9269711898
:104D1000FFF7BAFF0134E4B222B2910053015B1AEB
:104D2000EA18E85C0028EED170BDFFFF023908B533
:104D3000072911D8DFE801F0041007100A10100E3F
:104D400090F9000003E0B0F9000000E0006802F014
:104D50009BFC08BD006808BD004808BD0000C07F7E
:104D600037B50D460DF10701FFF738FF9DF8073005
:104D7000023B0446072B15D8DFE803F0041409149E
:104D80000E141413284602F099FE20700AE02846FB
:104D900002F094FE208005E0284602F08FFE20609D
:104DA00000E005603EBD1378023B10B5044608469E
:104DB000072B12D8DFE803F0041108110C111110B1
:104DC00002F07CFE207010BD02F078FE208010BD45
:104DD00002F074FE206010BD216010BD2DE9F04F7F
:104DE000002687B081468A469346B0462D4F4CE058
:104DF0000A2B34D195692EE02B49019302A8FCF7C8
:104E0000F4FD39680919013102A8FCF714FE691C88
:104E100002A8FCF710FE0298594603F079FD1C35F4
:104E2000019B88B91F4A89F8008012681978988A0E
:104E30008AF8001014196369C018FFF777FF044659
:104E400002A8FCF791FD28E008F1010802A85FFA2A
:104E500088F8FCF789FD2A782B46002ACCD13868DF
:104E600000190130594603F053FD60B90D4B89F824
:104E700000601B681A19195D50698AF80010FFF765
:104E800055FF044609E00136B6B21C2474433B6862
:104E90001A191B5D002BABD10024204607B0BDE8DA
:104EA000F08F00BFAC9DFF1F4C900000274BD3F844
:104EB00000C000232DE9F04781460F461D464FF004
:104EC0001C0A37E00A2820D18E6919E01C36954269
:104ED00014D10131384603F009FE08F101013846CA
:104EE00003F0F0FC194B98F800101B68B8F8140098
:104EF00089F800101C196369C01815E00135EDB27E
:104F00003078B0460028E1D101E00135EDB293429E
:104F10000ED10131384603F0E9FD0C4B1B681A191C
:104F2000195D506989F80010BDE8F047FFF7FEBE33
:104F300001339BB20AFB03F40CEB04011CF80400E0
:104F40000028BFD10020BDE8F08700BFAC9DFF1F47
:104F50001A4B2DE9F0411E6800230C461D464FF008
:104F60001C0C23E00A2A15D18A690CE01C32854208
:104F700009D10131204603F0B9FD2046791CBDE876
:104F8000F04103F09FBC92F800801746B8F1000F83
:104F9000ECD101E00135EDB2834205D1204601316B
:104FA000BDE8F04103F0A2BD01339BB20CFB03F25C
:104FB000B118B25C002AD5D1BDE8F081AC9DFF1FCD
:104FC0007FB5054600240A4E0AE020466946FFF7F1
:104FD000BFFF2846694603F09BFC28B10134E4B2C8
:104FE0003378A342F1D80024204604B070BD00BF3E
:104FF000AB9DFF1F00224275827568228271704747
:1050000080790A46192101F041B907B50323807957
:10501000009105221A2101F041F90EBD07B50323C5
:105020008079009102221A2101F038F90EBD07B5EE
:1050300002238079009104221B2101F02FF90EBD7B
:1050400007B502238079009104221C2101F026F982
:105050000EBD80790A461F2101F018B980790A46F1
:10506000202101F013B980790A46212101F00EB9FF
:1050700080790A46222101F009B980790A4638214F
:1050800001F004B910B5054B04463A21E21D1B8816
:10509000807901F0A7F8E07910BD00BF228DFF1FD5
:1050A000F7B51D46164B1B8804460F4616468079F9
:1050B00000930E22E31D3B2101F020F8E279237AD0
:1050C00043EA02233B80627AA37A43EA02233380D5
:1050D000E27A237B43EA02232B80237CE27B43EAB0
:1050E0000222089B1A80A37C627C43EA0222099B6D
:1050F0001A80237DE27C43EA02220A9B1A80FEBDCD
:10510000228DFF1F10B5049CBDE81040FFF7C8BFFB
:1051100080796A210222012301F0E8B880796B21AD
:105120000722012301F0E2B880790B4606226B21A9
:1051300001F0DCB807B503238079009102226B21CE
:1051400001F0ACF80EBD10B504466420FCF748FF32
:1051500001212046FFF7EEFF6420FCF741FF617D4F
:105160002046FFF764FF6420FCF73AFFA17D20464C
:10517000FFF766FF6420FCF733FF20460021BDE8FF
:105180001040FFF7D1BFFFFF13B5074B1B88044644
:105190007221807900930222E31D00F0AFFFE079D5
:1051A000237A43EA00201CBD228DFF1F07B50B4662
:1051B0000349807909880091742100F09FFF0EBD9A
:1051C000228DFF1F13B50446E31D80790093054B24
:1051D0001B88062201937521134601F00BF8E07934
:1051E0001CBD00BF228DFF1F08B5FFF7EBFFB0F11C
:1051F00034035842584108BD13B5064B1B8804467A
:105200000021807900930A46E31D01F00DF8E07952
:105210001CBD00BF228DFF1F0B46807900210A466E
:1052200001F064B880798AB2062101F0ABB88079C8
:105230008AB2082101F0A6B880798AB20A2101F069
:10524000A1B8FFFF13B5084B1B88044613218079D2
:1052500000930222E31D00F051FFE079237A43EA34
:10526000002000B21CBD00BF228DFF1F80798AB2D2
:10527000132101F087B8FFFF13B5084B1B880446C4
:105280001521807900930222E31D00F037FFE079B9
:10529000237A43EA002000B21CBD00BF228DFF1F0D
:1052A00080798AB2152101F06DB8FFFF13B5084B64
:1052B0001B8804461721807900930222E31D00F029
:1052C0001DFFE079237A43EA002000B21CBD00BF35
:1052D000228DFF1F80798AB2172101F053B880799F
:1052E0000B4607226A2101F001B810B5144601F0FF
:1052F0001F020BB142F020020CB142F04002807953
:105300006D21BDE8104000F0C1BF80790A466E21D2
:1053100000F0BCBF10B5054B04466F21E21D1B8891
:10532000807900F05FFFE07910BD00BF228DFF1F84
:105330002DE9F74F17469DF83040DFF884B0002282
:1053400080468A46994619461346FFF7CEFF4046E7
:105350002146FFF7DAFF00252EE005F11003BB42DE
:10536000C4BFC5EB0706F6B2C4F58073D8BF1026DC
:105370009E4201DD6642F6B2BBF8003098F80600A6
:1053800000930AEB050375196F213246ADB200F0A8
:10539000B5FE3419BD42E4B210D21CB909F10109BD
:1053A0005FFA89F90022404649461346FFF79DFF00
:1053B00040462146FFF7A9FFBD42CED3BDE8FE8F90
:1053C000228DFF1F2DE9F04F87B0074603929DF80D
:1053D00044209DF840500492002205919A461946B7
:1053E00013469DF84880FFF780FF38462946FFF7AF
:1053F0008CFF049B23B1102002F0C8FB814601E022
:10540000DDF81090B8F1000F04D0102002F0BEFBC0
:10541000064600E046464FF0000B69E0039A0BF1A8
:1054200010039342C4BFCBEB0204E4B2C5F5807312
:10543000D8BF10249C4201DD6C42E4B2B8F1000FE9
:1054400004D10BE0CA5CF254013303E0059A002357
:1054500002EB0B01DAB2A242F4D302E0059B03EBAC
:105460000B062246B8796F21334600F0EFFE049A0E
:1054700032B3B9F1000F23D000221346384651460B
:10548000FFF733FF38462946FFF73FFF214AB87937
:1054900013886F21009322464B4600F02FFE3046C2
:1054A0004946224602F04EFE50B1484602F076FBD5
:1054B000B8F1000F02D0304602F070FB002026E069
:1054C00004EB0B0C039B1FFA8CFB65199B45EDB29B
:1054D00011D21DB90AF1010A5FFA8AFA0022384690
:1054E00051461346FFF701FF38462946FFF70DFFE7
:1054F000039A934592D3049B13B1484602F04EFBA6
:10550000B8F1000F02D0304602F048FB012007B08E
:10551000BDE8F08F228DFF1F1FB59DF81840009445
:105520009DF81C40019401240294FFF74BFF04B046
:1055300010BD2DE9F04F814687B00D469246984642
:10554000002B4FD0082002F021FB06464BE0621CE6
:10555000A11C92B289B204F1030C2B5DAA5C6F5CB2
:105560001FFA8CFBB8F1000F02D0002F49D124E0C4
:10557000002F43D121E0304639460492059302F0D2
:105580009DFF059B049A0646002105EB0B0402E0F3
:10559000605C7054013188B2B842F9D300920122A4
:1055A000019200220292484631463A46FFF70AFF2E
:1055B00007EB0B04A4B2B8B90CE015F80B300434B7
:1055C000012BA4B206D199F806003821322200F04E
:1055D0005DFE09E0B8F1000F02D0304602F0DEFABD
:1055E000002011E01E4600245445B0D3B8F1000F4E
:1055F00002D0304602F0D2FA012005E005EB0B069E
:10560000CCE7042FC0D9B6E707B0BDE8F08F01237F
:10561000FFF78FBF80790A46702100F037BE80798E
:105620000A46712100F032BE2DE9F043A9B00446CC
:10563000FFF774FD1E20FCF7D3FC00212046FFF786
:1056400073FD0122134610212046FFF74EFE06216E
:105650002046FFF75AFE2046FFF75CFE00210A466F
:105660000B462046FFF741FE2046FFF7C5FD2046CA
:10567000FFF7E8FD81462046FFF7FEFD8046204605
:10568000FFF714FECB4EE51D33886A212A460746F4
:10569000A07900F0A7FD37213222A07900F0F6FDB5
:1056A0000A2100220C2000F0F1FD0A20FCF798FCF2
:1056B0000A210F220C2000F0E9FD0A20FCF790FCE3
:1056C00033881021009303222B460C2000F016FD96
:1056D00000250A2100220C20012600F0D7FD8DE8CC
:1056E00060002046B44940F2AA722B46FFF714FF2F
:1056F000002800F083822046B049E822FFF787FFA8
:10570000002800F07D8220461221FFF7B6FC2046DB
:105710000421FFF775FC20460321FFF70BFD20460F
:105720000321FFF77BFC20463146FFF76EFC204645
:105730000321FFF77CFC20460321FFF76BFF204687
:105740002946FFF76CFF20462946FFF765FD2046F6
:105750004FFA89F1FFF78AFD20464FFA88F1FFF7EB
:105760009FFD79B22046FFF7B5FD95494AE29DF8C5
:105770001220901C984280F245829DF811109DF8ED
:105780001030009100260121019102960DF11301C4
:105790002046FFF717FE3346894942E29DF8122062
:1057A000901C984280F23D829DF811109DF81030B7
:1057B000009100260121019102960DF1130120466E
:1057C000FFF700FE2046FFF7A3FC2046FFF7DCFCB6
:1057D00033467B4932E29DF81220901C984280F2B9
:1057E0002D829DF811109DF81030009100260121A6
:1057F000019102960DF113012046FFF7E3FD3346B8
:105800006F4928E29DF81220901C984280F2238272
:105810009DF811109DF810300091002601270DF120
:105820001301019702962046FFF7CCFD6C216820FA
:10583000324600F02BFD32461C21682000F026FD88
:1058400002212046FFF705FC9C212046FFF70BFCB8
:1058500050212046FFF702FC20463146FFF708FCA6
:105860000A210E203A4600F011FD25218E226820E3
:1058700000F00CFD262168203A4600F007FD2721A4
:10588000DA22682000F002FD2B210E22682000F0B1
:10589000FDFC2C210A22682000F0F8FC2D21812239
:1058A000682000F0F3FC652168203A4600F0EEFC29
:1058B00034211822682000F0E9FC672105226820C5
:1058C00000F0E4FC37216820324600F0DFFC6A215A
:1058D0002022682000F0DAFC6A216820242200F0EF
:1058E000D5FC6A216820202200F0D0FC68206A21C3
:1058F000E82200F0CBFC324BBAE19DF81220911C5B
:10590000B14280F2B5819DF811109DF810300091E0
:1059100000260121019102960DF113012046FFF7A7
:1059200051FD33462649B0E19DF81220901C984263
:1059300080F2AB819DF811109DF810300091002687
:105940000121019102960DF113012046FFF73AFD66
:1059500033461B49A6E19DF81220901C984280F224
:10596000A1819DF811109DF81030009100260121B1
:10597000019102960DF113012046FFF723FD3346F6
:105980000F499CE19DF81220901C984280F297816B
:105990009DF811109DF81030009100260121019111
:1059A00002960DF113012046FFF70CFD3346044922
:1059B00094E100BF228DFF1F50970000DC9500008E
:1059C000C49600009DF81220901C984280F28681B7
:1059D0009DF811109DF810300091002601210191D1
:1059E00002960DF113012046FFF7ECFC3346BA494D
:1059F00081E19DF81220901C984280F27C819DF8F4
:105A000011109DF81030009100260121019102969D
:105A10000DF113012046FFF7D5FC3346AE4977E17F
:105A20009DF81220901C984280F272819DF811100E
:105A30009DF81030009100260121019102960DF190
:105A400013012046FFF7BEFC3346A3496DE19DF8E4
:105A50001220901C984280F268819DF811109DF8E8
:105A60001030009120460DF11301FFF761FC002377
:105A7000994967E19DF81220901C984280F262815A
:105A80009DF811109DF81030009100260121019120
:105A900002960DF113012046FFF794FC33468E4920
:105AA0005DE19DF81220901C984280F258819DF88B
:105AB00011109DF8103000910026012101910296ED
:105AC0000DF113012046FFF77DFC3346824953E177
:105AD0009DF81220901C984280F24E819DF8111082
