:100000000C944F060C9436320C9463320C94EF1D12
:100010000C94191E0C94431E0C9477060C947706CE
:100020000C9477060C9477060C9477060C94491F71
:100030000C9477060C9477060C9477060C9477064C
:100040000C9444340C9477060C94B02F0C943330F9
:100050000C9477060C9477060C9477060C9477062C
:100060000C94E71A0C947706084AD73B3BCE016EF6
:1000700084BCBFFDC12F3D6C74319ABD56833DDAFF
:100080003D00C77F11BED9E4BB4C3E916BAAAABE0E
:10009000000000803F535441525400537461727405
:1000A00020444D5000496E697469616C617A696ED3
:1000B0006720455343732077697468204D494E5F2C
:1000C0005349474E414C0043616C696272617469E7
:1000D0006E67204553437300436F6E6E65637420F3
:1000E00062617474657279206E6F7720796F752004
:1000F000686176652038207365636F6E647300579E
:10010000616974696E6720666F72204553432036BB
:10011000207365636F6E647300444F4E45005761F2
:100120006974696E6720666F7220455343203620DC
:100130007365636F6E64730053656E64696E673ACE
:100140000053656E64696E673A0053746172746936
:100150006E672063616C6962726174650029004496
:100160004D5020496E697469616C697A6174696F78
:100170006E206661696C65642028636F6465200089
:10018000444D50207265616479212057616974691A
:100190006E6720666F7220666972737420696E7470
:1001A0006572727570742E2E2E00456E61626C69D8
:1001B0006E6720696E746572727570742064657400
:1001C000656374696F6E202841726475696E6F2073
:1001D00065787465726E616C20696E746572727593
:1001E00070742030292E2E2E00456E61626C696E6F
:1001F0006720444D502E2E2E00496E697469616C43
:10020000697A696E6720444D502E2E2E004D505550
:100210003630353020636F6E6E656374696F6E20A3
:100220006661696C6564004D505536303530206329
:100230006F6E6E656374696F6E207375636365734B
:100240007366756C0054657374696E6720646576B7
:1002500069636520636F6E6E656374696F6E732E7C
:100260002E2E00496E697469616C697A696E672027
:1002700049324320646576696365732E2E2E0046ED
:1002800049464F206F766572666C6F772100FB00E0
:10029000003E000B00360001000200030000006574
:1002A0000054FFEF0000FA80000B128200010002F0
:1002B0000000000000000000000000000000002816
:1002C0000000FFFF4581FFFFFA7200000000000000
:1002D00003E80000000100017FFFFFFE8001001B1A
:1002E0000000000000000000000000000000003ED0
:1002F00003304000000002CAE3093E8000002000F5
:10030000000000000000400000006000000041FF0D
:10031000000000000B2A0000165500002182FD8716
:100320002650FD800000001F000000058000000036
:100330000000000100000002000000030000400077
:1003400000000000046F0002653200005EC0400043
:100350000000000000000000000000000000FB8C16
:100360006F5DFD5D08D9007C733B006C12CC3200E0
:10037000139D3200D0D632000800400001F4FFE6A1
:100380008079020000000000D0D600002710FB009A
:10039000000040000000000000000000000000001D
:1003A000000100000000000001000100000000004A
:1003B000FA36FFBC308E0005FBF0FFD95BC8FFD0DA
:1003C0009ABE000010A9FFF41EB200CEBBF70000D9
:1003D000000100000004000200020200000CFFC245
:1003E00080000001800000CF80004000000000007D
:1003F00000010000000000000600000000140000E2
:1004000000000000000000000000000000000000EC
:1004100000000000000000000000000000000000DC
:1004200000000000000000000000000000000000CC
:100430000000033F68B6793528BCC67ED16C8000C9
:100440000000400000000000B26A00000000000050
:1004500000000000000000003FF00000003000003D
:10046000000000000000000000000000000000008C
:10047000000000000000000000000000000000007C
:10048000254D002F706D000005AE000C02D000005D
:10049000000000650054FFEF0000000000000000B5
:1004A00001000044000000000C00000001000000FA
:1004B00000000065000000540000FFEF0000000095
:1004C00000000000000000000000000000004000EC
:1004D00000000000000000000000000000004000DC
:1004E000000000000000000000000000000000000C
:1004F00000010000000200000000000000000000F9
:1005000000000000000000000000000000000000EB
:100510000000000000000000000000000000001BC0
:1005200000000000000000000000000000000000CB
:1005300000000000000000000000000000000000BB
:100540000000000000000000000040000000001B50
:10055000000000000000000000000000000000009B
:10056000000000000000000000000000000000008B
:10057000000000000000000000000000000000007B
:100580000000000000000000000000000000D8DCB7
:10059000BAA2F1DEB2B8B4A88191F74A907F916A0D
:1005A000F3F9DBA8F9B0BAA080F2CE81F3C2F1C1B1
:1005B000F2C3F3CCA2B280F1C6D880BAA7DFDFDFE6
:1005C000F2A7C3CBC5B6F087A2942448703C9540EF
:1005D0006834589B78A2F183922D557DD8B1B4B878
:1005E000A1D09180F270F370F27C80A8F101B098F4
:1005F00087D943D886C988BAA1F20EB89780F1A9E5
:10060000DFDFDFAADFDFDFF2AAC5CDC7A90CC92C67
:1006100097979797F1A989264666B0B4BA80ACDE61
:10062000F2CAF1B28C02A9B69800890E161EB8A9BA
:10063000B4992C547CB08AA896365676F1B9AFB4EA
:10064000B083C0B8A89711B18F98B9AFF02408440F
:10065000106418F1A329557DAF83B593AFF000283E
:1006600050F1A3869F61A6DADEDFD9FAA38696DB76
:1006700031A6D9F8DFBAA68FC2C5C7B28CC1B8A25D
:10068000DFDFDFA3DFDFDFD8D8F1B8A8B286B49808
:100690000D355DB8AA98B0872D353DB2B6BAAF8C8E
:1006A00096198F9FA70E161EB49AB8AA872C547C51
:1006B000B9A3DEDFDFA3B180F2C4CDC9F1B8A9B41C
:1006C00099830D355D89B9A32D557DB593A30E167C
:1006D0001EA92C547CB8B4B0F19783A81184A50945
:1006E00098A383F0DA240844106418D8F1A529559A
:1006F0007DA58595021A2E3A565A4048F9F3A3D99A
:10070000F8F098832408441064189782A8F111F037
:1007100098A2240844106418DAF3DED883A5940163
:10072000D9A302F1A2C3C5C7D8F18492A24DDA2A97
:10073000D84869D92AD86855DA32D85071D932D810
:10074000705DDA3AD85879D93AD87893A34DDA2A35
:10075000D84869D92AD86855DA32D85071D932D8F0
:10076000705DDA3AD85879D93AD878A88A9AF028B8
:1007700050789EF38818F19F1D98A8D908D8C89F73
:10078000129EF315A8DA1210D8F1AFC8978734B5C6
:10079000B994A421F3D922D8F22DF3D92AD8F2356D
:1007A000F3D932D881A4606061D961D86C6869D905
:1007B00069D8747071D971D8B1A384193D5DA383D0
:1007C0001A3E5E931030811011B8B0AF8F94F2DAF8
:1007D0003ED8B49AA88729DAF8D8879A35DAF8D8B3
:1007E000879A3DDAF8D8B1B9A49885022E56A5812A
:1007F000000C14A397B08AF12DD928D84DD948D828
:100800006DD968D8B1840DDA0ED8A32983DA2C0EFD
:10081000D8A3844983DA2C4C0ED8B8B0A88A9AF5AC
:1008200020AADADFD8A840AAD0DADED8A860AADAEF
:10083000D0DFD8F19786A8319B069907AB97288817
:100840009BF00C201440B8B0B4A88C9CF004285144
:10085000791D301438B282ABD0982C505078789BE8
:10086000F11AB0F08A9CA82951798B2951798A24F0
:1008700070598B2058718A4469388B3940688A6472
:1008800048318B304960A588200971584468113976
:1008900064493019F1AC002C547CF08CA804285029
:1008A00078F1889726A85998AC8C02264666F0897C
:1008B0009CA8295179247059446938644831A98821
:1008C00009205970AB11384069A8193148608CA8CB
:1008D0003C415C207C00F187981986A86E767EA941
:1008E00099882D557D9EB9A38A228A6E8A568A5E82
:1008F0009FB183062646660E2E4E6E9DB8AD002C27
:10090000547CF2B18CB499B9A32D557D8191AC384A
:10091000AD3AB58391AC2DD928D84DD948D86DD9E9
:1009200068D88C9DAE29D904AED851D904AED879F7
:10093000D904D881F39DAD008DAE1981ADD901D810
:10094000F2AEDA26D88E912983A7D9ADADADADF33D
:100950002AD8D8F1B0AC89913E5E76F3AC2E2EF158
:10096000B18C5A9CAC2C2828289CAC3018A89881B3
:1009700028343C9724A728343C9C24F2B089AC91BD
:100980002C4C6C8A9B2DD9D8D851D9D8D879D9D8A4
:10099000D8F19E88A331DAD8D8912DD928D84DD94D
:1009A00048D86DD968D8B18393353D8025DAD8D839
:1009B0008569DAD8D8B49381A328343CF3AB8BF89B
:1009C000A391B609B4D9ABDEFAB0879CB9A3DDF127
:1009D000A3A3A3A395F1A3A3A39DF1A3A3A3A3F210
:1009E000A3B49080F2A3A3A3A3A3A3A3A3A3A3B29E
:1009F000A3A3A3A3A3A3B087B599F1A3A3A398F13D
:100A0000A3A3A3A397A3A3A3A3F39BA3A3DCB9A727
:100A1000F1262626D8D8FF037B034CCD6C03AB030D
:100A200036567600680402CB47A202180400058BF4
:100A3000C1010C0400000000037F060CC92C97972D
:100A400097038903264666006C02200002400400DA
:100A500000000002440400000000024804000000FE
:100A600000024C04000000000250040000000002DC
:100A700054040000000002580400000000025C045E
:100A80000000000002BC040000000001EC040000B3
:100A90004000037F060CC92C9797970402030D357D
:100AA0005D040904872D353D00A30100000000010D
:100AB000078601FE074105F120283038077E013006
:100AC0000746019A074704F1283038076C04F128DB
:100AD0003038021602000101B202FFFF0190040942
:100AE00023A135016A020600016008000000000031
:100AF00000000000600440000000016202000000ED
:100B000060040040000000000000240027002A00CC
:100B100000000000250028002B000000000023003A
:100B2000260029000404040404040404020202024E
:100B300002020303030303030102040810204080A0
:100B40000102040810200102040810200000000720
:100B50000002010000030406000000000000000085
:100B6000494E46494E4954594E414ECDCCCC3D0A92
:100B7000D7233C17B7D13877CC2B329595E6241F75
:100B8000B14F0A000020410000C84200401C46202E
:100B9000BCBE4CCA1B0E5AAEC59D7400407A10F301
:100BA0005A00A0724E18090010A5D4E80000E8769B
:100BB00048170000E40B54020000CA9A3B000000F2
:100BC000E1F505000080969800000040420F00000B
:100BD00000A08601000000102700000000E80300CC
:100BE0000000006400000000000A00000000000196
:100BF00000000000002C76D888DC674F0823DFC196
:100C0000DFAE59E1B1B796E5E3E453C63AE6519950
:100C10007696E8E6C28426EB898C9B62ED407C6F79
:100C2000FCEFBC9C9F40F2BAA56FA5F490055A2A30
:100C3000F75C936B6CF9676DC11BFCE0E40D47FE3C
:100C4000F520E6B500D0ED902E0300943577050031
:100C500080841E080000204E0A000000C80C3333B8
:100C600033330F986E12831141EF8D2114893BE6C7
:100C70005516CFFEE6DB18D1844B381BF77C1D9050
:100C80001DA4BBE424203284725E228100C9F124B9
:100C9000ECA1E53D2700470DDA1CE62F400D11249D
:100CA0001FBECFEFD8E0DEBFCDBF11E0A0E0B1E0C6
:100CB000E6E5F3E702C005900D92A63CB107D9F72F
:100CC00015E0A6ECB1E001C01D92AD39B107E1F726
:100CD0001CE0CCE9DCE004C02297FE010E945839F8
:100CE000C639D107C9F70E9435340C949E390C944B
:100CF0000000EF92FF920F931F93F22FF02E47FD0B
:100D000002C0E4E001C0E4E1242F332727FD309541
:100D100037FF03C0309521953F4F4F2D512F0F2F97
:100D2000EE2E0E94C4068F2D912F1F910F91FF90E0
:100D3000EF900895662777270C942608FB01DC01C5
:100D400004C08D910190801921F441505040C8F7A2
:100D5000881B990B0895FB01DC0102C001900D92E4
:100D600041505040D8F70895FB01DC018D9101906E
:100D700080190110D9F3990B0895FB01DC01019052
:100D80000D920020E1F70895A9E0B0E0EAECF6E06A
:100D90000C946B396A01122FA02EBE2C2BE3201766
:100DA00018F42CE3922E02C0902E9394AE014F5F64
:100DB0005F4F27E0092D0E948609BC018981E82E3A
:100DC000FF24C70189709070019711F4ADE209C04A
:100DD000B1FE02C0ABE205C0B0FC02C0A0E001C0A1
:100DE000A0E2E3FE3BC0AA2311F423E001C024E00B
:100DF000211710F020E002C0121B212FEB2CB4FEB3
:100E000002C0322F0AC0F601322F80E202C0819365
:100E100031503323E1F7C20ED11CAA2319F0F60199
:100E2000A1936F01F6013196E2FE05C09EE4D60162
:100E30009C9381E404C09EE6D6019C9381E61196C2
:100E40008C9391833296DF01832F90E202C09D93B1
:100E500081508823E1F7E30FF11D40C0E2FE42C05C
:100E6000AA2311F423E001C024E0211710F020E0B0
:100E700002C0121B212FEB2CB4FE02C0922F0AC01D
:100E8000F601922F80E202C0819391509923E1F7FD
:100E9000C20ED11CAA2319F0F601A1936F01F6012D
:100EA0003196E2FE08C089E4D6018C938EE4119657
:100EB0008C9386E407C089E6D6018C938EE6119662
:100EC0008C9386E681833296DF01892F20E202C06F
:100ED0002D9381508823E1F7E90FF11D10822EEF49
:100EE0003FEFAFC0161617061CF041E050E003C0FC
:100EF000AB014F5F5F4FAA2019F480E090E003C080
:100F00008A2D90E0019620E030E0AA2311F021E044
:100F100030E0240F351F280F391F812F90E028174C
:100F2000390714F020E002C0121B212F4B2D50E096
:100F3000CA0180719070B4FC0DC0B3FC0BC0F60107
:100F4000322F40E202C0419331503323E1F7C20E09
:100F5000D11C01C0322FAA2319F0F601A1936F0111
:100F6000892B11F0132F0AC0F601132F80E302C062
:100F7000819311501123E1F7C30ED11C092D060FE7
:100F8000BA8090E1892E912C8E209F20E4FE04C02F
:100F9000F1E3BF1609F40150101614F001E003C08C
:100FA000093008F008E09B0177FF02C020E030E044
:100FB000CB010196821B930BFE013196E80FF91FBE
:100FC0008EE2F82E3B01601A71088A2D90E04427CA
:100FD0005527481B590B8FEF2F3F380719F4D601BF
:100FE000FD926D01621773072CF06216730614F4FC
:100FF000808101C080E321503040319624173507AD
:1010000024F0D6018D936D01E6CF2617370749F4FA
:10101000B5E3BB1528F0BB1621F48114910409F443
:1010200081E3F6018193D601812F90E202C09C9367
:10103000815011968823D9F7E10FF11D108220E02D
:1010400030E0C9012996EEE00C948739A0E0B0E0C9
:10105000ECE2F8E00C946D39EC015B01611571056F
:1010600019F0FB0191838083F9908F2D90E00E940D
:101070005C39892BC9F7FDE2FF1621F4F990EE24C3
:10108000E39405C02BE2F21609F4F990EE248E01E8
:1010900001501040C80160E67BE043E050E00E9450
:1010A0005E0A892B01F58E010E5F1F4FC80163E6B2
:1010B0007BE045E050E00E945E0A892B19F48E0126
:1010C000095F1F4FA114B10419F0F50111830083CA
:1010D000E0FC04C070E090E080E814C070E090E0B4
:1010E00080E86FEF08C1C80168E67BE043E050E0AC
:1010F0000E945E0A892B69F4A114B10429F470E0FE
:1011000090E080EC6FE7F7C02296F501D183C083B1
:10111000F6CF8824992440E050E060E070E0EF2DA5
:10112000E053EA30A0F5F2E0EF2A8E2D90E09C012A
:1011300028703070E2FE06C0232B79F50894811CDC
:10114000911C2BC0232B19F0089481089108DB0116
:10115000CA0112E0880F991FAA1FBB1F1A95D1F769
:10116000480F591F6A1F7B1F440F551F661F771FAB
:101170004E0F511D611D711D483929E9520729E99A
:10118000620729E1720748F084E0E82A06C0EE3FD2
:1011900031F4E3FC39C098E0E92AF990C0CFE53397
:1011A00011F0E53189F529912D3219F4E0E1EE2AAB
:1011B00005C02B3219F081E090E003C0299182E054
:1011C00090E0E22FE053EA3018F0C81BD90B1CC0A6
:1011D00020E030E0FCE020383F075CF4C901880FD4
:1011E000991F880F991F280F391F220F331F2E0FA9
:1011F000311DE991E053EA3068F3E4FE03C0309515
:1012000021953F4F820E931ECE2CDD24E1FE07C0B8
:10121000A114B10421F02197F501D183C083CB0142
:10122000BA010E9435377B018C01F3E0CF22DD2427
:1012300023E0C216D10421F417FB109517F910957D
:1012400057016801C801B70120E030E040E050E0FC
:101250000E949836882309F44AC097FE0DC02FE7F4
:10126000E22E2BE0F22E9094819491089394C0E2A8
:10127000D0E000E010E012C097E9E92E9BE0F92EE3
:10128000F6CFF7012591359145915491C601B501ED
:101290000E9417385B016C018C1A9D0A8C169D0602
:1012A00084F7D595C7950F5F1F4F0630110529F0BC
:1012B0008CEF9FEFE80EF91EF1CFC501D6017C013E
:1012C0008D018C2D880F8D2D881F8F3F51F0C60109
:1012D000B50120E030E040E050E00E9498368823DD
:1012E00031F482E290E090939C0580939B057E2DE3
:1012F0009F2D802F612F272F392F482F562FB9016F
:10130000CA01CDB7DEB7ECE00C948939283008F07B
:1013100027E03327DA01990F311D87FD9160009690
:101320006105710539F432602E5F3D9330E32A95F3
:10133000E1F708959F3F30F080387105610509F0AD
:101340003C5F3C5F3D93913008F08068911DDF93D6
:10135000CF931F930F93FF92EF92192F987F96953B
:10136000E92F96959695E90FFF27EB50F44F9927B3
:101370003327EE24FF24A701E70105900894079482
:1013800028F4360FE71EF81E491F511D660F771F00
:10139000881F991F0694A1F70590079428F4E70E7B
:1013A000F81E491F561FC11D770F881F991F661F02
:1013B0000694A1F70590079428F4F80E491F561FCC
:1013C000C71FD11D880F991F661F771F0694A1F7AD
:1013D0000590079420F4490F561FC71FD81F990F77
:1013E000661F771F881F0694A9F7849110951770C0
:1013F00041F0D695C79557954795F794E7941A9578
:10140000C1F7EBE9FBE06894159015913591659172
:10141000959105907FE27395E118F10A430B560B05
:10142000C90BD009C0F7E10CF11E431F561FC91F9D
:10143000D01D7EF4703311F48A95E6CFE894015004
:1014400030F0080F0AF40027021708F4202F239524
:10145000022F7A3328F079E37D932A95E9F710C0BB
:101460007D932A9589F606949795679537951795F4
:101470001794E118F10A430B560BC90BD00998F0E9
:1014800023957E9173957A3308F070E37C93201353
:10149000B8F77E9170617D9330F0839571E37D9311
:1014A00070E32A95E1F71124EF90FF900F911F91BF
:1014B000CF91DF91992787FD90950895FB01DC017D
:1014C0004150504088F08D9181341CF08B350CF4E4
:1014D000805E659161341CF06B350CF4605E861B98
:1014E000611171F3990B0895881BFCCFCF93DF93A3
:1014F000EC01DB01FA014115510511F4E881F98194
:101500002181908180E0820F911D11969C938E9392
:10151000948180E02581820F911D13969C938E9378
:101520001297908580E02185820F911D15969C93DE
:101530008E931497948580E02585820F911D1796D0
:101540009C938E93169780E0DF91CF910895FF9240
:101550000F931F93DF93CF93CDB7DEB728970FB6C6
:10156000F894DEBF0FBECDBF8B01BE016F5F7F4F12
:101570000E94760AF82E882309F04CC069817A818E
:10158000882777FD8095982F0E94373720E030E03C
:1015900040E858E30E941738F80160837183828322
:1015A00093836B817C81882777FD8095982F0E949B
:1015B000373720E030E040E858E30E941738F80160
:1015C00064837583868397836D817E81882777FD09
:1015D0008095982F0E94373720E030E040E858E3AC
:1015E0000E941738F80160877187828793876F811F
:1015F0007885882777FD8095982F0E94373720E0DF
:1016000030E040E858E30E941738F8016487758796
:10161000868797878F2D28960FB6F894DEBF0FBE6A
:10162000CDBFCF91DF911F910F91FF9008952F9221
:101630003F924F925F926F927F928F929F92AF9262
:10164000BF92CF92DF92EF92FF920F931F93DF939F
:10165000CF9300D000D000D0CDB7DEB77E836D83AE
:10166000DA0114966D907D908D909C9017971C9642
:101670008D919D910D90BC91A02D89839A83AB8310
:10168000BC83FA01A080B180C280D38020843184E1
:1016900042845384C401B30129813A814B815C8126
:1016A0000E9417387B018C01C601B501A20191018E
:1016B0000E9417389B01AC01C801B7010E94D135C7
:1016C0009B01AC010E94D235AD81BE816D937D93AB
:1016D0008D939C931397C601B501A40193010E94B9
:1016E00017387B018C01C201B10129813A814B81FC
:1016F0005C810E9417389B01AC01C801B7010E94B0
:10170000D2359B01AC010E94D235ED81FE8164830C
:10171000758386839783C601B501A60195010E9452
:1017200017387B018C01C401B301A40193010E940D
:1017300017389B01AC01C801B7010E94D1357B016C
:101740008C01C201B101A20191010E9417389B01D5
:10175000AC01C801B7010E94D1357B018C016981C0
:101760007A818B819C819B01AC010E9417389B017F
:10177000AC01C801B7010E94D235AD81BE81189677
:101780006D937D938D939C931B9780E026960FB667
:10179000F894DEBF0FBECDBFCF91DF911F910F91A7
:1017A000FF90EF90DF90CF90BF90AF909F908F9081
:1017B0007F906F905F904F903F902F90089581E0C1
:1017C0008093D90108952F923F924F925F926F922A
:1017D0007F928F929F92AF92BF92CF92DF92EF92C1
:1017E000FF920F931F93CF93DF93EC01813091050C
:1017F00009F023C16F5F7F4F09F02FC186EC91E0A4
:101800000E94BD230F2EF0E02F2EF0E03F2EF0E8D7
:101810004F2EFFE35F2EF02D2092DF013092E0018A
:101820004092E1015092E2010F2EF0E06F2EF0E0C5
:101830007F2EF0E08F2EF0E09F2EF02D6092E301DE
:101840007092E4018092E5019092E6016092E701D6
:101850007092E8018092E9019092EA016092EB01B6
:101860007092EC018092ED019092EE016092EF0196
:101870007092F0018092F1019092F2016092F30176
:101880007092F4018092F5019092F6016092F70156
:101890007092F8018092F9019092FA0100D000D084
:1018A00000D0EDB7FEB72182328243825482168285
:1018B00015828BE792E06FE572E043E552E027E4A2
:1018C00032E00F2EF0E0EF2EF0E0FF2EF0EA0F2FC7
:1018D000F0E41F2FF02D640153010E941B23EDB78C
:1018E000FEB76182728283829482D683C5838CEB39
:1018F00092E063E672E047E552E02BE432E08401D7
:1019000073010E941B23EDB7FEB72182328243820E
:101910005482168215828DEF92E067E672E04BE505
:1019200052E02FE432E00F2EF0E0EF2EF0E0FF2E39
:10193000F0EA0F2FF0E41F2FF02D0E941B238DB72C
:101940009EB706960FB6F8949EBF0FBE8DBF8FE36D
:1019500093E00E946D1E82E493E00E946D1E85E478
:1019600093E00E946D1E88E493E00E946D1E6092D9
:101970004F037092500380925103909252036092F1
:1019800053037092540380925503909256036092D1
:101990005703709258038092590390925A036092B1
:1019A0005B0370925C0380925D0390925E03609291
:1019B0005F03709260038092610390926203609271
:1019C0006303709264038092650390926603609251
:1019D0006703709268038092690390926A03109281
:1019E0006B0310926C0310926D0310926E0303E868
:1019F00013E0C80160E071E00E9497330A5F1F4F57
:101A000093E00F3B1907A9F7CFE6D3E000E010E021
:101A100019921992C801880F991F800F911F880F82
:101A2000991F8D579C4F60E071E00E94C9330F5F92
:101A30001F4F0A30110561F710C0009771F46F5FF6
:101A40007F4F59F409EB13E0C8010E942934065076
:101A50001040F3E00D371F07B9F7DF91CF911F91C9
:101A60000F91FF90EF90DF90CF90BF90AF909F903D
:101A70008F907F906F905F904F903F902F90089540
:101A800080E090E06FEF7FEF0E94E30B089581E02C
:101A900090E06FEF7FEF0E94E30B0895EF92FF92CB
:101AA0000F931F93CF93DF937C018B01C0E0D0E0B5
:101AB000C7018C0F9D1FB8010E94871E2396CC3052
:101AC000D105B1F78DEE94E06FEF70E00E94D83051
:101AD00060E777E180E090E00E94D534DF91CF911C
:101AE0001F910F91FF90EF90089582E493E067E0DB
:101AF00070E00E94421F88E493E066E070E00E947C
:101B0000421F85E493E064E070E00E94421F8FE38F
:101B100093E065E070E00E94421F0895CF92DF924B
:101B2000EF92FF920F931F93CF93DF93182F092FFC
:101B30006B018DEE94E06AE471E00E94D8308DEE86
:101B400094E061E471E00E9483308DEE94E060EDFA
:101B500077E04AE050E00E94E131212F302FC901A7
:101B60007C01EC0100E010E008C0CE0160ED77E000
:101B70000E94871E0F5F1F4F23960C151D05ACF3A7
:101B800068E873E180E090E00E94D5348DEE94E047
:101B900068E371E00E9483308DEE94E068EE73E0BC
:101BA0004AE050E00E94E13100E010E00BC0C701C4
:101BB00068EE73E00E94871E0F5F1F4F83E090E086
:101BC000E80EF91E0C151D0594F38DEE94E06EE100
:101BD00071E00E94D83060E777E180E090E00E94F9
:101BE000D5348DEE94E069E171E00E94D830DF9148
:101BF000CF911F910F91FF90EF90DF90CF900895BC
:101C00001F93182F882369F58DEE94E069EE71E03B
:101C10000E94D83086EC91E061E00E947F268DEE34
:101C200094E06AEA71E00E94D83080E06FED7BE0DA
:101C300043E050E00E94133286EC91E00E942E2493
:101C40008DEE94E060E871E00E94D8308091C80188
:101C50009091C9019093DB018093DA0181E01F919B
:101C600008958DEE94E06FE571E00E9483308DEE73
:101C700094E0612F4AE050E00E948F318DEE94E0B5
:101C80006DE571E00E94D830FFCF2F923F924F92C6
:101C90005F926F927F928F929F92AF92BF92CF92FC
:101CA000DF92EF92FF920F931F93DF93CF93CDB705
:101CB000DEB7C05AD0400FB6F894DEBF0FBECDBF1E
:101CC0008E010F5F1F4FC80161E071E00E949733E2
:101CD0002FE4C22E23E0D22EC6016FE572E0A801E8
:101CE0000E94712BC8010E9429348E01095F1F4F89
:101CF000C80166E071E00E949733C60163E672E0B6
:101D0000A8010E94712BC8010E9429348E01035F33
:101D10001F4FC8016CE071E00E949733C60167E66F
:101D200072E0A8010E94712BC8010E9429348E0123
:101D30000D5E1F4FC80160E171E00E949733C6013C
:101D40006BE672E0A8010E94712BC8010E94293441
:101D50008E01075E1F4FC80163E171E00E94973357
:101D6000C6016FE672E0A8010E94712BC8010E94B3
:101D700029348E01015E1F4FC80166E171E00E94A7
:101D80009733C60163E772E0A8010E94712BC80176
:101D90000E9429348E010B5D1F4FC80169E171E07B
:101DA0000E949733C60167E772E0A8010E94712B79
:101DB000C8010E9429348E01055D1F4FC8016CE1E6
:101DC00071E00E949733C60165E971E0A8010E94A5
:101DD000712BC8010E9429349BE7A92E92E0B92EED
:101DE000C5010E940B22AB01BC01C6010E94482A1A
:101DF000C5010E940322AB01BC01C6010E944E2A0C
:101E0000C5010E94FB21AB01BC01C6010E94542AFE
:101E10008CEB282E82E0382EC1010E940B22AB01F0
:101E2000BC01C6010E947E2AC1010E940322AB01AF
:101E3000BC01C6010E94842AC1010E94FB21AB01A2
:101E4000BC01C6010E948A2AC6014CE454E060E04D
:101E500070E00E94602A00E0802E01E0902ECE010A
:101E600087589F4FB4010E94973389E790E08C0F09
:101E70009D1F0696C356DF4F99838883CD59D04066
:101E8000B4010E94973389E790E08C0F9D1F0C9658
:101E9000C156DF4F99838883CF59D040B4010E9447
:101EA000973317E3E12EF12CEC0EFD1EC7016EE116
:101EB00071E00E94B033C5010E94FB21AB01BC015F
:101EC0008E010F5C1F4FC80122E00E94E233C70160
:101ED000B8010E946033BC01CE0187589F4F0E9419
:101EE0001234C8010E942934C7010E942F34B3E480
:101EF000EB2EF12CEC0EFD1EC70162E271E00E9498
:101F0000B033C5010E940322AB01BC018E01035C0A
:101F10001F4FC80122E00E94E233C701B8010E94AE
:101F20006033BC01C356DF4F88819981CD59D040C1
:101F30000E941234C8010E942934C7010E942F3424
:101F4000AFE4EA2EF12CEC0EFD1EC70166E271E053
:101F50000E94B033C5010E940B22AB01BC018E016F
:101F6000075B1F4FC80122E00E94E233C701B8019E
:101F70000E946033BC01C156DF4F88819981CF59DF
:101F8000D0400E941234C8010E942934C7010E9427
:101F90002F34C601BE0167587F4F43E050E00E94D6
:101FA0001F2BFBE8AF2EB12CAC0EBD1EC501B4013A
:101FB0000E949733E6E04E2E512C4A0C5B1CC20166
:101FC000B4010E9497337CE0672E712C6A0C7B1C55
:101FD000C301B4010E9497336BE5E62EF12CEC0EA1
:101FE000FD1EC7016AE271E00E94B033C1010E9488
:101FF000FB21AB01BC018E010B5A1F4FC80122E02F
:102000000E94E233C701B8010E946033BC01C501E0
:102010000E941234C8010E942934C7010E942F3443
:1020200057E6E52EF12CEC0EFD1EC7016EE271E0C5
:102030000E94B033C1010E940322AB01BC018E019A
:102040000F591F4FC80122E00E94E233C701B801B7
:102050000E946033BC01C2010E941234C8010E9478
:102060002934C7010E942F3443E7E42EF12CEC0EF3
:10207000FD1EC70162E371E00E94B033C1010E94FE
:102080000B22AB01BC018E0103591F4FC80122E096
:102090000E94E233C701B8010E946033BC01C30152
:1020A0000E941234C8010E942934C7010E942F34B3
:1020B000C601B50143E050E00E941F2BC3010E94FE
:1020C0002934C2010E942934C5010E942934C15615
:1020D000DF4F88819981CF59D0400E942934C3565F
:1020E000DF4F88819981CD59D0400E942934CE019B
:1020F00087589F4F0E942934C056DF4F0FB6F8947F
:10210000DEBF0FBECDBFCF91DF911F910F91FF902A
:10211000EF90DF90CF90BF90AF909F908F907F9087
:102120006F905F904F903F902F9008954F925F92E5
:102130006F927F928F929F92AF92BF92CF92DF92D7
:10214000EF92FF920F931F93DF93CF93CDB7DEB73C
:10215000E6970FB6F894DEBF0FBECDBFAFE44A2EB0
:10216000A3E05A2EC2010E94902AF5E2AF2EB12CB4
:10217000AC0EBD1E00E011E0C501B8010E9497330E
:10218000EBE26E2E712C6C0E7D1EC301B8010E9415
:10219000973371E3872E912C8C0E9D1EC401B801DC
:1021A0000E94973367E0E62EF12CEC0EFD1EC7016E
:1021B00066E371E00E94B0335CEBC52E52E0D52E91
:1021C000C6010E941322AB01BC018E010F5F1F4F9D
:1021D000C80122E00E94E233C701B8010E946033C7
:1021E000BC01C5010E941234C8010E942934C701F4
:1021F0000E942F3443E1E42EF12CEC0EFD1EC701AA
:102200006BE371E00E94B033C6010E941F22AB0154
:10221000BC018E01035F1F4FC80122E00E94E23320
:10222000C701B8010E946033BC01C3010E9412348F
:10223000C8010E942934C7010E942F343FE1E32ED8
:10224000F12CEC0EFD1EC70160E471E00E94B0337A
:10225000C6010E942722AB01BC018E01075E1F4F01
:10226000C80122E00E94E233C701B8010E94603336
:10227000BC01C4010E941234C8010E942934C70164
:102280000E942F34C201B50143E050E00E941F2B91
:10229000C4010E942934C3010E942934C5010E944F
:1022A0002934E6960FB6F894DEBF0FBECDBFCF91AE
:1022B000DF911F910F91FF90EF90DF90CF90BF9033
:1022C000AF909F908F907F906F905F904F90089508
:1022D0004F925F926F927F928F929F92AF92BF9236
:1022E000CF92DF92EF92FF920F931F93DF93CF93E2
:1022F000CDB7DEB7CA55D0400FB6F894DEBF0FBEDB
:10230000CDBF0E948C3420914B0330914C034091FF
:102310004D0350914E03621B730B840B950B209160
:10232000990130919A0140919B0150919C01621753
:1023300073078407950708F40CC20E9496100E9448
:102340008C3460934B0370934C0380934D039093B4
:102350004E038FE493E00E94962B8FE493E00E945B
:10236000382A7B018C018BE792E00E94FB219B01C4
:10237000AC01C801B7010E949836882329F58FE483
:1023800093E00E94302A7B018C018BE792E00E944F
:1023900003229B01AC01C801B7010E949836882333
:1023A00099F48FE493E00E94402A7B018C018BE733
:1023B00092E00E940B229B01AC01C801B7010E9470
:1023C0009836882309F4B7C08FE493E00E94382A36
:1023D0002B013C018FE493E00E94302A4B015C0109
:1023E0008FE493E00E94402A6B017C018BE792E02E
:1023F000B301A201950184010E940720E9E4CE2ED9
:10240000D12CCC0EDD1EC60160E071E00E94973336
:1024100076E0872E912C8C0C9D1CC40160E071E04D
:102420000E9497336CE0A62EB12CAC0CBD1CC501EC
:1024300060E071E00E94973357E0E52EF12CEC0E3E
:10244000FD1EC7016EE171E00E94B0338BE792E0A0
:102450000E94FB21AB01BC018E010F5F1F4FC80121
:1024600022E00E94E233C701B8010E946033BC0140
:10247000C6010E941234C8010E942934C7010E947B
:102480002F3443E1E42EF12CEC0EFD1EC70162E275
:1024900071E00E94B0338BE792E00E940322AB010F
:1024A000BC018E01035F1F4FC80122E00E94E2338E
:1024B000C701B8010E946033BC01C4010E941234FC
:1024C000C8010E942934C7010E942F343FE1E32E46
:1024D000F12CEC0EFD1EC70166E271E00E94B033E4
:1024E0008BE792E00E940B22AB01BC018E01075EDC
:1024F0001F4FC80122E00E94E233C701B8010E94C9
:102500006033BC01C5010E941234C8010E94293405
:10251000C7010E942F348FE493E0B60143E050E0FE
:102520000E941F2BC5010E942934C4010E94293436
:10253000C6010E9429348FE493E00E94762A7B0131
:102540008C018CEB92E00E94FB219B01AC01C80145
:10255000B7010E949836882329F58FE493E00E9402
:102560006E2A7B018C018CEB92E00E9403229B017E
:10257000AC01C801B7010E949836882399F48FE412
:1025800093E00E94662A7B018C018CEB92E00E9412
:102590000B229B01AC01C801B7010E949836882329
:1025A00009F4B7C08FE493E00E94762A2B013C0126
:1025B0008FE493E00E946E2A4B015C018FE493E06C
:1025C0000E94662A6B017C018CEB92E0B301A201B0
:1025D000950184010E94072029E4C22ED12CCC0E43
:1025E000DD1EC60160E071E00E94973396E0892EFF
:1025F000912C8C0C9D1CC40160E071E00E9497330B
:102600008CE0A82EB12CAC0CBD1CC50160E071E0C3
:102610000E9497330BE2E02EF12CEC0EFD1EC70159
:102620006AE271E00E94B0338CEB92E00E94FB21E1
:10263000AB01BC018E010B5D1F4FC80122E00E945F
:10264000E233C701B8010E946033BC01C6010E9499
:102650001234C8010E942934C7010E942F3417E3A5
:10266000E12EF12CEC0EFD1EC7016EE271E00E941E
:10267000B0338CEB92E00E940322AB01BC018E01CF
:102680000F5C1F4FC80122E00E94E233C701B8016E
:102690000E946033BC01C4010E941234C8010E9430
:1026A0002934C7010E942F34B3E4EB2EF12CEC0E39
:1026B000FD1EC70162E371E00E94B0338CEB92E033
:1026C0000E940B22AB01BC018E01035C1F4FC801AD
:1026D00022E00E94E233C701B8010E946033BC01CE
:1026E000C5010E941234C8010E942934C7010E940A
:1026F0002F348FE493E0B60143E050E00E941F2B9B
:10270000C5010E942934C4010E942934C6010E94D7
:1027100029348FE493E00E945A2A0E94373720918F
:1027200095013091960140919701509198010E9436
:102730009836882371F08FE493E00E945A2A0E9411
:10274000373760939501709396018093970190932A
:102750009801C65ADF4F0FB6F894DEBF0FBECDBF4B
:10276000CF91DF911F910F91FF90EF90DF90CF906D
:10277000BF90AF909F908F907F906F905F904F90A1
:1027800008952F923F924F925F926F927F928F9215
:102790009F92AF92BF92CF92DF92EF92FF920F93F0
:1027A0001F93DF93CF9300D000D000D0CDB7DEB71A
:1027B0007E836D836A011901FA0184809580A68069
:1027C000B780C501B401A50194010E94D235698387
:1027D0007A838B839C83F601E080F18002811381F0
:1027E00020853185428553850E9417382B013C0195
:1027F000C801B70120E030E040E050EC0E941738FB
:10280000F60124853585468557850E9417389B013A
:10281000AC01C301B2010E94D2352B013C01C801B9
:10282000B701A80197010E94D235A80197010E9423
:1028300017387B018C0169817A818B819C81A5018C
:1028400094010E9417389B01AC01C801B7010E9496
:10285000D23520E030E040E85FE30E94D1359B01B3
:10286000AC01C301B2010E944536ED81FE81608357
:10287000718382839383F10124813581468157815D
:10288000E084F18402851385CA01B9010E941738DA
:102890005B016C01C801B701A80197010E941738BC
:1028A0009B01AC01C601B5010E94D2350E947E3861
:1028B0009B01AC01F10160817181828193810E9451
:1028C0009C360E947036ED81FE8164837583868319
:1028D0009783F1012081318142815381E084F18429
:1028E00002851385CA01B9010E9417385B016C018A
:1028F000C801B701A80197010E9417389B01AC01DC
:10290000C601B5010E94D2350E947E389B01AC0100
:10291000F10164817581868197810E949C360E94B5
:102920007036ED81FE81608771878287938780E0B2
:1029300026960FB6F894DEBF0FBECDBFCF91DF91C4
:102940001F910F91FF90EF90DF90CF90BF90AF90CD
:102950009F908F907F906F905F904F903F902F90BF
:1029600008954091DC015091DD012091DA01309110
:10297000DB018091D901882309F0ACC042175307CD
:1029800008F0A8C0F6CF2050344059F486EC91E00E
:102990000E94A7268DEE94E06FE772E00E94D83087
:1029A000089581FD09C0089586EC91E00E94BB2442
:1029B0009093DD018093DC014091DA015091DB01BD
:1029C0008091DC019091DD018417950768F386EC16
:1029D00091E067E072E00E94AC248091DC0190916C
:1029E000DD012091DA013091DB01821B930B909382
:1029F000DD018093DC0186EC91E06FED71E047E052
:102A000052E00E94A70A86EC91E06FEE71E04FED74
:102A100051E00E94170B86EC91E06BEF71E04FEDF7
:102A200051E02FEE31E00E94C1136091FF017091DF
:102A30000002809101029091020220E030E044E324
:102A400053EC0E9417382BED3FE049E450E40E941C
:102A50009C3660935F027093600280936102909352
:102A600062026091030270910402809105029091CC
:102A7000060220E030E044E353E40E9417382BEDD7
:102A80003FE049E450E40E949C36609363027093F7
:102A9000640280936502909366026091FB017091DD
:102AA000FC018091FD019091FE0120E030E044E3C3
:102AB00053E40E9417382BED3FE049E450E40E94B4
:102AC0009C366093670270936802809369029093CA
:102AD0006A0208951092D90186EC91E00E942E249A
:102AE0008093DE0186EC91E00E94BB249C019093D0
:102AF000DD018093DC018091DE0184FF44CF46CF6D
:102B00002F923F924F925F926F927F928F929F92FD
:102B1000AF92BF92CF92DF92EF92FF920F931F93EB
:102B20000E94B1148CEB92E00E943422A090950197
:102B3000B0909601C0909701D09098016090530298
:102B4000709054028090550290905602C601B501D3
:102B5000A40193010E94D2351B012C01E090570281
:102B6000F09058020091590210915A02A801970161
:102B70000E94D23560937302709374028093750241
:102B800090937602C601B501A40193010E94D1354C
:102B90005B016C01A80197010E94D2353B014C01F9
:102BA00060937702709378028093790290937A020F
:102BB000C201B101A80197010E94D13560936B0257
:102BC00070936C0280936D0290936E02C601B50102
:102BD000A80197010E94D13560936F027093700233
:102BE0008093710290937202C401B30120E030E03F
:102BF0004AE754E40E94983688231CF468EE73E098
:102C000011C0C401B30120E030E84BEB54E40E9452
:102C10000C3818161CF46CED75E004C0C401B30147
:102C20000E94043785E493E00E94871EE0906F02C3
:102C3000F09070020091710210917202C801B70108
:102C400020E030E04AE754E40E94983688231CF4E0
:102C500068EE73E011C0C801B70120E030E84BEB2B
:102C600054E40E940C3818161CF46CED75E004C096
:102C7000C801B7010E94043788E493E00E94871ED0
:102C8000E0906B02F0906C0200916D0210916E0268
:102C9000C801B70120E030E04AE754E40E949836CA
:102CA00088231CF468EE73E011C0C801B70120E06E
:102CB00030E84BEB54E40E940C3818161CF46CED11
:102CC00075E004C0C801B7010E94043782E493E0B4
:102CD0000E94871EE0907302F090740200917502CA
:102CE00010917602C801B70120E030E04AE754E4D1
:102CF0000E94983688231CF468EE73E011C0C80166
:102D0000B70120E030E84BEB54E40E940C38181671
:102D10001CF46CED75E004C0C801B7010E940437D3
:102D20008FE393E00E94871E0E9468111F910F910C
:102D3000FF90EF90DF90CF90BF90AF909F908F90DB
:102D40007F906F905F904F903F902F9008958F925B
:102D50009F92AF92BF92CF92EF920F93DF93CF9358
:102D6000CDB7DEB7C059D0400FB6F894DEBF0FBE66
:102D7000CDBF5C010E9497266EE170E080E090E09C
:102D80000E94D534C50160E00E948F26C50160E134
:102D900041E021E00E94D623C50166E00E94CF23D6
:102DA000C5010E941A24C50160E040E020E00E94B5
:102DB000D623C5010E94BF26C5010E94AB27882EDD
:102DC000C5010E948D27982EC5010E946F27C82E2D
:102DD000C50160E04FE70E94EA23C50160E00E9460
:102DE000AF26C50160E048E60E94EA23C5010E94C3
:102DF0009F2664E170E080E090E00E94D534C50138
:102E00006EE872E049E857E020E000E0EE24E39449
:102E10000E946C26882311F481E0A6C1C50167E1F8
:102E20007AE040EC50E00E946826882311F482E0AA
:102E30009BC1C50163E00E942327C50162E10E9496
:102E4000E323C50164E00E941324C50161E00E94F0
:102E50006427C50163E00E945927C50163E00E9411
:102E60003927C50163E00E94C823C50160E00E94C4
:102E7000C123C50160E00E948726C501682D0E941C
:102E80001827C501692D0E940D27C5016C2D0E94D0
:102E9000022788249924BE016F5F7F4FF401E95215
:102EA000F54FE491DB01A80DB11DEC93282D2F5FA8
:102EB0000894811C911C83E0881580F74B81842F36
:102EC00090E0029630E08217930744F7C501BE01F7
:102ED0006C5F7F4F50E029810A81EE24E394CC247B
:102EE0000E94DA2450E0BE016F5F7F4FF401E95287
:102EF000F54FE491DB01A50FB11DEC935F5F0894E2
:102F0000811C911C543090F34B81842F90E00296E9
:102F1000252F30E0821793074CF7C501BE016C5F87
:102F20007F4F50E029810A81EE24E394CC240E9453
:102F3000DA24C5010E94A726C5010E94BB24482FA0
:102F4000C501BE016F5E7F4F0E94AC24C50162E0E7
:102F50000E940C24C5016CE90E94FE23C50160E5B6
:102F60000E940524C50160E00E94F723C5010E946C
:102F7000A726C50161E00E94B726C50161E00E9455
:102F80007F26C5010E94772650E0BE016F5F7F4F0C
:102F9000F401E952F54FE491DB01A50FB11DEC936B
:102FA0005F5F0894811C911C543090F34B81842FF7
:102FB00090E00296252F30E0821793074CF7C50169
:102FC000BE016C5F7F4F50E029810A81EE24E394BB
:102FD000CC240E94DA2450E0BE016F5F7F4FF401E1
:102FE000E952F54FE491DB01A50FB11DEC935F5F52
:102FF0000894811C911C543090F34B81842F90E0F5
:103000000296252F30E0821793074CF7C501BE01C9
:103010006C5F7F4F50E029810A81EE24E394CC2439
:103020000E94DA2450E0BE016F5F7F4FF401E95245
:10303000F54FE491DB01A50FB11DEC935F5F0894A0
:10304000811C911C543090F34B81842F90E00296A8
:10305000252F30E0821793074CF7C501BE016C5F46
:103060007F4F50E029810A81EE24E394CC240E9412
:10307000DA24C5010E94BB24AC0183309105C8F35A
:10308000C501BE016F5E7F4F0E94AC24C5010E9446
:103090002E2450E0BE016F5F7F4FF401E952F54FDF
:1030A000E491DB01A50FB11DEC935F5F0894811CD7
:1030B000911C543090F34B81842F90E00296252F81
:1030C00030E0821793074CF7C501BE016C5F7F4F5C
:1030D00050E029810A810E944224C5010E94BB243C
:1030E000AC0183309105C8F3C501BE016F5E7F4F0F
:1030F0000E94AC24C5010E942E2450E0BE016F5FE7
:103100007F4FF401E952F54FE491DB01A50FB11DAA
:10311000EC935F5F0894811C911C543090F34B81B9
:10312000842F90E00296252F30E0821793074CF70A
:10313000C501BE016C5F7F4F50E029810A81EE24FA
:10314000E394CC240E94DA24C50160E00E947F262B
:103150008AE290E0F50193838283C5010E94A7264D
:10316000C5010E942E2480E0C057DF4F0FB6F894AF
:10317000DEBF0FBECDBFCF91DF910F91EF90CF900B
:10318000BF90AF909F908F9008951F938DEE94E025
:1031900040E052EC61E070E026E00E94A02E87E75C
:1031A00094E00E947A1D87E794E068E670E00E9450
:1031B000A01C87E794E00E94651D882399F08DEE9E
:1031C00094E065E471E00E9400328DEE94E068E4E2
:1031D00071E00E9400328DEE94E064E771E00E949D
:1031E0000032DDCF8DEE94E066E771E00E940032A0
:1031F00088E18093B8008DEE94E063E672E00E946F
:10320000D83086EC91E00E9444278DEE94E065E48E
:1032100072E00E94D83086EC91E00E94E727882374
:1032200019F067E272E002C06DE072E08DEE94E0AA
:103230000E94D8308DEE94E00E94042F892B31F04B
:103240008DEE94E00E94202F892BA1F78DEE94E063
:1032500069EF71E00E94D83086EC91E00E94A716D9
:10326000182F86EC91E061E370E00E94E62686EC80
:1032700091E068E170E00E94DF2686EC91E068EE64
:103280007FEF0E94D82686EC91E067E270EF0E9403
:10329000FB2686EC91E06BEB7EEF0E94F42686EC39
:1032A00091E063E676E00E94ED26812F1F9108955C
:1032B000FF920F931F93DF93CF93CDB7DEB72C9779
:1032C0000FB6F894DEBF0FBECDBF0E94C518F82E12
:1032D0008BE792E06EE070E00E94D3208BE792E0F3
:1032E00061E070E00E94A1218BE792E040E050E0B5
:1032F00068EC72EC00E010E028EC32E40E9421213E
:103300008CEB92E06EE070E00E94D3208CEB92E0B8
:1033100061E070E00E94A1218CEB92E040E050E07F
:1033200068EC72EC00E010E028EC32E40E9421210D
:103330008DEF92E06EE070E00E94D3208DEF92E07E
:1033400061E070E00E94A1218DEF92E040E050E04A
:1033500068EC72EC00E010E028EC32E40E942121DD
:103360000E94450E8E010F5F1F4FC8010E946D1E07
:10337000CE0104960E946D1ECE0107960E946D1E1E
:10338000CE010A960E946D1ED801EFE3F3E083E0C0
:1033900001900D928150E1F7DE011496E2E4F3E032
:1033A00083E001900D928150E1F7DE011796E5E48C
:1033B000F3E083E001900D928150E1F7DE011A966F
:1033C000E8E4F3E083E001900D928150E1F78DEEA7
:1033D00094E068ED70E00E94D83060E47FE180E026
:1033E00090E00E94D5340E94750D80913E038E01BD
:1033F0000F5F1F4F882361F08DEE94E067EC70E063
:103400000E94D830C80164E070E00E948E0D0BC0AD
:103410008DEE94E065EA70E00E94D830C80168EE55
:1034200073E00E944E0D8DEE94E06BE970E00E9417
:10343000D8308F2D0E94000E8DEE94E065E970E08B
:103440000E94D8302C960FB6F894DEBF0FBECDBFC9
:10345000CF91DF911F910F91FF900895382F413246
:1034600010F040E042C08091C3038823E1F791E06F
:103470009093C3032093C5038FEF80933004109281
:10348000EB0341504093EC034F5F9093C403809152
:10349000C403330F832B8093C4038091C603813010
:1034A00041F41092C6038091C4038093BB0085EC65
:1034B00001C085EE8093BC008091C3038130E1F3AD
:1034C0008091EB03841710F44091EB0320E030E08F
:1034D0000AC0FB01E20FF31FD901A553BC4F8C9129
:1034E00080832F5F3F4F2417A0F3842F08950F93FD
:1034F0001F93582F122F413210F081E04AC0809163
:10350000C3038823E1F782E08093C3030093C503DC
:103510008FEF809330041092EB034093EC03ABECFD
:10352000B3E0FB0102C081918D938E2F861B84171F
:10353000D0F31092C4038091C403550F852B809360
:10354000C4038091C603813041F41092C603809178
:10355000C4038093BB0085EC01C085EE8093BC0062
:10356000112321F08091C3038230E1F38091300474
:103570008F3F11F480E00DC080913004803211F44F
:1035800082E007C080913004803311F084E001C0F4
:1035900083E01F910F910895482F613210F081E070
:1035A00008958091C303843011F082E00895609300
:1035B0000E04ADEEB3E0842F9C01F90102C08191AD
:1035C0008D938E2F841B8617D0F380E008951F9271
:1035D0000F920FB60F9211242F933F934F935F9347
:1035E0006F937F938F939F93AF93BF93EF93FF93CB
:1035F0008091B90090E0887F90708036910509F441
:10360000F2C081369105CCF58832910509F47BC072
:1036100089329105B4F48031910509F46FC081318C
:1036200091053CF4009709F447C1089709F04FC190
:1036300065C08831910509F466C0809709F047C1DB
:1036400082C08034910509F4A4C08134910544F40A
:103650008033910509F482C0C89709F038C189C048
:103660008035910509F489C08835910509F496C023
:103670008834910509F02BC1AEC08839910509F451
:1036800013C189399105ECF48837910509F4ABC071
:10369000893791054CF48836910509F4A4C0803728
:1036A000910509F014C19FC08838910509F4FCC048
:1036B0008039910509F49DC08038910509F007C152
:1036C00098C0803B910509F4C6C0813B91054CF43C
:1036D000803A910509F49FC0883A910509F0F7C036
:1036E000BAC0803C910509F4E3C0883C910509F417
:1036F000DFC0883B910509F0EAC0C2C08091C403D5
:103700008093BB00CFC09091EB038091EC0398179E
:1037100068F49091EB03E92FF0E0E553FC4F8081D2
:103720008093BB009F5F9093EB03BCC08091C50367
:10373000882309F44BC085ED8093BC008091BC00C8
:1037400084FDFCCFC2C080E28093300485ED80937D
:10375000BC008091BC0084FDFCCFB7C080E38093A7
:10376000300485ED8093BC008091BC0084FDFCCFCB
:10377000ACC088E3809330049BC08091EB039091B0
:10378000BB00E82FF0E0E553FC4F90838F5F809300
:10379000EB039091EB038091EC0382C08091EB03EB
:1037A0009091BB00E82FF0E0E553FC4F90838F5FD2
:1037B0008093EB038091C503882341F085ED8093CE
:1037C000BC008091BC0084FDFCCF7FC081E0809371
:1037D000C60384EA6EC085ED8093BC008091BC0076
:1037E00084FDFCCF72C083E08093C30310922F044A
:1037F00059C080912F04803208F056C080912F0468
:103800009091BB00E82FF0E0E15FFB4F90838F5F6A
:1038100080932F0447C080912F04803230F4E091D0
:103820002F04F0E0E15FFB4F108285ED8093BC0038
:103830008091BC0084FDFCCF1092C30360912F04E3
:10384000E091C903F091CA038FE094E070E009951C
:1038500010922F042DC084E08093C30310920D04B6
:1038600010920E04E091C703F091C803099580916E
:103870000E04882329F481E080930E041092ED0356
:1038800090910D04E92FF0E0E351FC4F808180938B
:10389000BB009F5F90930D0490910D0480910E04E6
:1038A000981710F485EC01C085E88093BC000FC028
:1038B00085EC8093BC0009C01092300485ED8093A4
:1038C000BC008091BC0084FDFCCF1092C303FF912B
:1038D000EF91BF91AF919F918F917F916F915F9188
:1038E0004F913F912F910F900FBE0F901F90189501
:1038F0001092C30381E08093C5031092C60382E156
:1039000061E00E947C3583E161E00E947C35E9EB57
:10391000F0E080818E7F808380818D7F808388E44A
:103920008093B80085E48093BC00089581E0809383
:1039300076046093530410927404109275040895F1
:1039400081E0809376046093530410927404109283
:10395000750408952091520430E080915104281B91
:103960003109C901089540915104809152044817CA
:1039700018F02FEF3FEF0AC0E42FF0E0EF5CFB4FB1
:103980008081282F30E04F5F40935104C901089592
:10399000E091510480915204E81718F0EFEFFFEF27
:1039A00006C0F0E0EF5CFB4F8081E82FF0E0CF0134
:1039B0000895089510927A041092790488EE93E0A5
:1039C000A0E0B0E080937B0490937C04A0937D04FE
:1039D000B0937E0489EA91E0909378048093770411
:1039E0000895CF92DF92EF92FF920F931F93CF93A0
:1039F000DF937C016B018A01809176048823A1F01A
:103A0000C0E0D0E00DC0D701ED91FC91D601AC0F24
:103A1000BD1F0190F081E02DC7016C9109952196A1
:103A2000C017D10780F304C0CB01642F0E94CC1AC9
:103A3000C801DF91CF911F910F91FF90EF90DF9020
:103A4000CF900895DF93CF930F92CDB7DEB7FC01EF
:103A50006983809176048823C9F08091750480324F
:103A600038F081E090E09383828320E030E015C05D
:103A700080917404E82FF0E0EC5AFB4F9981908319
:103A80008F5F809374048093750405C0CE01019606
:103A900061E00E94CC1A21E030E0C9010F90CF9183
:103AA000DF9108950F93062F8091530464E574E02D
:103AB0004091750421E00E94771A109274041092CC
:103AC0007504109276040F91089561E00E94521DD2
:103AD0000895413208F040E2862F61E374E00E94CD
:103AE0002E1A1092510480935204089521E00E94EE
:103AF000691D08951092510410925204109274049A
:103B0000109275040E94781C08950F931F93CF9311
:103B1000DF93FC01738D76957170A685B7859585C9
:103B2000772329F08C91892309F454C004C08C9127
:103B3000892309F04FC08389948920E001972FEFF2
:103B40008F3F9207D9F7C589D689A685B785158590
:103B500060E031E040E050E000E0CE01202F01972E
:103B60002FEF8F3F9207D9F78C91812311F0632BB0
:103B700003C0832F80956823330F4F5F5F4F48301A
:103B8000510559F78789908D20E001972FEF8F3FDE
:103B90009207D9F7711160958091C5042091C604F0
:103BA00090E001968F73907030E08217930779F060
:103BB000E091C504F0E0EB57FB4F60838091C504B2
:103BC00090E001968F7390708093C50403C0838D3D
:103BD0008160838FDF91CF911F910F9108951F9284
:103BE0000F920FB60F9211242F933F934F935F9331
:103BF0006F937F938F939F93AF93BF93EF93FF93B5
:103C00008091830490918404009711F00E94851D97
:103C1000FF91EF91BF91AF919F918F917F916F91A4
:103C20005F914F913F912F910F900FBE0F901F907A
:103C300018951F920F920FB60F9211242F933F9356
:103C40004F935F936F937F938F939F93AF93BF93A4
:103C5000EF93FF938091830490918404009711F077
:103C60000E94851DFF91EF91BF91AF919F918F9120
:103C70007F916F915F914F913F912F910F900FBE68
:103C80000F901F9018951F920F920FB60F9211244C
:103C90002F933F934F935F936F937F938F939F9354
:103CA000AF93BF93EF93FF9380918304909184042B
:103CB000009711F00E94851DFF91EF91BF91AF9188
:103CC0009F918F917F916F915F914F913F912F9134
:103CD0000F900FBE0F901F901895FC018091C704A4
:103CE0008C3090F480838F5F8093C704815090E084
:103CF000FC01EE0FFF1FE80FF91FE853FB4F88EBA5
:103D00009BE09283818308958FEF80830895FC0167
:103D100020812C30B8F58181992787FD909548E85E
:103D200050E0481B590B440F551F440F551F641793
:103D3000750784F08281992787FD909548E552E0C8
:103D4000481B590B440F551F440F551F6417750727
:103D50000CF4AB0142505040CA01AA2797FDA09530
:103D6000BA2F880F991FAA1FBB1F4FB7F89430E0D6
:103D7000F901EE0FFF1FE20FF31FE853FB4F928391
:103D800081834FBF0895CF92DF92EF92FF921F93EE
:103D9000CF93DF93EC01162F7A01690188818C3073
:103DA00008F064C0862F61E00E943D35888190E074
:103DB000FC01EE0FFF1FE80FF91FE853FB4F1F73C5
:103DC0008081807C812B808380E292E08E199F0924
:103DD00064E070E00E940D39698380E699E08C19F7
:103DE0009D0964E070E00E940D396A83A8818A2FE2
:103DF0006CE00E940139682F70E0AB01440F551F41
:103E0000460F571F440F551F440F551F20E030E049
:103E1000C901840F951FFC01EE0FFF1FE80FF91F6A
:103E2000E853FB4F808186FD15C02F5F3F4F2C303C
:103E3000310571F724C01092800082E080938100E8
:103E40001092850010928400B19A80916F00826078
:103E500080936F008A2F90E0FC01EE0FFF1FE80FA8
:103E6000F91FE853FB4F8081806480838881DF9154
:103E7000CF911F91FF90EF90DF90CF900895672B27
:103E8000D1F2E8CF40E252E020E639E00E94C31EC2
:103E900008951F920F920FB60F9211242F933F9304
:103EA0004F935F936F937F938F939F93AF93BF9342
:103EB000EF93FF938091EC0487FF05C0109285007B
:103EC000109284002BC02091EC04332727FD3095FD
:103ED0008091C70490E02817390704F58091EC041D
:103EE000992787FD9095FC01EE0FFF1FE80FF91F42
:103EF000E853FB4F808186FF11C08091EC04992725
:103F000087FD9095FC01EE0FFF1FE80FF91FE853A6
:103F1000FB4F80818F7360E00E947C358091EC04C0
:103F20008F5F8093EC042091EC04332727FD3095BC
:103F30008091C70490E0281739070CF04EC080919B
:103F4000EC048C300CF049C0209184003091850045
:103F50008091EC04992787FD9095FC01EE0FFF1FDF
:103F6000E80FF91FE853FB4F81819281820F931F65
:103F700090938900809388008091EC04992787FDB5
:103F80009095FC01EE0FFF1FE80FF91FE853FB4F60
:103F9000808186FF2BC08091EC04992787FD909546
:103FA000FC01EE0FFF1FE80FF91FE853FB4F808164
:103FB0008F7361E00E947C3519C080E49CE905C0E4
:103FC000809184009091850004969093890080935D
:103FD00088008FEF8093EC0409C080918400909159
:103FE0008500049680549C4940F3EACFFF91EF91FD
:103FF000BF91AF919F918F917F916F915F914F9101
:104000003F912F910F900FBE0F901F9018952F92F8
:104010003F924F925F926F927F928F929F92AF9258
:10402000BF92CF92DF92EF92FF920F931F93DF9395
:10403000CF9300D000D0CDB7DEB71C0149835A839F
:104040006B837C834801590126013701CB01BA01FA
:1040500020E030E040E050E00E94983687FD8CC0C0
:10406000C501B40120E030E040E050E00E94983605
:1040700087FD82C0C701B60120E030E040E050E09B
:104080000E94983687FD78C089819A81AB81BC8176
:10409000F10180839183A283B383D10114968D9221
:1040A0009D92AD92BC921797C086D186E286F38628
:1040B00064A975A986A997A90E94353720E030E048
:1040C0004AE754E40E949C367B018C0189819A81E5
:1040D000AB81BC81F10184879587A687B787C5012D
:1040E000B401A80197010E9417385B016C01D1014E
:1040F00050966D937D938D939C935397C301B2011A
:10410000A80197010E949C367B018C01F101648B10
:10411000758B868B978B808D918D019769F560E00B
:1041200070E080E090E029813A814B815C810E94BF
:10413000D135D1011C966D937D938D939C931F97E0
:1041400060E070E080E090E0A60195010E94D1352A
:10415000F101608B718B828B938B60E070E080E06B
:1041600090E0A80197010E94D135D10154966D933A
:104170007D938D939C9357970F900F900F900F9076
:10418000CF91DF911F910F91FF90EF90DF90CF9033
:10419000BF90AF909F908F907F906F905F904F9067
:1041A0003F902F900895AF92BF92CF92DF92EF92FF
:1041B000FF920F931F93CF93DF93EC011616170610
:1041C000ACF55B01CC24B7FCC094DC2CC601B50176
:1041D0000E9437377B018C016CA97DA98EA99FA90C
:1041E0000E9435379B01AC01C801B7010E949C3683
:1041F0007B018C01688979898A899B89A80197014B
:104200000E941738688B798B8A8B9B8B6C897D8990
:104210008E899F89A80197010E949C366C8B7D8BAB
:104220008E8B9F8BACAABDAACEAADFAADF91CF91BD
:104230001F910F91FF90EF90DF90CF90BF90AF90C4
:1042400008954F925F926F927F928F929F92AF925A
:10425000BF92CF92DF92EF92FF920F931F93CF9373
:10426000DF93EC013A014B0178018901CB01BA01DE
:10427000A80197010E940C3887FF52C068AE79AE42
:104280008AAE9BAEECAEFDAE0EAF1FAFC05CDF4F93
:104290008881C054D040882309F442C04C8C5D8C86
:1042A000F201A080B180C280D380C601B501A8010F
:1042B00097010E940C38181634F4F201E082F18262
:1042C000028313830DC0C601B501A40193010E94AE
:1042D000983688232CF4F201608271828282938264
:1042E000ACA0BDA0CEA0DFA0ECACFDAC0EAD1FAD70
:1042F000C601B501A80197010E940C38181664F098
:10430000E8ACF9AC0AAD1BADC601B501A801970137
:104310000E949836882324F4ECA2FDA20EA31FA3CA
:10432000DF91CF911F910F91FF90EF90DF90CF9091
:10433000BF90AF909F908F907F906F905F904F90C5
:1043400008959F92AF92BF92CF92DF92EF92FF9229
:104350000F931F93CF93DF93EC0199246130710584
:1043600011F499249394C05CDF4F8881C054D040ED
:1043700091E08927981681F5EC8DFD8DE080F18024
:1043800002811381ECA2FDA20EA31FA3EA8DFB8D77
:1043900080819181A281B38188A799A7AAA7BBA791
:1043A000ACACBDACCEACDFACC801B701A601950189
:1043B0000E940C38181664F0A8ACB9ACCAACDBACDF
:1043C000C801B701A60195010E949836882324F4FC
:1043D000ACA2BDA2CEA2DFA2C05CDF4F9882DF916B
:1043E000CF911F910F91FF90EF90DF90CF90BF90F2
:1043F000AF909F900895FC012081318142815381CB
:10440000B901CA010895FC01248135814681578193
:10441000B901CA010895FC01208531854285538583
:10442000B901CA010895FC01648575858685978563
:1044300024A535A546A557A50E9417380895FC0167
:1044400024A135A146A157A1B901CA010895FC01D3
:104450006489758986899789905820A931A942A9CC
:1044600053A90E94173808952F923F924F925F925E
:104470006F927F928F929F92AF92BF92CF92DF9274
:10448000EF92FF920F931F93CF93DF93EC01C05CE9
:10449000DF4F8881C054D040882309F4B8C00E94FF
:1044A0008C341B012C0188A199A1AAA1BBA1A20156
:1044B0009101281B390B4A0B5B0B8CA99DA9AEA956
:1044C000BFA9281739074A075B0708F4A0C0EA8D7F
:1044D000FB8D6080718082809380EE8DFF8D608186
:1044E000718182819381A40193010E94D1356CA7CF
:1044F0007DA78EA79FA7288939894A895B890E9451
:1045000017382CA13DA14EA15FA10E94D2357B019D
:104510008C016CA37DA38EA39FA3ACACBDACCEAC31
:10452000DFACA60195010E940C38181664F0A8AC07
:10453000B9ACCAACDBACC801B701A60195010E94B9
:104540009836882324F4ACA2BDA2CEA2DFA2C40177
:10455000B30128A539A54AA55BA50E94D1355B0109
:104560006C0168AB79AB8AAB9BAB6C857D858E8526
:104570009F852CA53DA54EA55FA50E9417382CA1AF
:104580003DA14EA15FA10E94D2357B018C01C601E5
:10459000B5012C893D894E895F890E9417389B019E
:1045A000AC01C801B7010E94D1357B018C01DCACA4
:1045B000CDACBEACAFAC2D2D3C2D4B2D5A2D0E9459
:1045C0000C38181674F0D8ACC9ACBAACABACC80196
:1045D000B7012D2D3C2D4B2D5A2D0E949836882346
:1045E00034F48D2D9C2DAB2DBA2D7C018D01EC8DDD
:1045F000FD8DE082F1820283138368A679A68AA6E4
:104600009BA628A239A24AA25BA281E001C080E059
:10461000DF91CF911F910F91FF90EF90DF90CF909E
:10462000BF90AF909F908F907F906F905F904F90D2
:104630003F902F9008952F923F924F925F926F92EA
:104640007F928F929F92AF92BF92CF92DF92EF9222
:10465000FF920F931F93DF93CF93CDB7DEB74C013B
:1046600027013801298C3A8CFC01558F448F738FB8
:10467000628F378F268F80E4E82EF12CE80CF91C2E
:10468000F7011082C40140E050E06FE773EC00E0F6
:1046900010E02FE733E40E9421218EE190E0A0E0BA
:1046A000B0E0F40184AB95ABA6ABB7ABF70180816A
:1046B000882399F1F401808D918D2816390669F1CE
:1046C00060E070E080E090E0248535854685578580
:1046D0000E94D135F401648775878687978760E0EB
:1046E00070E080E090E020893189428953890E94FE
:1046F000D135F401608B718B828B938B60E070E01D
:1047000080E090E024893589468957890E94D13517
:10471000F401648B758B868B978BF401318E208E20
:10472000C401B301A20196018501CD88DE88EF881E
:10473000F88C0E9407200E948C34F40124A935A92A
:1047400046A957A9621B730B840B950B60A371A339
:1047500082A393A3CF91DF911F910F91FF90EF90D0
:10476000DF90CF90BF90AF909F908F907F906F9091
:104770005F904F903F902F900895FC0188E68083D2
:104780000895FC01462F808161E70E9477280895F3
:10479000FC01462F808160E70E9477280895FC0184
:1047A000462F80816EE60E9477280895FC01962F9F
:1047B0009F71211190624111906480816DE6492FB3
:1047C0000E9477280895FC01462F808168E30E94AB
:1047D00077280895FC01862F643040F463E0869FBB
:1047E000B00111246B5D80810E9477280895FC013F
:1047F000462F808162E20E9477280895FC01462FAF
:10480000808161E20E9477280895FC01462F808113
:1048100060E20E9477280895FC01462F80816FE1B5
:104820000E9477280895FC01462F808169E10E944B
:10483000772808950F931F938C01AC014F5F5F4F52
:1048400020919D0130919E01FC0180816FE60E94C4
:104850003929F80181811F910F9108950F931F93BA
:104860008C01AC014F5F5F4F20919D0130919E0103
:10487000FC0180816AE30E943929F80181811F913E
:104880000F9108954F925F926F927F929F92AF9295
:10489000BF92CF92DF92EF92FF920F931F93CF932D
:1048A000DF936C013B015A01922EE02E622F40E013
:1048B00020E00E94D623C601602F0E94CF23C0E0D3
:1048C000D0E0412C91E0592E34C0CE014096A8167C
:1048D000B90618F080E1F82E02C0FA2CFC1A2F2D30
:1048E00030E0C2018E1991098217930714F4FE2C4F
:1048F000F19493012C0F3D1F00919D0110919E0199
:10490000F60180816FE64F2D0E948728CF0DD11DC3
:10491000EF0CCA15DB0568F4EE2009F49394C60188
:10492000692D40E020E00E94D623C6016E2D0E9432
:10493000CF23CA15DB0548F2DF91CF911F910F916C
:10494000FF90EF90DF90CF90BF90AF909F907F90BF
:104950006F905F904F9008950F931F93FC019B0100
:1049600000919D0110919E01808164E70E9487283B
:104970001F910F910895EF92FF920F931F937C0167
:104980009C012F5F3F4F00919D0110919E01FC0102
:10499000808162E742E00E948728F701918180E0F0
:1049A000228130E0282B392BC9011F910F91FF90F4
:1049B000EF9008953F924F925F926F927F928F9205
:1049C0009F92AF92BF92CF92DF92EF92FF920F939E
:1049D0001F93DF93CF9300D000D0CDB7DEB75C013B
:1049E0007A8369832A01622E702E3E2CEC2C622F72
:1049F00040E020E00E94D623C501602F0E94CF2313
:104A0000332029F080E190E00E945A2C4C01EE20E6
:104A100029F080E190E00E945A2C6C011C821B82DC
:104A20007BC08B819C8140964816590618F0E0E1C6
:104A3000FE2E03C0F42C8B81F81A2F2D30E080E07D
:104A400091E0871991098217930714F4F72CF194D8
:104A5000E981FA81AB81BC81EA0FFB1FEE2089F06E
:104A6000AF0120E030E00AC0FA018491F601E20FC4
:104A7000F31F80832F5F3F4F4F5F5F4F2F15A0F3D2
:104A800001C06F01D5018C916FE64F2D96010E94F8
:104A90004428332051F18114910439F1C501662D68
:104AA00040E020E00E94D623C501672D0E94CF235D
:104AB00000919D0110919E01F50180816FE64F2DBF
:104AC00094010E948728C601B4014F2D50E00E9436
:104AD0009E06009751F0C4010E94F72CEE2019F0B9
:104AE000C6010E94F72C80E028C08B819C818F0D2D
:104AF000911D9C838B837F0C8415950568F477202A
:104B000009F46394C501662D40E020E00E94D6239D
:104B1000C501672D0E94CF23AB81BC81A415B505CB
:104B200008F47FCF332019F0C4010E94F72CEE2047
:104B300019F0C6010E94F72C81E00F900F900F90A2
:104B40000F90CF91DF911F910F91FF90EF90DF9029
:104B5000CF90BF90AF909F908F907F906F905F901D
:104B60004F903F9008952F923F924F925F926F9295
:104B70007F928F929F92AF92BF92CF92EF92FF92CD
:104B80000F931F93CF93DF932C014B011A01F22E49
:104B9000222309F47CC088E090E00E945A2C5C013A
:104BA00076C0AE014F5F5F4FF401EC0FFD1FFF2099
:104BB00091F08491BA016F5F7F4F480D591DFA0142
:104BC0009491EB012196680D791DFB016491E82E0B
:104BD000092F162F0DC0E080F401E40FF51F0081AE
:104BE000CA010196F401E80FF91F1081EC0121962A
:104BF000112389F1FF20F1F0133030F0C501612F4E
:104C000070E00E948F2D5C01A4014C0F5D1F20E01D
:104C100030E0612F70E00AC0FA018491F501E20FE3
:104C2000F31F80832F5F3F4F4F5F5F4F261737077C
:104C300098F303C05401AC0EBD1E612E7724C2014F
:104C4000B501A3012E2DEE24E394CC240E94DA2496
:104C5000882301F515C0F401EC0FFD1FCE0101966C
:104C6000FF2019F0EC01249102C02081EC012130D9
:104C700039F4F201808168E342E30E9477280CC096
:104C8000FF2019F0C5010E94F72C80E00FC0C0E0A2
:104C9000D0E002C0C60DD71DC215D30508F481CFE0
:104CA000FF2019F0C5010E94F72C81E0DF91CF9120
:104CB0001F910F91FF90EF90CF90BF90AF909F907A
:104CC0008F907F906F905F904F903F902F900895BE
:104CD00021E00E94B3250895CF92EF920F93CC2448
:104CE000C3940E94DA240F91EF90CF900895FC01B5
:104CF00080816AE643E021E00E948E290895FC014C
:104D0000262F80816AE647E00E948E290895FC01E3
:104D1000262F808160E040E00E948E290895FC01EA
:104D2000262F80816BE646E00E948E290895FC01C3
:104D300080816BE647E021E00E948E290895FC0106
:104D400080816AE641E021E00E948E290895FC01FD
:104D500080816AE642E021E00E948E290895FC01EC
:104D6000262F80816AE645E00E948E290895FC0185
:104D7000262F80816AE646E00E948E290895EF92F0
:104D8000FF920F931F937C019C012F5F3F4F009177
:104D90009D0110919E01FC01808160E040E00E9435
:104DA0000A2AF70181811F910F91FF90EF900895DA
:104DB000FC01AB01808167E10E9432280895FC016B
:104DC000AB01808165E10E9432280895FC01AB01AE
:104DD000808163E10E9432280895FC01AB0180814B
:104DE0006AE00E9432280895FC01AB01808168E0EE
:104DF0000E9432280895FC01AB01808166E00E9488
:104E0000322808950F93FC01062F808162E046E06E
:104E100026E00E9444290F9108950F93FC01062F6C
:104E2000808161E046E026E00E9444290F910895C8
:104E30000F93FC01062F808160E046E026E00E948F
:104E400044290F9108950F93FC01062F80816BE692
:104E500042E023E00E9444290F9108950F93FC0142
:104E6000062F80816CE144E022E00E9444290F91EA
:104E700008950F93FC01062F80816BE144E022E04E
:104E80000E9444290F9108950F931F938C0161E0B4
:104E90000E942327C80160E00E943927C80160E012
:104EA0000E942E27C80160E00E948F261F910F915B
:104EB00008950F93FC01062F80816AE142E023E010
:104EC0000E9444290F9108950F93FC01062F8081C1
:104ED0006AE145E023E00E9444290F910895CF92B2
:104EE000DF92EF92FF920F931F936C018C010F5F83
:104EF0001F4FE0909D01F0909E01FC01808162E0D7
:104F000046E026E00E94C829F60181811F910F9199
:104F1000FF90EF90DF90CF900895CF92DF92EF92C5
:104F2000FF920F931F936C018C010F5F1F4FE09056
:104F30009D01F0909E01FC01808161E046E026E049
:104F40000E94C829F60181811F910F91FF90EF9077
:104F5000DF90CF900895CF92DF92EF92FF920F9360
:104F60001F936C018C010F5F1F4FE0909D01F0902B
:104F70009E01FC01808160E046E026E00E94C82995
:104F8000F60181811F910F91FF90EF90DF90CF90FC
:104F90000895CF92DF92EF92FF920F931F936C01CF
:104FA0008C010F5F1F4FE0909D01F0909E01FC016E
:104FB000808165E746E026E00E94C829F6018181EC
:104FC0001F910F91FF90EF90DF90CF9008950E9476
:104FD000C92790E0843309F491E0892F0895CF9296
:104FE000DF92FF920F931F93CF93DF93582F162FCB
:104FF000042F690187E794E0652F0E94961C87E7DC
:1050000094E0612F0E94221DC02FD0E0CC0FDD1F45
:10501000FF2412C0000F111F0C0D1D1DF80161812E
:1050200087E794E00E94221D87E794E0F801608101
:105030000E94221DF2E0FF0E0F2D10E00C171D073D
:105040004CF387E794E00E94651D90E0882309F403
:1050500091E0892FDF91CF911F910F91FF90DF9009
:10506000CF900895DF93CF9300D0CDB7DEB75A83AA
:10507000498341E09E012F5F3F4F0E94EF270F9031
:105080000F90CF91DF910895EF92FF920F931F93AE
:10509000CF93DF93582F162FE42E022FF32E87E79E
:1050A00094E0652F0E94961C87E794E0612F0E9490
:1050B000221D202F3F2DC901EC0110E006C087E71B
:1050C00094E069910E94221D1F5F1E15C0F387E7BF
:1050D00094E00E94651D90E0882309F491E0892FF7
:1050E000DF91CF911F910F91FF90EF900895DF9383
:1050F000CF930F92CDB7DEB7498341E09E012F5F7A
:105100003F4F0E9444280F90CF91DF9108952F9236
:105110003F924F925F926F927F928F929F92AF9247
:10512000BF92CF92DF92EF92FF920F931F93DF9384
:10513000CF9300D000D00F92CDB7DEB7882E698311
:10514000942E3B832A830E948C345B016C01FF24E4
:10515000EE24292C33242801662477244BC087E7CA
:1051600094E0682D0E94961C87E794E069810E9474
:10517000221D87E794E00E94651D87E794E0682D73
:105180000E94961CA1014E1951094132510514F09B
:1051900040E250E087E794E0682D0E94761D2F2DB5
:1051A000332727FD30958A819B81280F391F3D8346
:1051B0002C8387E794E00E94AA1C892B09F452C033
:1051C0000115110561F00E948C346A197B098C0964
:1051D0009D09641575058605970508F043C087E7A6
:1051E00094E00E94B31CEC81FD818193FD83EC83EC
:1051F000F394DFCFE91408F4B2CF01151105C9F01B
:105200000E948C346A197B098C099D09980140E041
:1052100050E0621773078407950758F02F2D332746
:1052200027FD3095892D90E02817390714F4FF24C5
:10523000FA948F2D0F900F900F900F900F90CF91A9
:10524000DF911F910F91FF90EF90DF90CF90BF9073
:10525000AF909F908F907F906F905F904F903F9016
:105260002F900895892DF0E2F91508F480E2E80EF8
:10527000C1CF0F931F93FA01890141E09F010E9462
:1052800087281F910F910895DF92EF92FF920F935D
:105290001F93DF93CF930F92CDB7DEB7E82ED62EB4
:1052A000F42E122F20919D0130919E01AE014F5F8F
:1052B0005F4F0E943929882341F1212F30E04F2D83
:1052C00050E04F5F5F4F421B530B81E090E002C004
:1052D000880F991F1A95E2F70197042E02C0880FD4
:1052E000991F0A94E2F7202F30E002C0220F331FEB
:1052F0004A95E2F7482F4095598145238223482B50
:1053000049838E2D6D2D0E9477280F90CF91DF91CC
:105310001F910F91FF90EF90DF900895EF92FF9211
:105320000F931F93DF93CF930F92CDB7DEB7F82E75
:10533000E62E042F122F20919D0130919E01AE0187
:105340004F5F5F4F0E9439292981112351F081E07D
:1053500090E002C0880F991F0A95E2F7422F482B70
:105360000AC081E090E002C0880F991F0A95E2F719
:10537000482F4095422349838F2D6E2D0E94772818
:105380000F90CF91DF911F910F91FF90EF900895B3
:10539000CF92DF92EF92FF920F931F93DF93CF9301
:1053A0000F92CDB7DEB7C42ED22E9701AE014F5F5C
:1053B0005F4F0E943929682F882309F18D2D90E0D5
:1053C0004C2D50E04F5F5F4F481B590B21E030E000
:1053D00002C0220F331FDA94E2F721503040042E2E
:1053E00002C0220F331F0A94E2F78981822390E0E2
:1053F00002C0959587954A95E2F7F8018083862F3C
:105400000F90CF91DF911F910F91FF90EF90DF9060
:10541000CF900895DF92EF92FF920F931F93DF9347
:10542000CF930F92CDB7DEB7D42E79019801AE019C
:105430004F5F5F4F0E94392921E030E002C0220F08
:10544000331FDA94E2F799819223F70190830F904A
:10545000CF91DF911F910F91FF90EF90DF90089512
:10546000FC012081318142815381B901CA01089533
:10547000FC012085318542855385B901CA01089513
:10548000FC012481358146815781B901CA01089503
:10549000FC0144835583668377830895FC01408330
:1054A0005183628373830895FC014087518762872B
:1054B00073870895FC01648D758D868D978D089591
:1054C000FC01448F558F668F778F0895FC01208DE6
:1054D000318D428D538DB901CA010895FC01248993
:1054E000358946895789B901CA010895FC01208987
:1054F000318942895389B901CA010895FC01408F5D
:10550000518F628F738F0895FC01448B558B668B8E
:10551000778B0895FC01408B518B628B738B0895C0
:105520006F927F928F929F92BF92CF92DF92EF9273
:10553000FF920F931F93DF93CF93CDB7DEB72C97D6
:105540000FB6F894DEBF0FBECDBF3C018E010F5FDA
:105550001F4FC80160E971E00E949733C80161E9FB
:1055600071E00E9436336301EE24FF24B02E012F38
:1055700027E0822E912C8C0E9D1ED60190968D9147
:105580009C919197892BE1F1B701660F771F6E0D02
:105590007F1D660F771F6C5C7F4F660D771D8B2D0F
:1055A000902F0E9446338B2D902F63E971E00E946B
:1055B0003633D6019096ED91FC91919740815181BF
:1055C00062817381C40122E00E94E2338B2D902F0F
:1055D000B4010E944633C4010E9429348B2D902FC0
:1055E00061E971E00E9436330894E11CF11CE2E0AD
:1055F000F0E0CE0EDF1EFAE0EF16F10409F0BDCFA9
:105600008DEE94E08E010F5F1F4FB8010E94EC30C9
:10561000C8010E9429342C960FB6F894DEBF0FBE45
:10562000CDBFCF91DF911F910F91FF90EF90DF9051
:10563000CF90BF909F908F907F906F900895AF9282
:10564000BF92CF92DF92EF92FF920F931F93DF935F
:10565000CF9300D000D000D0CDB7DEB7F62EE72E26
:105660005A018E010F5F1F4FC80160E971E00E946F
:1056700097332F2D3E2DC9016C01EE24FF2415C058
:10568000C80161E971E00E943633C801B6010E9489
:105690004633C80161E971E00E9436330894E11C89
:1056A000F11C86E090E0C80ED91EEA14FB0444F316
:1056B0008DEE94E0B8010E94EC30C8010E942934BC
:1056C00026960FB6F894DEBF0FBECDBFCF91DF9107
:1056D0001F910F91FF90EF90DF90CF90BF90AF9010
:1056E0000895DC01FC0120E030E080A191A1892B2C
:1056F000B1F4F9017096EE0FFF1FEA0FFB1F7183E3
:105700006083C901880F991F820F931F880F991F0B
:10571000C4968A0F9B1FBA010E94123408952F5F0E
:105720003F4F32962A30310501F70895AF92BF926C
:10573000DF92EF92FF920F931F93DF93CF93CDB73A
:10574000DEB72C970FB6F894DEBF0FBECDBF5C015D
:105750008E010F5F1F4FC80160E971E00E9497330F
:105760008DEE94E00E943E2F8DEE94E00E94042F77
:10577000892B09F48BC090E3D92E0DC08DEE94E0F7
:105780000E94202F682F80E3D81611F4D62E03C074
:10579000C8010E9423338DEE94E00E94042F892BD0
:1057A00069F78E010F5F1F4FC80160E971E00E9429
:1057B0009D32882309F06AC0C8010E94903220E01F
:1057C00030E04AE754E40E949C367B018C01CE0114
:1057D000079660E971E00E949733E0E5DE16C9F0B4
:1057E000ED155CF0F5E4DF1661F189E4D816B9F047
:1057F000E4E4DE1609F040C018C0F2E5DF16B9F1A6
:10580000DF164CF183E5D816B1F0E7E5DE16A1F519
:1058100028C0F501E086F186028713872DC0F501C7
:10582000E082F1820283138327C0F501E482F582CE
:105830000683178321C0F501E486F586068717875E
:105840001BC0C801B7010E940437F501648F758F32
:10585000868F978F11C0F501E08AF18A028B138B36
:105860000BC0F501E08EF18E028F138F05C0F5019C
:10587000E48AF58A068B178BCE01019660E971E008
:105880000E94C933CE0107960E942934CE010196A9
:105890000E9429342C960FB6F894DEBF0FBECDBF00
:1058A000CF91DF911F910F91FF90EF90DF90BF900C
:1058B000AF9008950F931F93CF93DF93BC01823075
:1058C000910510F462E070E0E0919905F0919A057D
:1058D00040E050E0A0E0B0E024C0808191818617D4
:1058E0009707D0F08617970771F4828193811097FC
:1058F00029F013969C938E9312972CC090939A053F
:105900008093990527C04115510519F08417950713
:1059100018F48D01AC01EF01DF01828193819C01BC
:10592000F9013097D1F641155105F9F0CA01861BEE
:10593000970B8430910580F48A819B8101151105B4
:1059400021F0F8019383828304C090939A05809399
:105950009905FE01329645C0FE01E80FF91F6193DB
:1059600071930297998388833CC0809197059091A9
:105970009805892B41F48091A1019091A201909307
:105980009805809397054091A3015091A40141157A
:10599000510541F44DB75EB780919F019091A001F0
:1059A000481B590B2091970530919805241735070E
:1059B000B0F4CA01821B930B8617970780F0AB01E6
:1059C0004E5F5F4F8417950750F0420F531F50935F
:1059D000980540939705F9016193719302C0E0E047
:1059E000F0E0CF01DF91CF911F910F910895CF93F8
:1059F000DF939C01009709F48FC0EC0122971B8272
:105A00001A826091990570919A056115710581F46A
:105A100088819981820F931F209197053091980575
:105A20002817390739F5D0939805C093970574C0A6
:105A3000DB0140E050E0AC17BD0708F1BB83AA834F
:105A4000FE0121913191E20FF31FAE17BF0779F4E8
:105A50008D919C911197280F391F2E5F3F4F3983ED
:105A6000288312968D919C9113979B838A8341156D
:105A7000510571F4D0939A05C09399054DC01296C3
:105A80008D919C911397AD01009711F0DC01D3CF5C
:105A9000DA011396DC93CE931297FA01219131919A
:105AA000E20FF31FCE17DF0769F488819981280F71
:105AB000391F2E5F3F4FFA01318320838A819B81FA
:105AC00093838283E0E0F0E0DB0112968D919C915C
:105AD0001397009719F0BC01FD01F6CFAB014E5FA3
